{
	"WebCrawlerDriver.sol": {
		"WebCrawlerDriver": {
			"abi": [
				{
					"inputs": [
						{
							"internalType": "address",
							"name": "crawlerAddress",
							"type": "address"
						}
					],
					"stateMutability": "nonpayable",
					"type": "constructor"
				},
				{
					"inputs": [],
					"name": "crawler",
					"outputs": [
						{
							"internalType": "contract WebCrawler",
							"name": "",
							"type": "address"
						}
					],
					"stateMutability": "view",
					"type": "function"
				},
				{
					"inputs": [
						{
							"internalType": "string",
							"name": "keyword",
							"type": "string"
						}
					],
					"name": "search",
					"outputs": [
						{
							"internalType": "string",
							"name": "",
							"type": "string"
						}
					],
					"stateMutability": "view",
					"type": "function"
				}
			],
			"devdoc": {
				"kind": "dev",
				"methods": {},
				"version": 1
			},
			"evm": {
				"assembly": "    /* \"WebCrawlerDriver.sol\":85:7644  contract WebCrawlerDriver {... */\n  mstore(0x40, 0x80)\n    /* \"WebCrawlerDriver.sol\":149:238  constructor(address crawlerAddress) {... */\n  callvalue\n  dup1\n  iszero\n  tag_1\n  jumpi\n  0x00\n  dup1\n  revert\ntag_1:\n  pop\n  mload(0x40)\n  sub(codesize, bytecodeSize)\n  dup1\n  bytecodeSize\n  dup4\n  codecopy\n  dup2\n  dup2\n  add\n  0x40\n  mstore\n  dup2\n  add\n  swap1\n  tag_2\n  swap2\n  swap1\n  tag_3\n  jump\t// in\ntag_2:\n    /* \"WebCrawlerDriver.sol\":216:230  crawlerAddress */\n  dup1\n    /* \"WebCrawlerDriver.sol\":195:202  crawler */\n  0x00\n  dup1\n    /* \"WebCrawlerDriver.sol\":195:231  crawler = WebCrawler(crawlerAddress) */\n  0x0100\n  exp\n  dup2\n  sload\n  dup2\n  0xffffffffffffffffffffffffffffffffffffffff\n  mul\n  not\n  and\n  swap1\n  dup4\n  0xffffffffffffffffffffffffffffffffffffffff\n  and\n  mul\n  or\n  swap1\n  sstore\n  pop\n    /* \"WebCrawlerDriver.sol\":149:238  constructor(address crawlerAddress) {... */\n  pop\n    /* \"WebCrawlerDriver.sol\":85:7644  contract WebCrawlerDriver {... */\n  jump(tag_6)\n    /* \"#utility.yul\":88:205   */\ntag_8:\n    /* \"#utility.yul\":197:198   */\n  0x00\n    /* \"#utility.yul\":194:195   */\n  dup1\n    /* \"#utility.yul\":187:199   */\n  revert\n    /* \"#utility.yul\":334:460   */\ntag_10:\n    /* \"#utility.yul\":371:378   */\n  0x00\n    /* \"#utility.yul\":411:453   */\n  0xffffffffffffffffffffffffffffffffffffffff\n    /* \"#utility.yul\":404:409   */\n  dup3\n    /* \"#utility.yul\":400:454   */\n  and\n    /* \"#utility.yul\":389:454   */\n  swap1\n  pop\n    /* \"#utility.yul\":334:460   */\n  swap2\n  swap1\n  pop\n  jump\t// out\n    /* \"#utility.yul\":466:562   */\ntag_11:\n    /* \"#utility.yul\":503:510   */\n  0x00\n    /* \"#utility.yul\":532:556   */\n  tag_20\n    /* \"#utility.yul\":550:555   */\n  dup3\n    /* \"#utility.yul\":532:556   */\n  tag_10\n  jump\t// in\ntag_20:\n    /* \"#utility.yul\":521:556   */\n  swap1\n  pop\n    /* \"#utility.yul\":466:562   */\n  swap2\n  swap1\n  pop\n  jump\t// out\n    /* \"#utility.yul\":568:690   */\ntag_12:\n    /* \"#utility.yul\":641:665   */\n  tag_22\n    /* \"#utility.yul\":659:664   */\n  dup2\n    /* \"#utility.yul\":641:665   */\n  tag_11\n  jump\t// in\ntag_22:\n    /* \"#utility.yul\":634:639   */\n  dup2\n    /* \"#utility.yul\":631:666   */\n  eq\n    /* \"#utility.yul\":621:684   */\n  tag_23\n  jumpi\n    /* \"#utility.yul\":680:681   */\n  0x00\n    /* \"#utility.yul\":677:678   */\n  dup1\n    /* \"#utility.yul\":670:682   */\n  revert\n    /* \"#utility.yul\":621:684   */\ntag_23:\n    /* \"#utility.yul\":568:690   */\n  pop\n  jump\t// out\n    /* \"#utility.yul\":696:839   */\ntag_13:\n    /* \"#utility.yul\":753:758   */\n  0x00\n    /* \"#utility.yul\":784:790   */\n  dup2\n    /* \"#utility.yul\":778:791   */\n  mload\n    /* \"#utility.yul\":769:791   */\n  swap1\n  pop\n    /* \"#utility.yul\":800:833   */\n  tag_25\n    /* \"#utility.yul\":827:832   */\n  dup2\n    /* \"#utility.yul\":800:833   */\n  tag_12\n  jump\t// in\ntag_25:\n    /* \"#utility.yul\":696:839   */\n  swap3\n  swap2\n  pop\n  pop\n  jump\t// out\n    /* \"#utility.yul\":845:1196   */\ntag_3:\n    /* \"#utility.yul\":915:921   */\n  0x00\n    /* \"#utility.yul\":964:966   */\n  0x20\n    /* \"#utility.yul\":952:961   */\n  dup3\n    /* \"#utility.yul\":943:950   */\n  dup5\n    /* \"#utility.yul\":939:962   */\n  sub\n    /* \"#utility.yul\":935:967   */\n  slt\n    /* \"#utility.yul\":932:1051   */\n  iszero\n  tag_27\n  jumpi\n    /* \"#utility.yul\":970:1049   */\n  tag_28\n  tag_8\n  jump\t// in\ntag_28:\n    /* \"#utility.yul\":932:1051   */\ntag_27:\n    /* \"#utility.yul\":1090:1091   */\n  0x00\n    /* \"#utility.yul\":1115:1179   */\n  tag_29\n    /* \"#utility.yul\":1171:1178   */\n  dup5\n    /* \"#utility.yul\":1162:1168   */\n  dup3\n    /* \"#utility.yul\":1151:1160   */\n  dup6\n    /* \"#utility.yul\":1147:1169   */\n  add\n    /* \"#utility.yul\":1115:1179   */\n  tag_13\n  jump\t// in\ntag_29:\n    /* \"#utility.yul\":1105:1179   */\n  swap2\n  pop\n    /* \"#utility.yul\":1061:1189   */\n  pop\n    /* \"#utility.yul\":845:1196   */\n  swap3\n  swap2\n  pop\n  pop\n  jump\t// out\n    /* \"WebCrawlerDriver.sol\":85:7644  contract WebCrawlerDriver {... */\ntag_6:\n  dataSize(sub_0)\n  dup1\n  dataOffset(sub_0)\n  0x00\n  codecopy\n  0x00\n  return\nstop\n\nsub_0: assembly {\n        /* \"WebCrawlerDriver.sol\":85:7644  contract WebCrawlerDriver {... */\n      mstore(0x40, 0x80)\n      callvalue\n      dup1\n      iszero\n      tag_1\n      jumpi\n      0x00\n      dup1\n      revert\n    tag_1:\n      pop\n      jumpi(tag_2, lt(calldatasize, 0x04))\n      shr(0xe0, calldataload(0x00))\n      dup1\n      0x820ed086\n      eq\n      tag_3\n      jumpi\n      dup1\n      0xfc86d923\n      eq\n      tag_4\n      jumpi\n    tag_2:\n      0x00\n      dup1\n      revert\n        /* \"WebCrawlerDriver.sol\":244:7641  function search(string calldata keyword) external view returns (string memory)... */\n    tag_3:\n      tag_5\n      0x04\n      dup1\n      calldatasize\n      sub\n      dup2\n      add\n      swap1\n      tag_6\n      swap2\n      swap1\n      tag_7\n      jump\t// in\n    tag_6:\n      tag_8\n      jump\t// in\n    tag_5:\n      mload(0x40)\n      tag_9\n      swap2\n      swap1\n      tag_10\n      jump\t// in\n    tag_9:\n      mload(0x40)\n      dup1\n      swap2\n      sub\n      swap1\n      return\n        /* \"WebCrawlerDriver.sol\":117:142  WebCrawler public crawler */\n    tag_4:\n      tag_11\n      tag_12\n      jump\t// in\n    tag_11:\n      mload(0x40)\n      tag_13\n      swap2\n      swap1\n      tag_14\n      jump\t// in\n    tag_13:\n      mload(0x40)\n      dup1\n      swap2\n      sub\n      swap1\n      return\n        /* \"WebCrawlerDriver.sol\":244:7641  function search(string calldata keyword) external view returns (string memory)... */\n    tag_8:\n        /* \"WebCrawlerDriver.sol\":308:321  string memory */\n      0x60\n        /* \"WebCrawlerDriver.sol\":337:362  string memory crawledData */\n      0x00\n        /* \"WebCrawlerDriver.sol\":365:372  crawler */\n      dup1\n      0x00\n      swap1\n      sload\n      swap1\n      0x0100\n      exp\n      swap1\n      div\n      0xffffffffffffffffffffffffffffffffffffffff\n      and\n        /* \"WebCrawlerDriver.sol\":365:387  crawler.getCrawledData */\n      0xffffffffffffffffffffffffffffffffffffffff\n      and\n      0xc2990d16\n        /* \"WebCrawlerDriver.sol\":365:389  crawler.getCrawledData() */\n      mload(0x40)\n      dup2\n      0xffffffff\n      and\n      0xe0\n      shl\n      dup2\n      mstore\n      0x04\n      add\n      0x00\n      mload(0x40)\n      dup1\n      dup4\n      sub\n      dup2\n      dup7\n      gas\n      staticcall\n      iszero\n      dup1\n      iszero\n      tag_17\n      jumpi\n      returndatasize\n      0x00\n      dup1\n      returndatacopy\n      revert(0x00, returndatasize)\n    tag_17:\n      pop\n      pop\n      pop\n      pop\n      mload(0x40)\n      returndatasize\n      0x00\n      dup3\n      returndatacopy\n      returndatasize\n      not(0x1f)\n      0x1f\n      dup3\n      add\n      and\n      dup3\n      add\n      dup1\n      0x40\n      mstore\n      pop\n      dup2\n      add\n      swap1\n      tag_18\n      swap2\n      swap1\n      tag_19\n      jump\t// in\n    tag_18:\n        /* \"WebCrawlerDriver.sol\":337:389  string memory crawledData = crawler.getCrawledData() */\n      swap1\n      pop\n        /* \"WebCrawlerDriver.sol\":399:424  string memory trainedData */\n      0x00\n        /* \"WebCrawlerDriver.sol\":427:434  crawler */\n      dup1\n      0x00\n      swap1\n      sload\n      swap1\n      0x0100\n      exp\n      swap1\n      div\n      0xffffffffffffffffffffffffffffffffffffffff\n      and\n        /* \"WebCrawlerDriver.sol\":427:449  crawler.getTrainedData */\n      0xffffffffffffffffffffffffffffffffffffffff\n      and\n      0xe78be902\n        /* \"WebCrawlerDriver.sol\":427:451  crawler.getTrainedData() */\n      mload(0x40)\n      dup2\n      0xffffffff\n      and\n      0xe0\n      shl\n      dup2\n      mstore\n      0x04\n      add\n      0x00\n      mload(0x40)\n      dup1\n      dup4\n      sub\n      dup2\n      dup7\n      gas\n      staticcall\n      iszero\n      dup1\n      iszero\n      tag_21\n      jumpi\n      returndatasize\n      0x00\n      dup1\n      returndatacopy\n      revert(0x00, returndatasize)\n    tag_21:\n      pop\n      pop\n      pop\n      pop\n      mload(0x40)\n      returndatasize\n      0x00\n      dup3\n      returndatacopy\n      returndatasize\n      not(0x1f)\n      0x1f\n      dup3\n      add\n      and\n      dup3\n      add\n      dup1\n      0x40\n      mstore\n      pop\n      dup2\n      add\n      swap1\n      tag_22\n      swap2\n      swap1\n      tag_19\n      jump\t// in\n    tag_22:\n        /* \"WebCrawlerDriver.sol\":399:451  string memory trainedData = crawler.getTrainedData() */\n      swap1\n      pop\n        /* \"WebCrawlerDriver.sol\":462:483  string memory results */\n      0x00\n        /* \"WebCrawlerDriver.sol\":462:488  string memory results = \"\" */\n      mload(0x40)\n      dup1\n      0x20\n      add\n      0x40\n      mstore\n      dup1\n      0x00\n      dup2\n      mstore\n      pop\n      swap1\n      pop\n        /* \"WebCrawlerDriver.sol\":530:531  0 */\n      0x00\n        /* \"WebCrawlerDriver.sol\":508:519  crawledData */\n      dup4\n        /* \"WebCrawlerDriver.sol\":502:527  bytes(crawledData).length */\n      mload\n        /* \"WebCrawlerDriver.sol\":502:531  bytes(crawledData).length > 0 */\n      gt\n        /* \"WebCrawlerDriver.sol\":502:564  bytes(crawledData).length > 0 && bytes(trainedData).length > 0 */\n      dup1\n      iszero\n      tag_23\n      jumpi\n      pop\n        /* \"WebCrawlerDriver.sol\":563:564  0 */\n      0x00\n        /* \"WebCrawlerDriver.sol\":541:552  trainedData */\n      dup3\n        /* \"WebCrawlerDriver.sol\":535:560  bytes(trainedData).length */\n      mload\n        /* \"WebCrawlerDriver.sol\":535:564  bytes(trainedData).length > 0 */\n      gt\n        /* \"WebCrawlerDriver.sol\":502:564  bytes(crawledData).length > 0 && bytes(trainedData).length > 0 */\n    tag_23:\n        /* \"WebCrawlerDriver.sol\":498:7611  if (bytes(crawledData).length > 0 && bytes(trainedData).length > 0) {... */\n      iszero\n      tag_24\n      jumpi\n        /* \"WebCrawlerDriver.sol\":691:702  crawledData */\n      dup3\n        /* \"WebCrawlerDriver.sol\":767:778  trainedData */\n      dup3\n        /* \"WebCrawlerDriver.sol\":614:796  abi.encodePacked(... */\n      add(0x20, mload(0x40))\n      tag_25\n      swap3\n      swap2\n      swap1\n      tag_26\n      jump\t// in\n    tag_25:\n      mload(0x40)\n      0x20\n      dup2\n      dup4\n      sub\n      sub\n      dup2\n      mstore\n      swap1\n      0x40\n      mstore\n        /* \"WebCrawlerDriver.sol\":580:810  results = string(... */\n      swap1\n      pop\n        /* \"WebCrawlerDriver.sol\":852:853  0 */\n      0x00\n        /* \"WebCrawlerDriver.sol\":834:841  keyword */\n      dup7\n      dup7\n        /* \"WebCrawlerDriver.sol\":828:849  bytes(keyword).length */\n      swap1\n      pop\n        /* \"WebCrawlerDriver.sol\":828:853  bytes(keyword).length > 0 */\n      gt\n        /* \"WebCrawlerDriver.sol\":824:7601  if (bytes(keyword).length > 0) {... */\n      iszero\n      tag_27\n      jumpi\n        /* \"WebCrawlerDriver.sol\":947:964  bool crawledMatch */\n      0x00\n        /* \"WebCrawlerDriver.sol\":1022:1029  keyword */\n      dup7\n      dup7\n        /* \"WebCrawlerDriver.sol\":1016:1037  bytes(keyword).length */\n      swap1\n      pop\n        /* \"WebCrawlerDriver.sol\":973:984  crawledData */\n      dup5\n        /* \"WebCrawlerDriver.sol\":967:992  bytes(crawledData).length */\n      mload\n        /* \"WebCrawlerDriver.sol\":967:1037  bytes(crawledData).length >=... */\n      lt\n      iszero\n        /* \"WebCrawlerDriver.sol\":967:1104  bytes(crawledData).length >=... */\n      dup1\n      iszero\n      tag_28\n      jumpi\n      pop\n        /* \"WebCrawlerDriver.sol\":1093:1100  keyword */\n      dup7\n      dup7\n        /* \"WebCrawlerDriver.sol\":1102:1103  0 */\n      0x00\n        /* \"WebCrawlerDriver.sol\":1087:1104  bytes(keyword)[0] */\n      dup2\n      dup2\n      lt\n      tag_29\n      jumpi\n      tag_30\n      tag_31\n      jump\t// in\n    tag_30:\n    tag_29:\n      swap1\n      pop\n      add\n      calldataload\n      0xf8\n      shr\n      0xf8\n      shl\n        /* \"WebCrawlerDriver.sol\":1061:1104  bytes(crawledData)[32] == bytes(keyword)[0] */\n      not(0xffffffffffffffffffffffffffffffffffffffffffffffffffffffffffffff)\n      and\n        /* \"WebCrawlerDriver.sol\":1067:1078  crawledData */\n      dup5\n        /* \"WebCrawlerDriver.sol\":1080:1082  32 */\n      0x20\n        /* \"WebCrawlerDriver.sol\":1061:1083  bytes(crawledData)[32] */\n      dup2\n      mload\n      dup2\n      lt\n      tag_32\n      jumpi\n      tag_33\n      tag_31\n      jump\t// in\n    tag_33:\n    tag_32:\n      0x20\n      add\n      add\n      mload\n      0xf8\n      shr\n      0xf8\n      shl\n        /* \"WebCrawlerDriver.sol\":1061:1104  bytes(crawledData)[32] == bytes(keyword)[0] */\n      not(0xffffffffffffffffffffffffffffffffffffffffffffffffffffffffffffff)\n      and\n      eq\n        /* \"WebCrawlerDriver.sol\":967:1104  bytes(crawledData).length >=... */\n    tag_28:\n        /* \"WebCrawlerDriver.sol\":967:1239  bytes(crawledData).length >=... */\n      dup1\n      iszero\n      tag_34\n      jumpi\n      pop\n        /* \"WebCrawlerDriver.sol\":1204:1211  keyword */\n      dup7\n      dup7\n        /* \"WebCrawlerDriver.sol\":1237:1238  1 */\n      0x01\n        /* \"WebCrawlerDriver.sol\":1219:1226  keyword */\n      dup10\n      dup10\n        /* \"WebCrawlerDriver.sol\":1213:1234  bytes(keyword).length */\n      swap1\n      pop\n        /* \"WebCrawlerDriver.sol\":1213:1238  bytes(keyword).length - 1 */\n      tag_35\n      swap2\n      swap1\n      tag_36\n      jump\t// in\n    tag_35:\n        /* \"WebCrawlerDriver.sol\":1198:1239  bytes(keyword)[bytes(keyword).length - 1] */\n      dup2\n      dup2\n      lt\n      tag_37\n      jumpi\n      tag_38\n      tag_31\n      jump\t// in\n    tag_38:\n    tag_37:\n      swap1\n      pop\n      add\n      calldataload\n      0xf8\n      shr\n      0xf8\n      shl\n        /* \"WebCrawlerDriver.sol\":1128:1239  bytes(crawledData)[32 + bytes(keyword).length] ==... */\n      not(0xffffffffffffffffffffffffffffffffffffffffffffffffffffffffffffff)\n      and\n        /* \"WebCrawlerDriver.sol\":1134:1145  crawledData */\n      dup5\n        /* \"WebCrawlerDriver.sol\":1158:1165  keyword */\n      dup9\n      dup9\n        /* \"WebCrawlerDriver.sol\":1152:1173  bytes(keyword).length */\n      swap1\n      pop\n        /* \"WebCrawlerDriver.sol\":1147:1149  32 */\n      0x20\n        /* \"WebCrawlerDriver.sol\":1147:1173  32 + bytes(keyword).length */\n      tag_39\n      swap2\n      swap1\n      tag_40\n      jump\t// in\n    tag_39:\n        /* \"WebCrawlerDriver.sol\":1128:1174  bytes(crawledData)[32 + bytes(keyword).length] */\n      dup2\n      mload\n      dup2\n      lt\n      tag_41\n      jumpi\n      tag_42\n      tag_31\n      jump\t// in\n    tag_42:\n    tag_41:\n      0x20\n      add\n      add\n      mload\n      0xf8\n      shr\n      0xf8\n      shl\n        /* \"WebCrawlerDriver.sol\":1128:1239  bytes(crawledData)[32 + bytes(keyword).length] ==... */\n      not(0xffffffffffffffffffffffffffffffffffffffffffffffffffffffffffffff)\n      and\n      eq\n        /* \"WebCrawlerDriver.sol\":967:1239  bytes(crawledData).length >=... */\n    tag_34:\n        /* \"WebCrawlerDriver.sol\":947:1239  bool crawledMatch = bytes(crawledData).length >=... */\n      swap1\n      pop\n        /* \"WebCrawlerDriver.sol\":1257:1274  bool trainedMatch */\n      0x00\n        /* \"WebCrawlerDriver.sol\":1332:1339  keyword */\n      dup8\n      dup8\n        /* \"WebCrawlerDriver.sol\":1326:1347  bytes(keyword).length */\n      swap1\n      pop\n        /* \"WebCrawlerDriver.sol\":1283:1294  trainedData */\n      dup5\n        /* \"WebCrawlerDriver.sol\":1277:1302  bytes(trainedData).length */\n      mload\n        /* \"WebCrawlerDriver.sol\":1277:1347  bytes(trainedData).length >=... */\n      lt\n      iszero\n        /* \"WebCrawlerDriver.sol\":1277:1414  bytes(trainedData).length >=... */\n      dup1\n      iszero\n      tag_43\n      jumpi\n      pop\n        /* \"WebCrawlerDriver.sol\":1403:1410  keyword */\n      dup8\n      dup8\n        /* \"WebCrawlerDriver.sol\":1412:1413  0 */\n      0x00\n        /* \"WebCrawlerDriver.sol\":1397:1414  bytes(keyword)[0] */\n      dup2\n      dup2\n      lt\n      tag_44\n      jumpi\n      tag_45\n      tag_31\n      jump\t// in\n    tag_45:\n    tag_44:\n      swap1\n      pop\n      add\n      calldataload\n      0xf8\n      shr\n      0xf8\n      shl\n        /* \"WebCrawlerDriver.sol\":1371:1414  bytes(trainedData)[32] == bytes(keyword)[0] */\n      not(0xffffffffffffffffffffffffffffffffffffffffffffffffffffffffffffff)\n      and\n        /* \"WebCrawlerDriver.sol\":1377:1388  trainedData */\n      dup5\n        /* \"WebCrawlerDriver.sol\":1390:1392  32 */\n      0x20\n        /* \"WebCrawlerDriver.sol\":1371:1393  bytes(trainedData)[32] */\n      dup2\n      mload\n      dup2\n      lt\n      tag_46\n      jumpi\n      tag_47\n      tag_31\n      jump\t// in\n    tag_47:\n    tag_46:\n      0x20\n      add\n      add\n      mload\n      0xf8\n      shr\n      0xf8\n      shl\n        /* \"WebCrawlerDriver.sol\":1371:1414  bytes(trainedData)[32] == bytes(keyword)[0] */\n      not(0xffffffffffffffffffffffffffffffffffffffffffffffffffffffffffffff)\n      and\n      eq\n        /* \"WebCrawlerDriver.sol\":1277:1414  bytes(trainedData).length >=... */\n    tag_43:\n        /* \"WebCrawlerDriver.sol\":1277:1549  bytes(trainedData).length >=... */\n      dup1\n      iszero\n      tag_48\n      jumpi\n      pop\n        /* \"WebCrawlerDriver.sol\":1514:1521  keyword */\n      dup8\n      dup8\n        /* \"WebCrawlerDriver.sol\":1547:1548  1 */\n      0x01\n        /* \"WebCrawlerDriver.sol\":1529:1536  keyword */\n      dup11\n      dup11\n        /* \"WebCrawlerDriver.sol\":1523:1544  bytes(keyword).length */\n      swap1\n      pop\n        /* \"WebCrawlerDriver.sol\":1523:1548  bytes(keyword).length - 1 */\n      tag_49\n      swap2\n      swap1\n      tag_36\n      jump\t// in\n    tag_49:\n        /* \"WebCrawlerDriver.sol\":1508:1549  bytes(keyword)[bytes(keyword).length - 1] */\n      dup2\n      dup2\n      lt\n      tag_50\n      jumpi\n      tag_51\n      tag_31\n      jump\t// in\n    tag_51:\n    tag_50:\n      swap1\n      pop\n      add\n      calldataload\n      0xf8\n      shr\n      0xf8\n      shl\n        /* \"WebCrawlerDriver.sol\":1438:1549  bytes(trainedData)[32 + bytes(keyword).length] ==... */\n      not(0xffffffffffffffffffffffffffffffffffffffffffffffffffffffffffffff)\n      and\n        /* \"WebCrawlerDriver.sol\":1444:1455  trainedData */\n      dup5\n        /* \"WebCrawlerDriver.sol\":1468:1475  keyword */\n      dup10\n      dup10\n        /* \"WebCrawlerDriver.sol\":1462:1483  bytes(keyword).length */\n      swap1\n      pop\n        /* \"WebCrawlerDriver.sol\":1457:1459  32 */\n      0x20\n        /* \"WebCrawlerDriver.sol\":1457:1483  32 + bytes(keyword).length */\n      tag_52\n      swap2\n      swap1\n      tag_40\n      jump\t// in\n    tag_52:\n        /* \"WebCrawlerDriver.sol\":1438:1484  bytes(trainedData)[32 + bytes(keyword).length] */\n      dup2\n      mload\n      dup2\n      lt\n      tag_53\n      jumpi\n      tag_54\n      tag_31\n      jump\t// in\n    tag_54:\n    tag_53:\n      0x20\n      add\n      add\n      mload\n      0xf8\n      shr\n      0xf8\n      shl\n        /* \"WebCrawlerDriver.sol\":1438:1549  bytes(trainedData)[32 + bytes(keyword).length] ==... */\n      not(0xffffffffffffffffffffffffffffffffffffffffffffffffffffffffffffff)\n      and\n      eq\n        /* \"WebCrawlerDriver.sol\":1277:1549  bytes(trainedData).length >=... */\n    tag_48:\n        /* \"WebCrawlerDriver.sol\":1257:1549  bool trainedMatch = bytes(trainedData).length >=... */\n      swap1\n      pop\n        /* \"WebCrawlerDriver.sol\":1571:1583  crawledMatch */\n      dup2\n        /* \"WebCrawlerDriver.sol\":1571:1599  crawledMatch || trainedMatch */\n      dup1\n      tag_55\n      jumpi\n      pop\n        /* \"WebCrawlerDriver.sol\":1587:1599  trainedMatch */\n      dup1\n        /* \"WebCrawlerDriver.sol\":1571:1599  crawledMatch || trainedMatch */\n    tag_55:\n        /* \"WebCrawlerDriver.sol\":1567:7587  if (crawledMatch || trainedMatch) {... */\n      iszero\n      tag_56\n      jumpi\n        /* \"WebCrawlerDriver.sol\":1711:1718  results */\n      dup3\n        /* \"WebCrawlerDriver.sol\":1797:1804  keyword */\n      dup9\n      dup9\n        /* \"WebCrawlerDriver.sol\":1665:1866  abi.encodePacked(... */\n      add(0x20, mload(0x40))\n      tag_57\n      swap4\n      swap3\n      swap2\n      swap1\n      tag_58\n      jump\t// in\n    tag_57:\n      mload(0x40)\n      0x20\n      dup2\n      dup4\n      sub\n      sub\n      dup2\n      mstore\n      swap1\n      0x40\n      mstore\n        /* \"WebCrawlerDriver.sol\":1623:1888  results = string(... */\n      swap3\n      pop\n        /* \"WebCrawlerDriver.sol\":1914:1926  crawledMatch */\n      dup2\n        /* \"WebCrawlerDriver.sol\":1910:4911  if (crawledMatch) {... */\n      iszero\n      tag_59\n      jumpi\n        /* \"WebCrawlerDriver.sol\":1954:1974  uint256 crawledIndex */\n      0x00\n        /* \"WebCrawlerDriver.sol\":1983:1994  crawledData */\n      dup6\n        /* \"WebCrawlerDriver.sol\":1977:2002  bytes(crawledData).length */\n      mload\n        /* \"WebCrawlerDriver.sol\":1954:2002  uint256 crawledIndex = bytes(crawledData).length */\n      swap1\n      pop\n        /* \"WebCrawlerDriver.sol\":2028:4889  while (crawledIndex > 0) {... */\n    tag_60:\n        /* \"WebCrawlerDriver.sol\":2050:2051  0 */\n      0x00\n        /* \"WebCrawlerDriver.sol\":2035:2047  crawledIndex */\n      dup2\n        /* \"WebCrawlerDriver.sol\":2035:2051  crawledIndex > 0 */\n      gt\n        /* \"WebCrawlerDriver.sol\":2028:4889  while (crawledIndex > 0) {... */\n      iszero\n      tag_61\n      jumpi\n        /* \"WebCrawlerDriver.sol\":2083:2097  crawledIndex-- */\n      dup1\n      dup1\n      tag_62\n      swap1\n      tag_63\n      jump\t// in\n    tag_62:\n      swap2\n      pop\n      pop\n        /* \"WebCrawlerDriver.sol\":2238:2245  keyword */\n      dup9\n      dup9\n        /* \"WebCrawlerDriver.sol\":2271:2272  1 */\n      0x01\n        /* \"WebCrawlerDriver.sol\":2253:2260  keyword */\n      dup12\n      dup12\n        /* \"WebCrawlerDriver.sol\":2247:2268  bytes(keyword).length */\n      swap1\n      pop\n        /* \"WebCrawlerDriver.sol\":2247:2272  bytes(keyword).length - 1 */\n      tag_64\n      swap2\n      swap1\n      tag_36\n      jump\t// in\n    tag_64:\n        /* \"WebCrawlerDriver.sol\":2232:2273  bytes(keyword)[bytes(keyword).length - 1] */\n      dup2\n      dup2\n      lt\n      tag_65\n      jumpi\n      tag_66\n      tag_31\n      jump\t// in\n    tag_66:\n    tag_65:\n      swap1\n      pop\n      add\n      calldataload\n      0xf8\n      shr\n      0xf8\n      shl\n        /* \"WebCrawlerDriver.sol\":2164:2273  bytes(crawledData)[crawledIndex] ==... */\n      not(0xffffffffffffffffffffffffffffffffffffffffffffffffffffffffffffff)\n      and\n        /* \"WebCrawlerDriver.sol\":2170:2181  crawledData */\n      dup7\n        /* \"WebCrawlerDriver.sol\":2183:2195  crawledIndex */\n      dup3\n        /* \"WebCrawlerDriver.sol\":2164:2196  bytes(crawledData)[crawledIndex] */\n      dup2\n      mload\n      dup2\n      lt\n      tag_67\n      jumpi\n      tag_68\n      tag_31\n      jump\t// in\n    tag_68:\n    tag_67:\n      0x20\n      add\n      add\n      mload\n      0xf8\n      shr\n      0xf8\n      shl\n        /* \"WebCrawlerDriver.sol\":2164:2273  bytes(crawledData)[crawledIndex] ==... */\n      not(0xffffffffffffffffffffffffffffffffffffffffffffffffffffffffffffff)\n      and\n      eq\n        /* \"WebCrawlerDriver.sol\":2164:2492  bytes(crawledData)[crawledIndex] ==... */\n      dup1\n      iszero\n      tag_69\n      jumpi\n      pop\n        /* \"WebCrawlerDriver.sol\":2481:2488  keyword */\n      dup9\n      dup9\n        /* \"WebCrawlerDriver.sol\":2490:2491  0 */\n      0x00\n        /* \"WebCrawlerDriver.sol\":2475:2492  bytes(keyword)[0] */\n      dup2\n      dup2\n      lt\n      tag_70\n      jumpi\n      tag_71\n      tag_31\n      jump\t// in\n    tag_71:\n    tag_70:\n      swap1\n      pop\n      add\n      calldataload\n      0xf8\n      shr\n      0xf8\n      shl\n        /* \"WebCrawlerDriver.sol\":2309:2492  bytes(crawledData)[... */\n      not(0xffffffffffffffffffffffffffffffffffffffffffffffffffffffffffffff)\n      and\n        /* \"WebCrawlerDriver.sol\":2315:2326  crawledData */\n      dup7\n        /* \"WebCrawlerDriver.sol\":2404:2405  1 */\n      0x01\n        /* \"WebCrawlerDriver.sol\":2386:2393  keyword */\n      dup12\n      dup12\n        /* \"WebCrawlerDriver.sol\":2380:2401  bytes(keyword).length */\n      swap1\n      pop\n        /* \"WebCrawlerDriver.sol\":2365:2377  crawledIndex */\n      dup5\n        /* \"WebCrawlerDriver.sol\":2365:2401  crawledIndex - bytes(keyword).length */\n      tag_72\n      swap2\n      swap1\n      tag_36\n      jump\t// in\n    tag_72:\n        /* \"WebCrawlerDriver.sol\":2365:2405  crawledIndex - bytes(keyword).length + 1 */\n      tag_73\n      swap2\n      swap1\n      tag_40\n      jump\t// in\n    tag_73:\n        /* \"WebCrawlerDriver.sol\":2309:2439  bytes(crawledData)[... */\n      dup2\n      mload\n      dup2\n      lt\n      tag_74\n      jumpi\n      tag_75\n      tag_31\n      jump\t// in\n    tag_75:\n    tag_74:\n      0x20\n      add\n      add\n      mload\n      0xf8\n      shr\n      0xf8\n      shl\n        /* \"WebCrawlerDriver.sol\":2309:2492  bytes(crawledData)[... */\n      not(0xffffffffffffffffffffffffffffffffffffffffffffffffffffffffffffff)\n      and\n      eq\n        /* \"WebCrawlerDriver.sol\":2164:2492  bytes(crawledData)[crawledIndex] ==... */\n    tag_69:\n        /* \"WebCrawlerDriver.sol\":2127:4863  if (... */\n      iszero\n      tag_76\n      jumpi\n        /* \"WebCrawlerDriver.sol\":2557:2570  uint256 start */\n      0x00\n        /* \"WebCrawlerDriver.sol\":2684:2685  1 */\n      0x01\n        /* \"WebCrawlerDriver.sol\":2630:2637  keyword */\n      dup11\n      dup11\n        /* \"WebCrawlerDriver.sol\":2624:2645  bytes(keyword).length */\n      swap1\n      pop\n        /* \"WebCrawlerDriver.sol\":2573:2585  crawledIndex */\n      dup4\n        /* \"WebCrawlerDriver.sol\":2573:2645  crawledIndex -... */\n      tag_77\n      swap2\n      swap1\n      tag_36\n      jump\t// in\n    tag_77:\n        /* \"WebCrawlerDriver.sol\":2573:2685  crawledIndex -... */\n      tag_78\n      swap2\n      swap1\n      tag_40\n      jump\t// in\n    tag_78:\n        /* \"WebCrawlerDriver.sol\":2557:2685  uint256 start = crawledIndex -... */\n      swap1\n      pop\n        /* \"WebCrawlerDriver.sol\":2719:2730  uint256 end */\n      0x00\n        /* \"WebCrawlerDriver.sol\":2748:2749  1 */\n      0x01\n        /* \"WebCrawlerDriver.sol\":2733:2745  crawledIndex */\n      dup4\n        /* \"WebCrawlerDriver.sol\":2733:2749  crawledIndex + 1 */\n      tag_79\n      swap2\n      swap1\n      tag_40\n      jump\t// in\n    tag_79:\n        /* \"WebCrawlerDriver.sol\":2719:2749  uint256 end = crawledIndex + 1 */\n      swap1\n      pop\n        /* \"WebCrawlerDriver.sol\":2783:3028  while (... */\n    tag_80:\n        /* \"WebCrawlerDriver.sol\":2835:2836  0 */\n      0x00\n        /* \"WebCrawlerDriver.sol\":2827:2832  start */\n      dup3\n        /* \"WebCrawlerDriver.sol\":2827:2836  start > 0 */\n      gt\n        /* \"WebCrawlerDriver.sol\":2827:2913  start > 0 &&... */\n      dup1\n      iszero\n      tag_82\n      jumpi\n      pop\n        /* \"WebCrawlerDriver.sol\":2876:2913  bytes(crawledData)[start - 1] != \"\\n\" */\n      0x0a00000000000000000000000000000000000000000000000000000000000000\n        /* \"WebCrawlerDriver.sol\":2882:2893  crawledData */\n      dup9\n        /* \"WebCrawlerDriver.sol\":2903:2904  1 */\n      0x01\n        /* \"WebCrawlerDriver.sol\":2895:2900  start */\n      dup5\n        /* \"WebCrawlerDriver.sol\":2895:2904  start - 1 */\n      tag_83\n      swap2\n      swap1\n      tag_36\n      jump\t// in\n    tag_83:\n        /* \"WebCrawlerDriver.sol\":2876:2905  bytes(crawledData)[start - 1] */\n      dup2\n      mload\n      dup2\n      lt\n      tag_84\n      jumpi\n      tag_85\n      tag_31\n      jump\t// in\n    tag_85:\n    tag_84:\n      0x20\n      add\n      add\n      mload\n      0xf8\n      shr\n      0xf8\n      shl\n        /* \"WebCrawlerDriver.sol\":2876:2913  bytes(crawledData)[start - 1] != \"\\n\" */\n      not(0xffffffffffffffffffffffffffffffffffffffffffffffffffffffffffffff)\n      and\n      eq\n      iszero\n        /* \"WebCrawlerDriver.sol\":2827:2913  start > 0 &&... */\n    tag_82:\n        /* \"WebCrawlerDriver.sol\":2783:3028  while (... */\n      iszero\n      tag_81\n      jumpi\n        /* \"WebCrawlerDriver.sol\":2986:2993  start-- */\n      dup2\n      dup1\n      tag_86\n      swap1\n      tag_63\n      jump\t// in\n    tag_86:\n      swap3\n      pop\n      pop\n        /* \"WebCrawlerDriver.sol\":2783:3028  while (... */\n      jump(tag_80)\n    tag_81:\n        /* \"WebCrawlerDriver.sol\":3061:3320  while (... */\n    tag_87:\n        /* \"WebCrawlerDriver.sol\":3117:3128  crawledData */\n      dup8\n        /* \"WebCrawlerDriver.sol\":3111:3136  bytes(crawledData).length */\n      mload\n        /* \"WebCrawlerDriver.sol\":3105:3108  end */\n      dup2\n        /* \"WebCrawlerDriver.sol\":3105:3136  end < bytes(crawledData).length */\n      lt\n        /* \"WebCrawlerDriver.sol\":3105:3207  end < bytes(crawledData).length &&... */\n      dup1\n      iszero\n      tag_89\n      jumpi\n      pop\n        /* \"WebCrawlerDriver.sol\":3176:3207  bytes(crawledData)[end] != \"\\n\" */\n      0x0a00000000000000000000000000000000000000000000000000000000000000\n        /* \"WebCrawlerDriver.sol\":3182:3193  crawledData */\n      dup9\n        /* \"WebCrawlerDriver.sol\":3195:3198  end */\n      dup3\n        /* \"WebCrawlerDriver.sol\":3176:3199  bytes(crawledData)[end] */\n      dup2\n      mload\n      dup2\n      lt\n      tag_90\n      jumpi\n      tag_91\n      tag_31\n      jump\t// in\n    tag_91:\n    tag_90:\n      0x20\n      add\n      add\n      mload\n      0xf8\n      shr\n      0xf8\n      shl\n        /* \"WebCrawlerDriver.sol\":3176:3207  bytes(crawledData)[end] != \"\\n\" */\n      not(0xffffffffffffffffffffffffffffffffffffffffffffffffffffffffffffff)\n      and\n      eq\n      iszero\n        /* \"WebCrawlerDriver.sol\":3105:3207  end < bytes(crawledData).length &&... */\n    tag_89:\n        /* \"WebCrawlerDriver.sol\":3061:3320  while (... */\n      iszero\n      tag_88\n      jumpi\n        /* \"WebCrawlerDriver.sol\":3280:3285  end++ */\n      dup1\n      dup1\n      tag_92\n      swap1\n      tag_93\n      jump\t// in\n    tag_92:\n      swap2\n      pop\n      pop\n        /* \"WebCrawlerDriver.sol\":3061:3320  while (... */\n      jump(tag_87)\n    tag_88:\n        /* \"WebCrawlerDriver.sol\":3836:3865  bytes memory trainedDataBytes */\n      0x00\n        /* \"WebCrawlerDriver.sol\":3911:3922  trainedData */\n      dup8\n        /* \"WebCrawlerDriver.sol\":3836:3956  bytes memory trainedDataBytes = bytes(... */\n      swap1\n      pop\n        /* \"WebCrawlerDriver.sol\":3990:4007  uint256 chunkSize */\n      0x00\n        /* \"WebCrawlerDriver.sol\":4010:4012  32 */\n      0x20\n        /* \"WebCrawlerDriver.sol\":3990:4012  uint256 chunkSize = 32 */\n      swap1\n      pop\n        /* \"WebCrawlerDriver.sol\":4147:4156  uint256 i */\n      0x00\n        /* \"WebCrawlerDriver.sol\":4105:4833  for (... */\n    tag_94:\n        /* \"WebCrawlerDriver.sol\":4202:4218  trainedDataBytes */\n      dup3\n        /* \"WebCrawlerDriver.sol\":4202:4225  trainedDataBytes.length */\n      mload\n        /* \"WebCrawlerDriver.sol\":4198:4199  i */\n      dup2\n        /* \"WebCrawlerDriver.sol\":4198:4225  i < trainedDataBytes.length */\n      lt\n        /* \"WebCrawlerDriver.sol\":4105:4833  for (... */\n      iszero\n      tag_95\n      jumpi\n        /* \"WebCrawlerDriver.sol\":4350:4363  bytes32 chunk */\n      0x00\n        /* \"WebCrawlerDriver.sol\":4541:4543  32 */\n      0x20\n        /* \"WebCrawlerDriver.sol\":4538:4539  i */\n      dup3\n        /* \"WebCrawlerDriver.sol\":4534:4544  add(i, 32) */\n      add\n        /* \"WebCrawlerDriver.sol\":4516:4532  trainedDataBytes */\n      dup5\n        /* \"WebCrawlerDriver.sol\":4512:4545  add(trainedDataBytes, add(i, 32)) */\n      add\n        /* \"WebCrawlerDriver.sol\":4461:4587  mload(... */\n      mload\n        /* \"WebCrawlerDriver.sol\":4452:4587  chunk := mload(... */\n      swap1\n      pop\n        /* \"WebCrawlerDriver.sol\":4737:4744  results */\n      dup10\n        /* \"WebCrawlerDriver.sol\":4754:4759  chunk */\n      dup2\n        /* \"WebCrawlerDriver.sol\":4720:4760  abi.encodePacked(results, \"\\n- \", chunk) */\n      add(0x20, mload(0x40))\n      tag_97\n      swap3\n      swap2\n      swap1\n      tag_98\n      jump\t// in\n    tag_97:\n      mload(0x40)\n      0x20\n      dup2\n      dup4\n      sub\n      sub\n      dup2\n      mstore\n      swap1\n      0x40\n      mstore\n        /* \"WebCrawlerDriver.sol\":4662:4798  results = string(... */\n      swap10\n      pop\n        /* \"WebCrawlerDriver.sol\":4312:4833  {... */\n      pop\n        /* \"WebCrawlerDriver.sol\":4268:4277  chunkSize */\n      dup2\n        /* \"WebCrawlerDriver.sol\":4263:4277  i += chunkSize */\n      dup2\n      tag_99\n      swap2\n      swap1\n      tag_40\n      jump\t// in\n    tag_99:\n      swap1\n      pop\n        /* \"WebCrawlerDriver.sol\":4105:4833  for (... */\n      jump(tag_94)\n    tag_95:\n      pop\n        /* \"WebCrawlerDriver.sol\":2523:4863  {... */\n      pop\n      pop\n      pop\n      pop\n        /* \"WebCrawlerDriver.sol\":2127:4863  if (... */\n    tag_76:\n        /* \"WebCrawlerDriver.sol\":2028:4889  while (crawledIndex > 0) {... */\n      jump(tag_60)\n    tag_61:\n        /* \"WebCrawlerDriver.sol\":1928:4911  {... */\n      pop\n        /* \"WebCrawlerDriver.sol\":1910:4911  if (crawledMatch) {... */\n    tag_59:\n        /* \"WebCrawlerDriver.sol\":4936:4948  trainedMatch */\n      dup1\n        /* \"WebCrawlerDriver.sol\":4932:7569  if (trainedMatch) {... */\n      iszero\n      tag_100\n      jumpi\n        /* \"WebCrawlerDriver.sol\":4976:4996  uint256 trainedIndex */\n      0x00\n        /* \"WebCrawlerDriver.sol\":5005:5016  trainedData */\n      dup5\n        /* \"WebCrawlerDriver.sol\":4999:5024  bytes(trainedData).length */\n      mload\n        /* \"WebCrawlerDriver.sol\":4976:5024  uint256 trainedIndex = bytes(trainedData).length */\n      swap1\n      pop\n        /* \"WebCrawlerDriver.sol\":5050:7547  while (trainedIndex > 0) {... */\n    tag_101:\n        /* \"WebCrawlerDriver.sol\":5072:5073  0 */\n      0x00\n        /* \"WebCrawlerDriver.sol\":5057:5069  trainedIndex */\n      dup2\n        /* \"WebCrawlerDriver.sol\":5057:5073  trainedIndex > 0 */\n      gt\n        /* \"WebCrawlerDriver.sol\":5050:7547  while (trainedIndex > 0) {... */\n      iszero\n      tag_102\n      jumpi\n        /* \"WebCrawlerDriver.sol\":5105:5119  trainedIndex-- */\n      dup1\n      dup1\n      tag_103\n      swap1\n      tag_63\n      jump\t// in\n    tag_103:\n      swap2\n      pop\n      pop\n        /* \"WebCrawlerDriver.sol\":5260:5267  keyword */\n      dup9\n      dup9\n        /* \"WebCrawlerDriver.sol\":5293:5294  1 */\n      0x01\n        /* \"WebCrawlerDriver.sol\":5275:5282  keyword */\n      dup12\n      dup12\n        /* \"WebCrawlerDriver.sol\":5269:5290  bytes(keyword).length */\n      swap1\n      pop\n        /* \"WebCrawlerDriver.sol\":5269:5294  bytes(keyword).length - 1 */\n      tag_104\n      swap2\n      swap1\n      tag_36\n      jump\t// in\n    tag_104:\n        /* \"WebCrawlerDriver.sol\":5254:5295  bytes(keyword)[bytes(keyword).length - 1] */\n      dup2\n      dup2\n      lt\n      tag_105\n      jumpi\n      tag_106\n      tag_31\n      jump\t// in\n    tag_106:\n    tag_105:\n      swap1\n      pop\n      add\n      calldataload\n      0xf8\n      shr\n      0xf8\n      shl\n        /* \"WebCrawlerDriver.sol\":5186:5295  bytes(trainedData)[trainedIndex] ==... */\n      not(0xffffffffffffffffffffffffffffffffffffffffffffffffffffffffffffff)\n      and\n        /* \"WebCrawlerDriver.sol\":5192:5203  trainedData */\n      dup6\n        /* \"WebCrawlerDriver.sol\":5205:5217  trainedIndex */\n      dup3\n        /* \"WebCrawlerDriver.sol\":5186:5218  bytes(trainedData)[trainedIndex] */\n      dup2\n      mload\n      dup2\n      lt\n      tag_107\n      jumpi\n      tag_108\n      tag_31\n      jump\t// in\n    tag_108:\n    tag_107:\n      0x20\n      add\n      add\n      mload\n      0xf8\n      shr\n      0xf8\n      shl\n        /* \"WebCrawlerDriver.sol\":5186:5295  bytes(trainedData)[trainedIndex] ==... */\n      not(0xffffffffffffffffffffffffffffffffffffffffffffffffffffffffffffff)\n      and\n      eq\n        /* \"WebCrawlerDriver.sol\":5186:5514  bytes(trainedData)[trainedIndex] ==... */\n      dup1\n      iszero\n      tag_109\n      jumpi\n      pop\n        /* \"WebCrawlerDriver.sol\":5503:5510  keyword */\n      dup9\n      dup9\n        /* \"WebCrawlerDriver.sol\":5512:5513  0 */\n      0x00\n        /* \"WebCrawlerDriver.sol\":5497:5514  bytes(keyword)[0] */\n      dup2\n      dup2\n      lt\n      tag_110\n      jumpi\n      tag_111\n      tag_31\n      jump\t// in\n    tag_111:\n    tag_110:\n      swap1\n      pop\n      add\n      calldataload\n      0xf8\n      shr\n      0xf8\n      shl\n        /* \"WebCrawlerDriver.sol\":5331:5514  bytes(trainedData)[... */\n      not(0xffffffffffffffffffffffffffffffffffffffffffffffffffffffffffffff)\n      and\n        /* \"WebCrawlerDriver.sol\":5337:5348  trainedData */\n      dup6\n        /* \"WebCrawlerDriver.sol\":5426:5427  1 */\n      0x01\n        /* \"WebCrawlerDriver.sol\":5408:5415  keyword */\n      dup12\n      dup12\n        /* \"WebCrawlerDriver.sol\":5402:5423  bytes(keyword).length */\n      swap1\n      pop\n        /* \"WebCrawlerDriver.sol\":5387:5399  trainedIndex */\n      dup5\n        /* \"WebCrawlerDriver.sol\":5387:5423  trainedIndex - bytes(keyword).length */\n      tag_112\n      swap2\n      swap1\n      tag_36\n      jump\t// in\n    tag_112:\n        /* \"WebCrawlerDriver.sol\":5387:5427  trainedIndex - bytes(keyword).length + 1 */\n      tag_113\n      swap2\n      swap1\n      tag_40\n      jump\t// in\n    tag_113:\n        /* \"WebCrawlerDriver.sol\":5331:5461  bytes(trainedData)[... */\n      dup2\n      mload\n      dup2\n      lt\n      tag_114\n      jumpi\n      tag_115\n      tag_31\n      jump\t// in\n    tag_115:\n    tag_114:\n      0x20\n      add\n      add\n      mload\n      0xf8\n      shr\n      0xf8\n      shl\n        /* \"WebCrawlerDriver.sol\":5331:5514  bytes(trainedData)[... */\n      not(0xffffffffffffffffffffffffffffffffffffffffffffffffffffffffffffff)\n      and\n      eq\n        /* \"WebCrawlerDriver.sol\":5186:5514  bytes(trainedData)[trainedIndex] ==... */\n    tag_109:\n        /* \"WebCrawlerDriver.sol\":5149:7521  if (... */\n      iszero\n      tag_116\n      jumpi\n        /* \"WebCrawlerDriver.sol\":5579:5592  uint256 start */\n      0x00\n        /* \"WebCrawlerDriver.sol\":5706:5707  1 */\n      0x01\n        /* \"WebCrawlerDriver.sol\":5652:5659  keyword */\n      dup11\n      dup11\n        /* \"WebCrawlerDriver.sol\":5646:5667  bytes(keyword).length */\n      swap1\n      pop\n        /* \"WebCrawlerDriver.sol\":5595:5607  trainedIndex */\n      dup4\n        /* \"WebCrawlerDriver.sol\":5595:5667  trainedIndex -... */\n      tag_117\n      swap2\n      swap1\n      tag_36\n      jump\t// in\n    tag_117:\n        /* \"WebCrawlerDriver.sol\":5595:5707  trainedIndex -... */\n      tag_118\n      swap2\n      swap1\n      tag_40\n      jump\t// in\n    tag_118:\n        /* \"WebCrawlerDriver.sol\":5579:5707  uint256 start = trainedIndex -... */\n      swap1\n      pop\n        /* \"WebCrawlerDriver.sol\":5741:5752  uint256 end */\n      0x00\n        /* \"WebCrawlerDriver.sol\":5770:5771  1 */\n      0x01\n        /* \"WebCrawlerDriver.sol\":5755:5767  trainedIndex */\n      dup4\n        /* \"WebCrawlerDriver.sol\":5755:5771  trainedIndex + 1 */\n      tag_119\n      swap2\n      swap1\n      tag_40\n      jump\t// in\n    tag_119:\n        /* \"WebCrawlerDriver.sol\":5741:5771  uint256 end = trainedIndex + 1 */\n      swap1\n      pop\n        /* \"WebCrawlerDriver.sol\":5805:6050  while (... */\n    tag_120:\n        /* \"WebCrawlerDriver.sol\":5857:5858  0 */\n      0x00\n        /* \"WebCrawlerDriver.sol\":5849:5854  start */\n      dup3\n        /* \"WebCrawlerDriver.sol\":5849:5858  start > 0 */\n      gt\n        /* \"WebCrawlerDriver.sol\":5849:5935  start > 0 &&... */\n      dup1\n      iszero\n      tag_122\n      jumpi\n      pop\n        /* \"WebCrawlerDriver.sol\":5898:5935  bytes(trainedData)[start - 1] != \"\\n\" */\n      0x0a00000000000000000000000000000000000000000000000000000000000000\n        /* \"WebCrawlerDriver.sol\":5904:5915  trainedData */\n      dup8\n        /* \"WebCrawlerDriver.sol\":5925:5926  1 */\n      0x01\n        /* \"WebCrawlerDriver.sol\":5917:5922  start */\n      dup5\n        /* \"WebCrawlerDriver.sol\":5917:5926  start - 1 */\n      tag_123\n      swap2\n      swap1\n      tag_36\n      jump\t// in\n    tag_123:\n        /* \"WebCrawlerDriver.sol\":5898:5927  bytes(trainedData)[start - 1] */\n      dup2\n      mload\n      dup2\n      lt\n      tag_124\n      jumpi\n      tag_125\n      tag_31\n      jump\t// in\n    tag_125:\n    tag_124:\n      0x20\n      add\n      add\n      mload\n      0xf8\n      shr\n      0xf8\n      shl\n        /* \"WebCrawlerDriver.sol\":5898:5935  bytes(trainedData)[start - 1] != \"\\n\" */\n      not(0xffffffffffffffffffffffffffffffffffffffffffffffffffffffffffffff)\n      and\n      eq\n      iszero\n        /* \"WebCrawlerDriver.sol\":5849:5935  start > 0 &&... */\n    tag_122:\n        /* \"WebCrawlerDriver.sol\":5805:6050  while (... */\n      iszero\n      tag_121\n      jumpi\n        /* \"WebCrawlerDriver.sol\":6008:6015  start-- */\n      dup2\n      dup1\n      tag_126\n      swap1\n      tag_63\n      jump\t// in\n    tag_126:\n      swap3\n      pop\n      pop\n        /* \"WebCrawlerDriver.sol\":5805:6050  while (... */\n      jump(tag_120)\n    tag_121:\n        /* \"WebCrawlerDriver.sol\":6083:6342  while (... */\n    tag_127:\n        /* \"WebCrawlerDriver.sol\":6139:6150  trainedData */\n      dup7\n        /* \"WebCrawlerDriver.sol\":6133:6158  bytes(trainedData).length */\n      mload\n        /* \"WebCrawlerDriver.sol\":6127:6130  end */\n      dup2\n        /* \"WebCrawlerDriver.sol\":6127:6158  end < bytes(trainedData).length */\n      lt\n        /* \"WebCrawlerDriver.sol\":6127:6229  end < bytes(trainedData).length &&... */\n      dup1\n      iszero\n      tag_129\n      jumpi\n      pop\n        /* \"WebCrawlerDriver.sol\":6198:6229  bytes(trainedData)[end] != \"\\n\" */\n      0x0a00000000000000000000000000000000000000000000000000000000000000\n        /* \"WebCrawlerDriver.sol\":6204:6215  trainedData */\n      dup8\n        /* \"WebCrawlerDriver.sol\":6217:6220  end */\n      dup3\n        /* \"WebCrawlerDriver.sol\":6198:6221  bytes(trainedData)[end] */\n      dup2\n      mload\n      dup2\n      lt\n      tag_130\n      jumpi\n      tag_131\n      tag_31\n      jump\t// in\n    tag_131:\n    tag_130:\n      0x20\n      add\n      add\n      mload\n      0xf8\n      shr\n      0xf8\n      shl\n        /* \"WebCrawlerDriver.sol\":6198:6229  bytes(trainedData)[end] != \"\\n\" */\n      not(0xffffffffffffffffffffffffffffffffffffffffffffffffffffffffffffff)\n      and\n      eq\n      iszero\n        /* \"WebCrawlerDriver.sol\":6127:6229  end < bytes(trainedData).length &&... */\n    tag_129:\n        /* \"WebCrawlerDriver.sol\":6083:6342  while (... */\n      iszero\n      tag_128\n      jumpi\n        /* \"WebCrawlerDriver.sol\":6302:6307  end++ */\n      dup1\n      dup1\n      tag_132\n      swap1\n      tag_93\n      jump\t// in\n    tag_132:\n      swap2\n      pop\n      pop\n        /* \"WebCrawlerDriver.sol\":6083:6342  while (... */\n      jump(tag_127)\n    tag_128:\n        /* \"WebCrawlerDriver.sol\":6493:6522  bytes memory trainedDataBytes */\n      0x00\n        /* \"WebCrawlerDriver.sol\":6568:6579  trainedData */\n      dup8\n        /* \"WebCrawlerDriver.sol\":6493:6613  bytes memory trainedDataBytes = bytes(... */\n      swap1\n      pop\n        /* \"WebCrawlerDriver.sol\":6647:6664  uint256 chunkSize */\n      0x00\n        /* \"WebCrawlerDriver.sol\":6667:6669  32 */\n      0x20\n        /* \"WebCrawlerDriver.sol\":6647:6669  uint256 chunkSize = 32 */\n      swap1\n      pop\n        /* \"WebCrawlerDriver.sol\":6805:6814  uint256 i */\n      0x00\n        /* \"WebCrawlerDriver.sol\":6763:7491  for (... */\n    tag_133:\n        /* \"WebCrawlerDriver.sol\":6860:6876  trainedDataBytes */\n      dup3\n        /* \"WebCrawlerDriver.sol\":6860:6883  trainedDataBytes.length */\n      mload\n        /* \"WebCrawlerDriver.sol\":6856:6857  i */\n      dup2\n        /* \"WebCrawlerDriver.sol\":6856:6883  i < trainedDataBytes.length */\n      lt\n        /* \"WebCrawlerDriver.sol\":6763:7491  for (... */\n      iszero\n      tag_134\n      jumpi\n        /* \"WebCrawlerDriver.sol\":7008:7021  bytes32 chunk */\n      0x00\n        /* \"WebCrawlerDriver.sol\":7199:7201  32 */\n      0x20\n        /* \"WebCrawlerDriver.sol\":7196:7197  i */\n      dup3\n        /* \"WebCrawlerDriver.sol\":7192:7202  add(i, 32) */\n      add\n        /* \"WebCrawlerDriver.sol\":7174:7190  trainedDataBytes */\n      dup5\n        /* \"WebCrawlerDriver.sol\":7170:7203  add(trainedDataBytes, add(i, 32)) */\n      add\n        /* \"WebCrawlerDriver.sol\":7119:7245  mload(... */\n      mload\n        /* \"WebCrawlerDriver.sol\":7110:7245  chunk := mload(... */\n      swap1\n      pop\n        /* \"WebCrawlerDriver.sol\":7395:7402  results */\n      dup10\n        /* \"WebCrawlerDriver.sol\":7412:7417  chunk */\n      dup2\n        /* \"WebCrawlerDriver.sol\":7378:7418  abi.encodePacked(results, \"\\n- \", chunk) */\n      add(0x20, mload(0x40))\n      tag_136\n      swap3\n      swap2\n      swap1\n      tag_98\n      jump\t// in\n    tag_136:\n      mload(0x40)\n      0x20\n      dup2\n      dup4\n      sub\n      sub\n      dup2\n      mstore\n      swap1\n      0x40\n      mstore\n        /* \"WebCrawlerDriver.sol\":7320:7456  results = string(... */\n      swap10\n      pop\n        /* \"WebCrawlerDriver.sol\":6970:7491  {... */\n      pop\n        /* \"WebCrawlerDriver.sol\":6926:6935  chunkSize */\n      dup2\n        /* \"WebCrawlerDriver.sol\":6921:6935  i += chunkSize */\n      dup2\n      tag_137\n      swap2\n      swap1\n      tag_40\n      jump\t// in\n    tag_137:\n      swap1\n      pop\n        /* \"WebCrawlerDriver.sol\":6763:7491  for (... */\n      jump(tag_133)\n    tag_134:\n      pop\n        /* \"WebCrawlerDriver.sol\":5545:7521  {... */\n      pop\n      pop\n      pop\n      pop\n        /* \"WebCrawlerDriver.sol\":5149:7521  if (... */\n    tag_116:\n        /* \"WebCrawlerDriver.sol\":5050:7547  while (trainedIndex > 0) {... */\n      jump(tag_101)\n    tag_102:\n        /* \"WebCrawlerDriver.sol\":4950:7569  {... */\n      pop\n        /* \"WebCrawlerDriver.sol\":4932:7569  if (trainedMatch) {... */\n    tag_100:\n        /* \"WebCrawlerDriver.sol\":1567:7587  if (crawledMatch || trainedMatch) {... */\n    tag_56:\n        /* \"WebCrawlerDriver.sol\":855:7601  {... */\n      pop\n      pop\n        /* \"WebCrawlerDriver.sol\":824:7601  if (bytes(keyword).length > 0) {... */\n    tag_27:\n        /* \"WebCrawlerDriver.sol\":498:7611  if (bytes(crawledData).length > 0 && bytes(trainedData).length > 0) {... */\n    tag_24:\n        /* \"WebCrawlerDriver.sol\":7627:7634  results */\n      dup1\n        /* \"WebCrawlerDriver.sol\":7620:7634  return results */\n      swap4\n      pop\n      pop\n      pop\n      pop\n        /* \"WebCrawlerDriver.sol\":244:7641  function search(string calldata keyword) external view returns (string memory)... */\n      swap3\n      swap2\n      pop\n      pop\n      jump\t// out\n        /* \"WebCrawlerDriver.sol\":117:142  WebCrawler public crawler */\n    tag_12:\n      0x00\n      dup1\n      sload\n      swap1\n      0x0100\n      exp\n      swap1\n      div\n      0xffffffffffffffffffffffffffffffffffffffff\n      and\n      dup2\n      jump\t// out\n        /* \"#utility.yul\":7:82   */\n    tag_138:\n        /* \"#utility.yul\":40:46   */\n      0x00\n        /* \"#utility.yul\":73:75   */\n      0x40\n        /* \"#utility.yul\":67:76   */\n      mload\n        /* \"#utility.yul\":57:76   */\n      swap1\n      pop\n        /* \"#utility.yul\":7:82   */\n      swap1\n      jump\t// out\n        /* \"#utility.yul\":88:205   */\n    tag_139:\n        /* \"#utility.yul\":197:198   */\n      0x00\n        /* \"#utility.yul\":194:195   */\n      dup1\n        /* \"#utility.yul\":187:199   */\n      revert\n        /* \"#utility.yul\":211:328   */\n    tag_140:\n        /* \"#utility.yul\":320:321   */\n      0x00\n        /* \"#utility.yul\":317:318   */\n      dup1\n        /* \"#utility.yul\":310:322   */\n      revert\n        /* \"#utility.yul\":334:451   */\n    tag_141:\n        /* \"#utility.yul\":443:444   */\n      0x00\n        /* \"#utility.yul\":440:441   */\n      dup1\n        /* \"#utility.yul\":433:445   */\n      revert\n        /* \"#utility.yul\":457:574   */\n    tag_142:\n        /* \"#utility.yul\":566:567   */\n      0x00\n        /* \"#utility.yul\":563:564   */\n      dup1\n        /* \"#utility.yul\":556:568   */\n      revert\n        /* \"#utility.yul\":580:697   */\n    tag_143:\n        /* \"#utility.yul\":689:690   */\n      0x00\n        /* \"#utility.yul\":686:687   */\n      dup1\n        /* \"#utility.yul\":679:691   */\n      revert\n        /* \"#utility.yul\":717:1270   */\n    tag_144:\n        /* \"#utility.yul\":775:783   */\n      0x00\n        /* \"#utility.yul\":785:791   */\n      dup1\n        /* \"#utility.yul\":835:838   */\n      dup4\n        /* \"#utility.yul\":828:832   */\n      0x1f\n        /* \"#utility.yul\":820:826   */\n      dup5\n        /* \"#utility.yul\":816:833   */\n      add\n        /* \"#utility.yul\":812:839   */\n      slt\n        /* \"#utility.yul\":802:924   */\n      tag_190\n      jumpi\n        /* \"#utility.yul\":843:922   */\n      tag_191\n      tag_141\n      jump\t// in\n    tag_191:\n        /* \"#utility.yul\":802:924   */\n    tag_190:\n        /* \"#utility.yul\":956:962   */\n      dup3\n        /* \"#utility.yul\":943:963   */\n      calldataload\n        /* \"#utility.yul\":933:963   */\n      swap1\n      pop\n        /* \"#utility.yul\":986:1004   */\n      0xffffffffffffffff\n        /* \"#utility.yul\":978:984   */\n      dup2\n        /* \"#utility.yul\":975:1005   */\n      gt\n        /* \"#utility.yul\":972:1089   */\n      iszero\n      tag_192\n      jumpi\n        /* \"#utility.yul\":1008:1087   */\n      tag_193\n      tag_142\n      jump\t// in\n    tag_193:\n        /* \"#utility.yul\":972:1089   */\n    tag_192:\n        /* \"#utility.yul\":1122:1126   */\n      0x20\n        /* \"#utility.yul\":1114:1120   */\n      dup4\n        /* \"#utility.yul\":1110:1127   */\n      add\n        /* \"#utility.yul\":1098:1127   */\n      swap2\n      pop\n        /* \"#utility.yul\":1176:1179   */\n      dup4\n        /* \"#utility.yul\":1168:1172   */\n      0x01\n        /* \"#utility.yul\":1160:1166   */\n      dup3\n        /* \"#utility.yul\":1156:1173   */\n      mul\n        /* \"#utility.yul\":1146:1154   */\n      dup4\n        /* \"#utility.yul\":1142:1174   */\n      add\n        /* \"#utility.yul\":1139:1180   */\n      gt\n        /* \"#utility.yul\":1136:1264   */\n      iszero\n      tag_194\n      jumpi\n        /* \"#utility.yul\":1183:1262   */\n      tag_195\n      tag_143\n      jump\t// in\n    tag_195:\n        /* \"#utility.yul\":1136:1264   */\n    tag_194:\n        /* \"#utility.yul\":717:1270   */\n      swap3\n      pop\n      swap3\n      swap1\n      pop\n      jump\t// out\n        /* \"#utility.yul\":1276:1805   */\n    tag_7:\n        /* \"#utility.yul\":1347:1353   */\n      0x00\n        /* \"#utility.yul\":1355:1361   */\n      dup1\n        /* \"#utility.yul\":1404:1406   */\n      0x20\n        /* \"#utility.yul\":1392:1401   */\n      dup4\n        /* \"#utility.yul\":1383:1390   */\n      dup6\n        /* \"#utility.yul\":1379:1402   */\n      sub\n        /* \"#utility.yul\":1375:1407   */\n      slt\n        /* \"#utility.yul\":1372:1491   */\n      iszero\n      tag_197\n      jumpi\n        /* \"#utility.yul\":1410:1489   */\n      tag_198\n      tag_139\n      jump\t// in\n    tag_198:\n        /* \"#utility.yul\":1372:1491   */\n    tag_197:\n        /* \"#utility.yul\":1558:1559   */\n      0x00\n        /* \"#utility.yul\":1547:1556   */\n      dup4\n        /* \"#utility.yul\":1543:1560   */\n      add\n        /* \"#utility.yul\":1530:1561   */\n      calldataload\n        /* \"#utility.yul\":1588:1606   */\n      0xffffffffffffffff\n        /* \"#utility.yul\":1580:1586   */\n      dup2\n        /* \"#utility.yul\":1577:1607   */\n      gt\n        /* \"#utility.yul\":1574:1691   */\n      iszero\n      tag_199\n      jumpi\n        /* \"#utility.yul\":1610:1689   */\n      tag_200\n      tag_140\n      jump\t// in\n    tag_200:\n        /* \"#utility.yul\":1574:1691   */\n    tag_199:\n        /* \"#utility.yul\":1723:1788   */\n      tag_201\n        /* \"#utility.yul\":1780:1787   */\n      dup6\n        /* \"#utility.yul\":1771:1777   */\n      dup3\n        /* \"#utility.yul\":1760:1769   */\n      dup7\n        /* \"#utility.yul\":1756:1778   */\n      add\n        /* \"#utility.yul\":1723:1788   */\n      tag_144\n      jump\t// in\n    tag_201:\n        /* \"#utility.yul\":1705:1788   */\n      swap3\n      pop\n      swap3\n      pop\n        /* \"#utility.yul\":1501:1798   */\n      pop\n        /* \"#utility.yul\":1276:1805   */\n      swap3\n      pop\n      swap3\n      swap1\n      pop\n      jump\t// out\n        /* \"#utility.yul\":1811:1910   */\n    tag_145:\n        /* \"#utility.yul\":1863:1869   */\n      0x00\n        /* \"#utility.yul\":1897:1902   */\n      dup2\n        /* \"#utility.yul\":1891:1903   */\n      mload\n        /* \"#utility.yul\":1881:1903   */\n      swap1\n      pop\n        /* \"#utility.yul\":1811:1910   */\n      swap2\n      swap1\n      pop\n      jump\t// out\n        /* \"#utility.yul\":1916:2085   */\n    tag_146:\n        /* \"#utility.yul\":2000:2011   */\n      0x00\n        /* \"#utility.yul\":2034:2040   */\n      dup3\n        /* \"#utility.yul\":2029:2032   */\n      dup3\n        /* \"#utility.yul\":2022:2041   */\n      mstore\n        /* \"#utility.yul\":2074:2078   */\n      0x20\n        /* \"#utility.yul\":2069:2072   */\n      dup3\n        /* \"#utility.yul\":2065:2079   */\n      add\n        /* \"#utility.yul\":2050:2079   */\n      swap1\n      pop\n        /* \"#utility.yul\":1916:2085   */\n      swap3\n      swap2\n      pop\n      pop\n      jump\t// out\n        /* \"#utility.yul\":2091:2337   */\n    tag_147:\n        /* \"#utility.yul\":2172:2173   */\n      0x00\n        /* \"#utility.yul\":2182:2295   */\n    tag_205:\n        /* \"#utility.yul\":2196:2202   */\n      dup4\n        /* \"#utility.yul\":2193:2194   */\n      dup2\n        /* \"#utility.yul\":2190:2203   */\n      lt\n        /* \"#utility.yul\":2182:2295   */\n      iszero\n      tag_207\n      jumpi\n        /* \"#utility.yul\":2281:2282   */\n      dup1\n        /* \"#utility.yul\":2276:2279   */\n      dup3\n        /* \"#utility.yul\":2272:2283   */\n      add\n        /* \"#utility.yul\":2266:2284   */\n      mload\n        /* \"#utility.yul\":2262:2263   */\n      dup2\n        /* \"#utility.yul\":2257:2260   */\n      dup5\n        /* \"#utility.yul\":2253:2264   */\n      add\n        /* \"#utility.yul\":2246:2285   */\n      mstore\n        /* \"#utility.yul\":2218:2220   */\n      0x20\n        /* \"#utility.yul\":2215:2216   */\n      dup2\n        /* \"#utility.yul\":2211:2221   */\n      add\n        /* \"#utility.yul\":2206:2221   */\n      swap1\n      pop\n        /* \"#utility.yul\":2182:2295   */\n      jump(tag_205)\n    tag_207:\n        /* \"#utility.yul\":2329:2330   */\n      0x00\n        /* \"#utility.yul\":2320:2326   */\n      dup5\n        /* \"#utility.yul\":2315:2318   */\n      dup5\n        /* \"#utility.yul\":2311:2327   */\n      add\n        /* \"#utility.yul\":2304:2331   */\n      mstore\n        /* \"#utility.yul\":2153:2337   */\n      pop\n        /* \"#utility.yul\":2091:2337   */\n      pop\n      pop\n      pop\n      jump\t// out\n        /* \"#utility.yul\":2343:2445   */\n    tag_148:\n        /* \"#utility.yul\":2384:2390   */\n      0x00\n        /* \"#utility.yul\":2435:2437   */\n      0x1f\n        /* \"#utility.yul\":2431:2438   */\n      not\n        /* \"#utility.yul\":2426:2428   */\n      0x1f\n        /* \"#utility.yul\":2419:2424   */\n      dup4\n        /* \"#utility.yul\":2415:2429   */\n      add\n        /* \"#utility.yul\":2411:2439   */\n      and\n        /* \"#utility.yul\":2401:2439   */\n      swap1\n      pop\n        /* \"#utility.yul\":2343:2445   */\n      swap2\n      swap1\n      pop\n      jump\t// out\n        /* \"#utility.yul\":2451:2828   */\n    tag_149:\n        /* \"#utility.yul\":2539:2542   */\n      0x00\n        /* \"#utility.yul\":2567:2606   */\n      tag_210\n        /* \"#utility.yul\":2600:2605   */\n      dup3\n        /* \"#utility.yul\":2567:2606   */\n      tag_145\n      jump\t// in\n    tag_210:\n        /* \"#utility.yul\":2622:2693   */\n      tag_211\n        /* \"#utility.yul\":2686:2692   */\n      dup2\n        /* \"#utility.yul\":2681:2684   */\n      dup6\n        /* \"#utility.yul\":2622:2693   */\n      tag_146\n      jump\t// in\n    tag_211:\n        /* \"#utility.yul\":2615:2693   */\n      swap4\n      pop\n        /* \"#utility.yul\":2702:2767   */\n      tag_212\n        /* \"#utility.yul\":2760:2766   */\n      dup2\n        /* \"#utility.yul\":2755:2758   */\n      dup6\n        /* \"#utility.yul\":2748:2752   */\n      0x20\n        /* \"#utility.yul\":2741:2746   */\n      dup7\n        /* \"#utility.yul\":2737:2753   */\n      add\n        /* \"#utility.yul\":2702:2767   */\n      tag_147\n      jump\t// in\n    tag_212:\n        /* \"#utility.yul\":2792:2821   */\n      tag_213\n        /* \"#utility.yul\":2814:2820   */\n      dup2\n        /* \"#utility.yul\":2792:2821   */\n      tag_148\n      jump\t// in\n    tag_213:\n        /* \"#utility.yul\":2787:2790   */\n      dup5\n        /* \"#utility.yul\":2783:2822   */\n      add\n        /* \"#utility.yul\":2776:2822   */\n      swap2\n      pop\n        /* \"#utility.yul\":2543:2828   */\n      pop\n        /* \"#utility.yul\":2451:2828   */\n      swap3\n      swap2\n      pop\n      pop\n      jump\t// out\n        /* \"#utility.yul\":2834:3147   */\n    tag_10:\n        /* \"#utility.yul\":2947:2951   */\n      0x00\n        /* \"#utility.yul\":2985:2987   */\n      0x20\n        /* \"#utility.yul\":2974:2983   */\n      dup3\n        /* \"#utility.yul\":2970:2988   */\n      add\n        /* \"#utility.yul\":2962:2988   */\n      swap1\n      pop\n        /* \"#utility.yul\":3034:3043   */\n      dup2\n        /* \"#utility.yul\":3028:3032   */\n      dup2\n        /* \"#utility.yul\":3024:3044   */\n      sub\n        /* \"#utility.yul\":3020:3021   */\n      0x00\n        /* \"#utility.yul\":3009:3018   */\n      dup4\n        /* \"#utility.yul\":3005:3022   */\n      add\n        /* \"#utility.yul\":2998:3045   */\n      mstore\n        /* \"#utility.yul\":3062:3140   */\n      tag_215\n        /* \"#utility.yul\":3135:3139   */\n      dup2\n        /* \"#utility.yul\":3126:3132   */\n      dup5\n        /* \"#utility.yul\":3062:3140   */\n      tag_149\n      jump\t// in\n    tag_215:\n        /* \"#utility.yul\":3054:3140   */\n      swap1\n      pop\n        /* \"#utility.yul\":2834:3147   */\n      swap3\n      swap2\n      pop\n      pop\n      jump\t// out\n        /* \"#utility.yul\":3153:3279   */\n    tag_150:\n        /* \"#utility.yul\":3190:3197   */\n      0x00\n        /* \"#utility.yul\":3230:3272   */\n      0xffffffffffffffffffffffffffffffffffffffff\n        /* \"#utility.yul\":3223:3228   */\n      dup3\n        /* \"#utility.yul\":3219:3273   */\n      and\n        /* \"#utility.yul\":3208:3273   */\n      swap1\n      pop\n        /* \"#utility.yul\":3153:3279   */\n      swap2\n      swap1\n      pop\n      jump\t// out\n        /* \"#utility.yul\":3285:3345   */\n    tag_151:\n        /* \"#utility.yul\":3313:3316   */\n      0x00\n        /* \"#utility.yul\":3334:3339   */\n      dup2\n        /* \"#utility.yul\":3327:3339   */\n      swap1\n      pop\n        /* \"#utility.yul\":3285:3345   */\n      swap2\n      swap1\n      pop\n      jump\t// out\n        /* \"#utility.yul\":3351:3493   */\n    tag_152:\n        /* \"#utility.yul\":3401:3410   */\n      0x00\n        /* \"#utility.yul\":3434:3487   */\n      tag_219\n        /* \"#utility.yul\":3452:3486   */\n      tag_220\n        /* \"#utility.yul\":3461:3485   */\n      tag_221\n        /* \"#utility.yul\":3479:3484   */\n      dup5\n        /* \"#utility.yul\":3461:3485   */\n      tag_150\n      jump\t// in\n    tag_221:\n        /* \"#utility.yul\":3452:3486   */\n      tag_151\n      jump\t// in\n    tag_220:\n        /* \"#utility.yul\":3434:3487   */\n      tag_150\n      jump\t// in\n    tag_219:\n        /* \"#utility.yul\":3421:3487   */\n      swap1\n      pop\n        /* \"#utility.yul\":3351:3493   */\n      swap2\n      swap1\n      pop\n      jump\t// out\n        /* \"#utility.yul\":3499:3625   */\n    tag_153:\n        /* \"#utility.yul\":3549:3558   */\n      0x00\n        /* \"#utility.yul\":3582:3619   */\n      tag_223\n        /* \"#utility.yul\":3613:3618   */\n      dup3\n        /* \"#utility.yul\":3582:3619   */\n      tag_152\n      jump\t// in\n    tag_223:\n        /* \"#utility.yul\":3569:3619   */\n      swap1\n      pop\n        /* \"#utility.yul\":3499:3625   */\n      swap2\n      swap1\n      pop\n      jump\t// out\n        /* \"#utility.yul\":3631:3775   */\n    tag_154:\n        /* \"#utility.yul\":3699:3708   */\n      0x00\n        /* \"#utility.yul\":3732:3769   */\n      tag_225\n        /* \"#utility.yul\":3763:3768   */\n      dup3\n        /* \"#utility.yul\":3732:3769   */\n      tag_153\n      jump\t// in\n    tag_225:\n        /* \"#utility.yul\":3719:3769   */\n      swap1\n      pop\n        /* \"#utility.yul\":3631:3775   */\n      swap2\n      swap1\n      pop\n      jump\t// out\n        /* \"#utility.yul\":3781:3948   */\n    tag_155:\n        /* \"#utility.yul\":3886:3941   */\n      tag_227\n        /* \"#utility.yul\":3935:3940   */\n      dup2\n        /* \"#utility.yul\":3886:3941   */\n      tag_154\n      jump\t// in\n    tag_227:\n        /* \"#utility.yul\":3881:3884   */\n      dup3\n        /* \"#utility.yul\":3874:3942   */\n      mstore\n        /* \"#utility.yul\":3781:3948   */\n      pop\n      pop\n      jump\t// out\n        /* \"#utility.yul\":3954:4212   */\n    tag_14:\n        /* \"#utility.yul\":4065:4069   */\n      0x00\n        /* \"#utility.yul\":4103:4105   */\n      0x20\n        /* \"#utility.yul\":4092:4101   */\n      dup3\n        /* \"#utility.yul\":4088:4106   */\n      add\n        /* \"#utility.yul\":4080:4106   */\n      swap1\n      pop\n        /* \"#utility.yul\":4116:4205   */\n      tag_229\n        /* \"#utility.yul\":4202:4203   */\n      0x00\n        /* \"#utility.yul\":4191:4200   */\n      dup4\n        /* \"#utility.yul\":4187:4204   */\n      add\n        /* \"#utility.yul\":4178:4184   */\n      dup5\n        /* \"#utility.yul\":4116:4205   */\n      tag_155\n      jump\t// in\n    tag_229:\n        /* \"#utility.yul\":3954:4212   */\n      swap3\n      swap2\n      pop\n      pop\n      jump\t// out\n        /* \"#utility.yul\":4218:4335   */\n    tag_156:\n        /* \"#utility.yul\":4327:4328   */\n      0x00\n        /* \"#utility.yul\":4324:4325   */\n      dup1\n        /* \"#utility.yul\":4317:4329   */\n      revert\n        /* \"#utility.yul\":4341:4521   */\n    tag_157:\n        /* \"#utility.yul\":4389:4466   */\n      0x4e487b7100000000000000000000000000000000000000000000000000000000\n        /* \"#utility.yul\":4386:4387   */\n      0x00\n        /* \"#utility.yul\":4379:4467   */\n      mstore\n        /* \"#utility.yul\":4486:4490   */\n      0x41\n        /* \"#utility.yul\":4483:4484   */\n      0x04\n        /* \"#utility.yul\":4476:4491   */\n      mstore\n        /* \"#utility.yul\":4510:4514   */\n      0x24\n        /* \"#utility.yul\":4507:4508   */\n      0x00\n        /* \"#utility.yul\":4500:4515   */\n      revert\n        /* \"#utility.yul\":4527:4808   */\n    tag_158:\n        /* \"#utility.yul\":4610:4637   */\n      tag_233\n        /* \"#utility.yul\":4632:4636   */\n      dup3\n        /* \"#utility.yul\":4610:4637   */\n      tag_148\n      jump\t// in\n    tag_233:\n        /* \"#utility.yul\":4602:4608   */\n      dup2\n        /* \"#utility.yul\":4598:4638   */\n      add\n        /* \"#utility.yul\":4740:4746   */\n      dup2\n        /* \"#utility.yul\":4728:4738   */\n      dup2\n        /* \"#utility.yul\":4725:4747   */\n      lt\n        /* \"#utility.yul\":4704:4722   */\n      0xffffffffffffffff\n        /* \"#utility.yul\":4692:4702   */\n      dup3\n        /* \"#utility.yul\":4689:4723   */\n      gt\n        /* \"#utility.yul\":4686:4748   */\n      or\n        /* \"#utility.yul\":4683:4771   */\n      iszero\n      tag_234\n      jumpi\n        /* \"#utility.yul\":4751:4769   */\n      tag_235\n      tag_157\n      jump\t// in\n    tag_235:\n        /* \"#utility.yul\":4683:4771   */\n    tag_234:\n        /* \"#utility.yul\":4791:4801   */\n      dup1\n        /* \"#utility.yul\":4787:4789   */\n      0x40\n        /* \"#utility.yul\":4780:4802   */\n      mstore\n        /* \"#utility.yul\":4570:4808   */\n      pop\n        /* \"#utility.yul\":4527:4808   */\n      pop\n      pop\n      jump\t// out\n        /* \"#utility.yul\":4814:4943   */\n    tag_159:\n        /* \"#utility.yul\":4848:4854   */\n      0x00\n        /* \"#utility.yul\":4875:4895   */\n      tag_237\n      tag_138\n      jump\t// in\n    tag_237:\n        /* \"#utility.yul\":4865:4895   */\n      swap1\n      pop\n        /* \"#utility.yul\":4904:4937   */\n      tag_238\n        /* \"#utility.yul\":4932:4936   */\n      dup3\n        /* \"#utility.yul\":4924:4930   */\n      dup3\n        /* \"#utility.yul\":4904:4937   */\n      tag_158\n      jump\t// in\n    tag_238:\n        /* \"#utility.yul\":4814:4943   */\n      swap2\n      swap1\n      pop\n      jump\t// out\n        /* \"#utility.yul\":4949:5257   */\n    tag_160:\n        /* \"#utility.yul\":5011:5015   */\n      0x00\n        /* \"#utility.yul\":5101:5119   */\n      0xffffffffffffffff\n        /* \"#utility.yul\":5093:5099   */\n      dup3\n        /* \"#utility.yul\":5090:5120   */\n      gt\n        /* \"#utility.yul\":5087:5143   */\n      iszero\n      tag_240\n      jumpi\n        /* \"#utility.yul\":5123:5141   */\n      tag_241\n      tag_157\n      jump\t// in\n    tag_241:\n        /* \"#utility.yul\":5087:5143   */\n    tag_240:\n        /* \"#utility.yul\":5161:5190   */\n      tag_242\n        /* \"#utility.yul\":5183:5189   */\n      dup3\n        /* \"#utility.yul\":5161:5190   */\n      tag_148\n      jump\t// in\n    tag_242:\n        /* \"#utility.yul\":5153:5190   */\n      swap1\n      pop\n        /* \"#utility.yul\":5245:5249   */\n      0x20\n        /* \"#utility.yul\":5239:5243   */\n      dup2\n        /* \"#utility.yul\":5235:5250   */\n      add\n        /* \"#utility.yul\":5227:5250   */\n      swap1\n      pop\n        /* \"#utility.yul\":4949:5257   */\n      swap2\n      swap1\n      pop\n      jump\t// out\n        /* \"#utility.yul\":5263:5697   */\n    tag_161:\n        /* \"#utility.yul\":5352:5357   */\n      0x00\n        /* \"#utility.yul\":5377:5443   */\n      tag_244\n        /* \"#utility.yul\":5393:5442   */\n      tag_245\n        /* \"#utility.yul\":5435:5441   */\n      dup5\n        /* \"#utility.yul\":5393:5442   */\n      tag_160\n      jump\t// in\n    tag_245:\n        /* \"#utility.yul\":5377:5443   */\n      tag_159\n      jump\t// in\n    tag_244:\n        /* \"#utility.yul\":5368:5443   */\n      swap1\n      pop\n        /* \"#utility.yul\":5466:5472   */\n      dup3\n        /* \"#utility.yul\":5459:5464   */\n      dup2\n        /* \"#utility.yul\":5452:5473   */\n      mstore\n        /* \"#utility.yul\":5504:5508   */\n      0x20\n        /* \"#utility.yul\":5497:5502   */\n      dup2\n        /* \"#utility.yul\":5493:5509   */\n      add\n        /* \"#utility.yul\":5542:5545   */\n      dup5\n        /* \"#utility.yul\":5533:5539   */\n      dup5\n        /* \"#utility.yul\":5528:5531   */\n      dup5\n        /* \"#utility.yul\":5524:5540   */\n      add\n        /* \"#utility.yul\":5521:5546   */\n      gt\n        /* \"#utility.yul\":5518:5630   */\n      iszero\n      tag_246\n      jumpi\n        /* \"#utility.yul\":5549:5628   */\n      tag_247\n      tag_156\n      jump\t// in\n    tag_247:\n        /* \"#utility.yul\":5518:5630   */\n    tag_246:\n        /* \"#utility.yul\":5639:5691   */\n      tag_248\n        /* \"#utility.yul\":5684:5690   */\n      dup5\n        /* \"#utility.yul\":5679:5682   */\n      dup3\n        /* \"#utility.yul\":5674:5677   */\n      dup6\n        /* \"#utility.yul\":5639:5691   */\n      tag_147\n      jump\t// in\n    tag_248:\n        /* \"#utility.yul\":5358:5697   */\n      pop\n        /* \"#utility.yul\":5263:5697   */\n      swap4\n      swap3\n      pop\n      pop\n      pop\n      jump\t// out\n        /* \"#utility.yul\":5717:6072   */\n    tag_162:\n        /* \"#utility.yul\":5784:5789   */\n      0x00\n        /* \"#utility.yul\":5833:5836   */\n      dup3\n        /* \"#utility.yul\":5826:5830   */\n      0x1f\n        /* \"#utility.yul\":5818:5824   */\n      dup4\n        /* \"#utility.yul\":5814:5831   */\n      add\n        /* \"#utility.yul\":5810:5837   */\n      slt\n        /* \"#utility.yul\":5800:5922   */\n      tag_250\n      jumpi\n        /* \"#utility.yul\":5841:5920   */\n      tag_251\n      tag_141\n      jump\t// in\n    tag_251:\n        /* \"#utility.yul\":5800:5922   */\n    tag_250:\n        /* \"#utility.yul\":5951:5957   */\n      dup2\n        /* \"#utility.yul\":5945:5958   */\n      mload\n        /* \"#utility.yul\":5976:6066   */\n      tag_252\n        /* \"#utility.yul\":6062:6065   */\n      dup5\n        /* \"#utility.yul\":6054:6060   */\n      dup3\n        /* \"#utility.yul\":6047:6051   */\n      0x20\n        /* \"#utility.yul\":6039:6045   */\n      dup7\n        /* \"#utility.yul\":6035:6052   */\n      add\n        /* \"#utility.yul\":5976:6066   */\n      tag_161\n      jump\t// in\n    tag_252:\n        /* \"#utility.yul\":5967:6066   */\n      swap2\n      pop\n        /* \"#utility.yul\":5790:6072   */\n      pop\n        /* \"#utility.yul\":5717:6072   */\n      swap3\n      swap2\n      pop\n      pop\n      jump\t// out\n        /* \"#utility.yul\":6078:6602   */\n    tag_19:\n        /* \"#utility.yul\":6158:6164   */\n      0x00\n        /* \"#utility.yul\":6207:6209   */\n      0x20\n        /* \"#utility.yul\":6195:6204   */\n      dup3\n        /* \"#utility.yul\":6186:6193   */\n      dup5\n        /* \"#utility.yul\":6182:6205   */\n      sub\n        /* \"#utility.yul\":6178:6210   */\n      slt\n        /* \"#utility.yul\":6175:6294   */\n      iszero\n      tag_254\n      jumpi\n        /* \"#utility.yul\":6213:6292   */\n      tag_255\n      tag_139\n      jump\t// in\n    tag_255:\n        /* \"#utility.yul\":6175:6294   */\n    tag_254:\n        /* \"#utility.yul\":6354:6355   */\n      0x00\n        /* \"#utility.yul\":6343:6352   */\n      dup3\n        /* \"#utility.yul\":6339:6356   */\n      add\n        /* \"#utility.yul\":6333:6357   */\n      mload\n        /* \"#utility.yul\":6384:6402   */\n      0xffffffffffffffff\n        /* \"#utility.yul\":6376:6382   */\n      dup2\n        /* \"#utility.yul\":6373:6403   */\n      gt\n        /* \"#utility.yul\":6370:6487   */\n      iszero\n      tag_256\n      jumpi\n        /* \"#utility.yul\":6406:6485   */\n      tag_257\n      tag_140\n      jump\t// in\n    tag_257:\n        /* \"#utility.yul\":6370:6487   */\n    tag_256:\n        /* \"#utility.yul\":6511:6585   */\n      tag_258\n        /* \"#utility.yul\":6577:6584   */\n      dup5\n        /* \"#utility.yul\":6568:6574   */\n      dup3\n        /* \"#utility.yul\":6557:6566   */\n      dup6\n        /* \"#utility.yul\":6553:6575   */\n      add\n        /* \"#utility.yul\":6511:6585   */\n      tag_162\n      jump\t// in\n    tag_258:\n        /* \"#utility.yul\":6501:6585   */\n      swap2\n      pop\n        /* \"#utility.yul\":6304:6595   */\n      pop\n        /* \"#utility.yul\":6078:6602   */\n      swap3\n      swap2\n      pop\n      pop\n      jump\t// out\n        /* \"#utility.yul\":6608:6756   */\n    tag_163:\n        /* \"#utility.yul\":6710:6721   */\n      0x00\n        /* \"#utility.yul\":6747:6750   */\n      dup2\n        /* \"#utility.yul\":6732:6750   */\n      swap1\n      pop\n        /* \"#utility.yul\":6608:6756   */\n      swap3\n      swap2\n      pop\n      pop\n      jump\t// out\n        /* \"#utility.yul\":6762:6976   */\n    tag_164:\n        /* \"#utility.yul\":6902:6968   */\n      0x437261776c656420646174613a0a000000000000000000000000000000000000\n        /* \"#utility.yul\":6898:6899   */\n      0x00\n        /* \"#utility.yul\":6890:6896   */\n      dup3\n        /* \"#utility.yul\":6886:6900   */\n      add\n        /* \"#utility.yul\":6879:6969   */\n      mstore\n        /* \"#utility.yul\":6762:6976   */\n      pop\n      jump\t// out\n        /* \"#utility.yul\":6982:7384   */\n    tag_165:\n        /* \"#utility.yul\":7142:7145   */\n      0x00\n        /* \"#utility.yul\":7163:7248   */\n      tag_262\n        /* \"#utility.yul\":7245:7247   */\n      0x0e\n        /* \"#utility.yul\":7240:7243   */\n      dup4\n        /* \"#utility.yul\":7163:7248   */\n      tag_163\n      jump\t// in\n    tag_262:\n        /* \"#utility.yul\":7156:7248   */\n      swap2\n      pop\n        /* \"#utility.yul\":7257:7350   */\n      tag_263\n        /* \"#utility.yul\":7346:7349   */\n      dup3\n        /* \"#utility.yul\":7257:7350   */\n      tag_164\n      jump\t// in\n    tag_263:\n        /* \"#utility.yul\":7375:7377   */\n      0x0e\n        /* \"#utility.yul\":7370:7373   */\n      dup3\n        /* \"#utility.yul\":7366:7378   */\n      add\n        /* \"#utility.yul\":7359:7378   */\n      swap1\n      pop\n        /* \"#utility.yul\":6982:7384   */\n      swap2\n      swap1\n      pop\n      jump\t// out\n        /* \"#utility.yul\":7390:7780   */\n    tag_166:\n        /* \"#utility.yul\":7496:7499   */\n      0x00\n        /* \"#utility.yul\":7524:7563   */\n      tag_265\n        /* \"#utility.yul\":7557:7562   */\n      dup3\n        /* \"#utility.yul\":7524:7563   */\n      tag_145\n      jump\t// in\n    tag_265:\n        /* \"#utility.yul\":7579:7668   */\n      tag_266\n        /* \"#utility.yul\":7661:7667   */\n      dup2\n        /* \"#utility.yul\":7656:7659   */\n      dup6\n        /* \"#utility.yul\":7579:7668   */\n      tag_163\n      jump\t// in\n    tag_266:\n        /* \"#utility.yul\":7572:7668   */\n      swap4\n      pop\n        /* \"#utility.yul\":7677:7742   */\n      tag_267\n        /* \"#utility.yul\":7735:7741   */\n      dup2\n        /* \"#utility.yul\":7730:7733   */\n      dup6\n        /* \"#utility.yul\":7723:7727   */\n      0x20\n        /* \"#utility.yul\":7716:7721   */\n      dup7\n        /* \"#utility.yul\":7712:7728   */\n      add\n        /* \"#utility.yul\":7677:7742   */\n      tag_147\n      jump\t// in\n    tag_267:\n        /* \"#utility.yul\":7767:7773   */\n      dup1\n        /* \"#utility.yul\":7762:7765   */\n      dup5\n        /* \"#utility.yul\":7758:7774   */\n      add\n        /* \"#utility.yul\":7751:7774   */\n      swap2\n      pop\n        /* \"#utility.yul\":7500:7780   */\n      pop\n        /* \"#utility.yul\":7390:7780   */\n      swap3\n      swap2\n      pop\n      pop\n      jump\t// out\n        /* \"#utility.yul\":7786:8000   */\n    tag_167:\n        /* \"#utility.yul\":7926:7992   */\n      0x0a0a547261696e656420646174613a0a00000000000000000000000000000000\n        /* \"#utility.yul\":7922:7923   */\n      0x00\n        /* \"#utility.yul\":7914:7920   */\n      dup3\n        /* \"#utility.yul\":7910:7924   */\n      add\n        /* \"#utility.yul\":7903:7993   */\n      mstore\n        /* \"#utility.yul\":7786:8000   */\n      pop\n      jump\t// out\n        /* \"#utility.yul\":8006:8408   */\n    tag_168:\n        /* \"#utility.yul\":8166:8169   */\n      0x00\n        /* \"#utility.yul\":8187:8272   */\n      tag_270\n        /* \"#utility.yul\":8269:8271   */\n      0x10\n        /* \"#utility.yul\":8264:8267   */\n      dup4\n        /* \"#utility.yul\":8187:8272   */\n      tag_163\n      jump\t// in\n    tag_270:\n        /* \"#utility.yul\":8180:8272   */\n      swap2\n      pop\n        /* \"#utility.yul\":8281:8374   */\n      tag_271\n        /* \"#utility.yul\":8370:8373   */\n      dup3\n        /* \"#utility.yul\":8281:8374   */\n      tag_167\n      jump\t// in\n    tag_271:\n        /* \"#utility.yul\":8399:8401   */\n      0x10\n        /* \"#utility.yul\":8394:8397   */\n      dup3\n        /* \"#utility.yul\":8390:8402   */\n      add\n        /* \"#utility.yul\":8383:8402   */\n      swap1\n      pop\n        /* \"#utility.yul\":8006:8408   */\n      swap2\n      swap1\n      pop\n      jump\t// out\n        /* \"#utility.yul\":8414:9381   */\n    tag_26:\n        /* \"#utility.yul\":8796:8799   */\n      0x00\n        /* \"#utility.yul\":8818:8966   */\n      tag_273\n        /* \"#utility.yul\":8962:8965   */\n      dup3\n        /* \"#utility.yul\":8818:8966   */\n      tag_165\n      jump\t// in\n    tag_273:\n        /* \"#utility.yul\":8811:8966   */\n      swap2\n      pop\n        /* \"#utility.yul\":8983:9078   */\n      tag_274\n        /* \"#utility.yul\":9074:9077   */\n      dup3\n        /* \"#utility.yul\":9065:9071   */\n      dup6\n        /* \"#utility.yul\":8983:9078   */\n      tag_166\n      jump\t// in\n    tag_274:\n        /* \"#utility.yul\":8976:9078   */\n      swap2\n      pop\n        /* \"#utility.yul\":9095:9243   */\n      tag_275\n        /* \"#utility.yul\":9239:9242   */\n      dup3\n        /* \"#utility.yul\":9095:9243   */\n      tag_168\n      jump\t// in\n    tag_275:\n        /* \"#utility.yul\":9088:9243   */\n      swap2\n      pop\n        /* \"#utility.yul\":9260:9355   */\n      tag_276\n        /* \"#utility.yul\":9351:9354   */\n      dup3\n        /* \"#utility.yul\":9342:9348   */\n      dup5\n        /* \"#utility.yul\":9260:9355   */\n      tag_166\n      jump\t// in\n    tag_276:\n        /* \"#utility.yul\":9253:9355   */\n      swap2\n      pop\n        /* \"#utility.yul\":9372:9375   */\n      dup2\n        /* \"#utility.yul\":9365:9375   */\n      swap1\n      pop\n        /* \"#utility.yul\":8414:9381   */\n      swap4\n      swap3\n      pop\n      pop\n      pop\n      jump\t// out\n        /* \"#utility.yul\":9387:9567   */\n    tag_31:\n        /* \"#utility.yul\":9435:9512   */\n      0x4e487b7100000000000000000000000000000000000000000000000000000000\n        /* \"#utility.yul\":9432:9433   */\n      0x00\n        /* \"#utility.yul\":9425:9513   */\n      mstore\n        /* \"#utility.yul\":9532:9536   */\n      0x32\n        /* \"#utility.yul\":9529:9530   */\n      0x04\n        /* \"#utility.yul\":9522:9537   */\n      mstore\n        /* \"#utility.yul\":9556:9560   */\n      0x24\n        /* \"#utility.yul\":9553:9554   */\n      0x00\n        /* \"#utility.yul\":9546:9561   */\n      revert\n        /* \"#utility.yul\":9573:9650   */\n    tag_169:\n        /* \"#utility.yul\":9610:9617   */\n      0x00\n        /* \"#utility.yul\":9639:9644   */\n      dup2\n        /* \"#utility.yul\":9628:9644   */\n      swap1\n      pop\n        /* \"#utility.yul\":9573:9650   */\n      swap2\n      swap1\n      pop\n      jump\t// out\n        /* \"#utility.yul\":9656:9836   */\n    tag_170:\n        /* \"#utility.yul\":9704:9781   */\n      0x4e487b7100000000000000000000000000000000000000000000000000000000\n        /* \"#utility.yul\":9701:9702   */\n      0x00\n        /* \"#utility.yul\":9694:9782   */\n      mstore\n        /* \"#utility.yul\":9801:9805   */\n      0x11\n        /* \"#utility.yul\":9798:9799   */\n      0x04\n        /* \"#utility.yul\":9791:9806   */\n      mstore\n        /* \"#utility.yul\":9825:9829   */\n      0x24\n        /* \"#utility.yul\":9822:9823   */\n      0x00\n        /* \"#utility.yul\":9815:9830   */\n      revert\n        /* \"#utility.yul\":9842:10036   */\n    tag_36:\n        /* \"#utility.yul\":9882:9886   */\n      0x00\n        /* \"#utility.yul\":9902:9922   */\n      tag_281\n        /* \"#utility.yul\":9920:9921   */\n      dup3\n        /* \"#utility.yul\":9902:9922   */\n      tag_169\n      jump\t// in\n    tag_281:\n        /* \"#utility.yul\":9897:9922   */\n      swap2\n      pop\n        /* \"#utility.yul\":9936:9956   */\n      tag_282\n        /* \"#utility.yul\":9954:9955   */\n      dup4\n        /* \"#utility.yul\":9936:9956   */\n      tag_169\n      jump\t// in\n    tag_282:\n        /* \"#utility.yul\":9931:9956   */\n      swap3\n      pop\n        /* \"#utility.yul\":9980:9981   */\n      dup3\n        /* \"#utility.yul\":9977:9978   */\n      dup3\n        /* \"#utility.yul\":9973:9982   */\n      sub\n        /* \"#utility.yul\":9965:9982   */\n      swap1\n      pop\n        /* \"#utility.yul\":10004:10005   */\n      dup2\n        /* \"#utility.yul\":9998:10002   */\n      dup2\n        /* \"#utility.yul\":9995:10006   */\n      gt\n        /* \"#utility.yul\":9992:10029   */\n      iszero\n      tag_283\n      jumpi\n        /* \"#utility.yul\":10009:10027   */\n      tag_284\n      tag_170\n      jump\t// in\n    tag_284:\n        /* \"#utility.yul\":9992:10029   */\n    tag_283:\n        /* \"#utility.yul\":9842:10036   */\n      swap3\n      swap2\n      pop\n      pop\n      jump\t// out\n        /* \"#utility.yul\":10042:10233   */\n    tag_40:\n        /* \"#utility.yul\":10082:10085   */\n      0x00\n        /* \"#utility.yul\":10101:10121   */\n      tag_286\n        /* \"#utility.yul\":10119:10120   */\n      dup3\n        /* \"#utility.yul\":10101:10121   */\n      tag_169\n      jump\t// in\n    tag_286:\n        /* \"#utility.yul\":10096:10121   */\n      swap2\n      pop\n        /* \"#utility.yul\":10135:10155   */\n      tag_287\n        /* \"#utility.yul\":10153:10154   */\n      dup4\n        /* \"#utility.yul\":10135:10155   */\n      tag_169\n      jump\t// in\n    tag_287:\n        /* \"#utility.yul\":10130:10155   */\n      swap3\n      pop\n        /* \"#utility.yul\":10178:10179   */\n      dup3\n        /* \"#utility.yul\":10175:10176   */\n      dup3\n        /* \"#utility.yul\":10171:10180   */\n      add\n        /* \"#utility.yul\":10164:10180   */\n      swap1\n      pop\n        /* \"#utility.yul\":10199:10202   */\n      dup1\n        /* \"#utility.yul\":10196:10197   */\n      dup3\n        /* \"#utility.yul\":10193:10203   */\n      gt\n        /* \"#utility.yul\":10190:10226   */\n      iszero\n      tag_288\n      jumpi\n        /* \"#utility.yul\":10206:10224   */\n      tag_289\n      tag_170\n      jump\t// in\n    tag_289:\n        /* \"#utility.yul\":10190:10226   */\n    tag_288:\n        /* \"#utility.yul\":10042:10233   */\n      swap3\n      swap2\n      pop\n      pop\n      jump\t// out\n        /* \"#utility.yul\":10239:10453   */\n    tag_171:\n        /* \"#utility.yul\":10379:10445   */\n      0x0a0a526573756c747320666f7220270000000000000000000000000000000000\n        /* \"#utility.yul\":10375:10376   */\n      0x00\n        /* \"#utility.yul\":10367:10373   */\n      dup3\n        /* \"#utility.yul\":10363:10377   */\n      add\n        /* \"#utility.yul\":10356:10446   */\n      mstore\n        /* \"#utility.yul\":10239:10453   */\n      pop\n      jump\t// out\n        /* \"#utility.yul\":10459:10861   */\n    tag_172:\n        /* \"#utility.yul\":10619:10622   */\n      0x00\n        /* \"#utility.yul\":10640:10725   */\n      tag_292\n        /* \"#utility.yul\":10722:10724   */\n      0x0f\n        /* \"#utility.yul\":10717:10720   */\n      dup4\n        /* \"#utility.yul\":10640:10725   */\n      tag_163\n      jump\t// in\n    tag_292:\n        /* \"#utility.yul\":10633:10725   */\n      swap2\n      pop\n        /* \"#utility.yul\":10734:10827   */\n      tag_293\n        /* \"#utility.yul\":10823:10826   */\n      dup3\n        /* \"#utility.yul\":10734:10827   */\n      tag_171\n      jump\t// in\n    tag_293:\n        /* \"#utility.yul\":10852:10854   */\n      0x0f\n        /* \"#utility.yul\":10847:10850   */\n      dup3\n        /* \"#utility.yul\":10843:10855   */\n      add\n        /* \"#utility.yul\":10836:10855   */\n      swap1\n      pop\n        /* \"#utility.yul\":10459:10861   */\n      swap2\n      swap1\n      pop\n      jump\t// out\n        /* \"#utility.yul\":10867:11013   */\n    tag_173:\n        /* \"#utility.yul\":10964:10970   */\n      dup3\n        /* \"#utility.yul\":10959:10962   */\n      dup2\n        /* \"#utility.yul\":10954:10957   */\n      dup4\n        /* \"#utility.yul\":10941:10971   */\n      calldatacopy\n        /* \"#utility.yul\":11005:11006   */\n      0x00\n        /* \"#utility.yul\":10996:11002   */\n      dup4\n        /* \"#utility.yul\":10991:10994   */\n      dup4\n        /* \"#utility.yul\":10987:11003   */\n      add\n        /* \"#utility.yul\":10980:11007   */\n      mstore\n        /* \"#utility.yul\":10867:11013   */\n      pop\n      pop\n      pop\n      jump\t// out\n        /* \"#utility.yul\":11043:11373   */\n    tag_174:\n        /* \"#utility.yul\":11159:11162   */\n      0x00\n        /* \"#utility.yul\":11180:11269   */\n      tag_296\n        /* \"#utility.yul\":11262:11268   */\n      dup4\n        /* \"#utility.yul\":11257:11260   */\n      dup6\n        /* \"#utility.yul\":11180:11269   */\n      tag_163\n      jump\t// in\n    tag_296:\n        /* \"#utility.yul\":11173:11269   */\n      swap4\n      pop\n        /* \"#utility.yul\":11279:11335   */\n      tag_297\n        /* \"#utility.yul\":11328:11334   */\n      dup4\n        /* \"#utility.yul\":11323:11326   */\n      dup6\n        /* \"#utility.yul\":11316:11321   */\n      dup5\n        /* \"#utility.yul\":11279:11335   */\n      tag_173\n      jump\t// in\n    tag_297:\n        /* \"#utility.yul\":11360:11366   */\n      dup3\n        /* \"#utility.yul\":11355:11358   */\n      dup5\n        /* \"#utility.yul\":11351:11367   */\n      add\n        /* \"#utility.yul\":11344:11367   */\n      swap1\n      pop\n        /* \"#utility.yul\":11043:11373   */\n      swap4\n      swap3\n      pop\n      pop\n      pop\n      jump\t// out\n        /* \"#utility.yul\":11379:11593   */\n    tag_175:\n        /* \"#utility.yul\":11519:11585   */\n      0x273a0a0000000000000000000000000000000000000000000000000000000000\n        /* \"#utility.yul\":11515:11516   */\n      0x00\n        /* \"#utility.yul\":11507:11513   */\n      dup3\n        /* \"#utility.yul\":11503:11517   */\n      add\n        /* \"#utility.yul\":11496:11586   */\n      mstore\n        /* \"#utility.yul\":11379:11593   */\n      pop\n      jump\t// out\n        /* \"#utility.yul\":11599:11999   */\n    tag_176:\n        /* \"#utility.yul\":11759:11762   */\n      0x00\n        /* \"#utility.yul\":11780:11864   */\n      tag_300\n        /* \"#utility.yul\":11862:11863   */\n      0x03\n        /* \"#utility.yul\":11857:11860   */\n      dup4\n        /* \"#utility.yul\":11780:11864   */\n      tag_163\n      jump\t// in\n    tag_300:\n        /* \"#utility.yul\":11773:11864   */\n      swap2\n      pop\n        /* \"#utility.yul\":11873:11966   */\n      tag_301\n        /* \"#utility.yul\":11962:11965   */\n      dup3\n        /* \"#utility.yul\":11873:11966   */\n      tag_175\n      jump\t// in\n    tag_301:\n        /* \"#utility.yul\":11991:11992   */\n      0x03\n        /* \"#utility.yul\":11986:11989   */\n      dup3\n        /* \"#utility.yul\":11982:11993   */\n      add\n        /* \"#utility.yul\":11975:11993   */\n      swap1\n      pop\n        /* \"#utility.yul\":11599:11999   */\n      swap2\n      swap1\n      pop\n      jump\t// out\n        /* \"#utility.yul\":12005:12992   */\n    tag_58:\n        /* \"#utility.yul\":12397:12400   */\n      0x00\n        /* \"#utility.yul\":12419:12514   */\n      tag_303\n        /* \"#utility.yul\":12510:12513   */\n      dup3\n        /* \"#utility.yul\":12501:12507   */\n      dup7\n        /* \"#utility.yul\":12419:12514   */\n      tag_166\n      jump\t// in\n    tag_303:\n        /* \"#utility.yul\":12412:12514   */\n      swap2\n      pop\n        /* \"#utility.yul\":12531:12679   */\n      tag_304\n        /* \"#utility.yul\":12675:12678   */\n      dup3\n        /* \"#utility.yul\":12531:12679   */\n      tag_172\n      jump\t// in\n    tag_304:\n        /* \"#utility.yul\":12524:12679   */\n      swap2\n      pop\n        /* \"#utility.yul\":12696:12801   */\n      tag_305\n        /* \"#utility.yul\":12797:12800   */\n      dup3\n        /* \"#utility.yul\":12788:12794   */\n      dup5\n        /* \"#utility.yul\":12780:12786   */\n      dup7\n        /* \"#utility.yul\":12696:12801   */\n      tag_174\n      jump\t// in\n    tag_305:\n        /* \"#utility.yul\":12689:12801   */\n      swap2\n      pop\n        /* \"#utility.yul\":12818:12966   */\n      tag_306\n        /* \"#utility.yul\":12962:12965   */\n      dup3\n        /* \"#utility.yul\":12818:12966   */\n      tag_176\n      jump\t// in\n    tag_306:\n        /* \"#utility.yul\":12811:12966   */\n      swap2\n      pop\n        /* \"#utility.yul\":12983:12986   */\n      dup2\n        /* \"#utility.yul\":12976:12986   */\n      swap1\n      pop\n        /* \"#utility.yul\":12005:12992   */\n      swap5\n      swap4\n      pop\n      pop\n      pop\n      pop\n      jump\t// out\n        /* \"#utility.yul\":12998:13169   */\n    tag_63:\n        /* \"#utility.yul\":13037:13040   */\n      0x00\n        /* \"#utility.yul\":13060:13084   */\n      tag_308\n        /* \"#utility.yul\":13078:13083   */\n      dup3\n        /* \"#utility.yul\":13060:13084   */\n      tag_169\n      jump\t// in\n    tag_308:\n        /* \"#utility.yul\":13051:13084   */\n      swap2\n      pop\n        /* \"#utility.yul\":13106:13110   */\n      0x00\n        /* \"#utility.yul\":13099:13104   */\n      dup3\n        /* \"#utility.yul\":13096:13111   */\n      sub\n        /* \"#utility.yul\":13093:13134   */\n      tag_309\n      jumpi\n        /* \"#utility.yul\":13114:13132   */\n      tag_310\n      tag_170\n      jump\t// in\n    tag_310:\n        /* \"#utility.yul\":13093:13134   */\n    tag_309:\n        /* \"#utility.yul\":13161:13162   */\n      0x01\n        /* \"#utility.yul\":13154:13159   */\n      dup3\n        /* \"#utility.yul\":13150:13163   */\n      sub\n        /* \"#utility.yul\":13143:13163   */\n      swap1\n      pop\n        /* \"#utility.yul\":12998:13169   */\n      swap2\n      swap1\n      pop\n      jump\t// out\n        /* \"#utility.yul\":13175:13408   */\n    tag_93:\n        /* \"#utility.yul\":13214:13217   */\n      0x00\n        /* \"#utility.yul\":13237:13261   */\n      tag_312\n        /* \"#utility.yul\":13255:13260   */\n      dup3\n        /* \"#utility.yul\":13237:13261   */\n      tag_169\n      jump\t// in\n    tag_312:\n        /* \"#utility.yul\":13228:13261   */\n      swap2\n      pop\n        /* \"#utility.yul\":13283:13349   */\n      0xffffffffffffffffffffffffffffffffffffffffffffffffffffffffffffffff\n        /* \"#utility.yul\":13276:13281   */\n      dup3\n        /* \"#utility.yul\":13273:13350   */\n      sub\n        /* \"#utility.yul\":13270:13373   */\n      tag_313\n      jumpi\n        /* \"#utility.yul\":13353:13371   */\n      tag_314\n      tag_170\n      jump\t// in\n    tag_314:\n        /* \"#utility.yul\":13270:13373   */\n    tag_313:\n        /* \"#utility.yul\":13400:13401   */\n      0x01\n        /* \"#utility.yul\":13393:13398   */\n      dup3\n        /* \"#utility.yul\":13389:13402   */\n      add\n        /* \"#utility.yul\":13382:13402   */\n      swap1\n      pop\n        /* \"#utility.yul\":13175:13408   */\n      swap2\n      swap1\n      pop\n      jump\t// out\n        /* \"#utility.yul\":13414:13628   */\n    tag_177:\n        /* \"#utility.yul\":13554:13620   */\n      0x0a2d200000000000000000000000000000000000000000000000000000000000\n        /* \"#utility.yul\":13550:13551   */\n      0x00\n        /* \"#utility.yul\":13542:13548   */\n      dup3\n        /* \"#utility.yul\":13538:13552   */\n      add\n        /* \"#utility.yul\":13531:13621   */\n      mstore\n        /* \"#utility.yul\":13414:13628   */\n      pop\n      jump\t// out\n        /* \"#utility.yul\":13634:14034   */\n    tag_178:\n        /* \"#utility.yul\":13794:13797   */\n      0x00\n        /* \"#utility.yul\":13815:13899   */\n      tag_317\n        /* \"#utility.yul\":13897:13898   */\n      0x03\n        /* \"#utility.yul\":13892:13895   */\n      dup4\n        /* \"#utility.yul\":13815:13899   */\n      tag_163\n      jump\t// in\n    tag_317:\n        /* \"#utility.yul\":13808:13899   */\n      swap2\n      pop\n        /* \"#utility.yul\":13908:14001   */\n      tag_318\n        /* \"#utility.yul\":13997:14000   */\n      dup3\n        /* \"#utility.yul\":13908:14001   */\n      tag_177\n      jump\t// in\n    tag_318:\n        /* \"#utility.yul\":14026:14027   */\n      0x03\n        /* \"#utility.yul\":14021:14024   */\n      dup3\n        /* \"#utility.yul\":14017:14028   */\n      add\n        /* \"#utility.yul\":14010:14028   */\n      swap1\n      pop\n        /* \"#utility.yul\":13634:14034   */\n      swap2\n      swap1\n      pop\n      jump\t// out\n        /* \"#utility.yul\":14040:14117   */\n    tag_179:\n        /* \"#utility.yul\":14077:14084   */\n      0x00\n        /* \"#utility.yul\":14106:14111   */\n      dup2\n        /* \"#utility.yul\":14095:14111   */\n      swap1\n      pop\n        /* \"#utility.yul\":14040:14117   */\n      swap2\n      swap1\n      pop\n      jump\t// out\n        /* \"#utility.yul\":14123:14202   */\n    tag_180:\n        /* \"#utility.yul\":14162:14169   */\n      0x00\n        /* \"#utility.yul\":14191:14196   */\n      dup2\n        /* \"#utility.yul\":14180:14196   */\n      swap1\n      pop\n        /* \"#utility.yul\":14123:14202   */\n      swap2\n      swap1\n      pop\n      jump\t// out\n        /* \"#utility.yul\":14208:14365   */\n    tag_181:\n        /* \"#utility.yul\":14313:14358   */\n      tag_322\n        /* \"#utility.yul\":14333:14357   */\n      tag_323\n        /* \"#utility.yul\":14351:14356   */\n      dup3\n        /* \"#utility.yul\":14333:14357   */\n      tag_179\n      jump\t// in\n    tag_323:\n        /* \"#utility.yul\":14313:14358   */\n      tag_180\n      jump\t// in\n    tag_322:\n        /* \"#utility.yul\":14308:14311   */\n      dup3\n        /* \"#utility.yul\":14301:14359   */\n      mstore\n        /* \"#utility.yul\":14208:14365   */\n      pop\n      pop\n      jump\t// out\n        /* \"#utility.yul\":14371:15053   */\n    tag_98:\n        /* \"#utility.yul\":14632:14635   */\n      0x00\n        /* \"#utility.yul\":14654:14749   */\n      tag_325\n        /* \"#utility.yul\":14745:14748   */\n      dup3\n        /* \"#utility.yul\":14736:14742   */\n      dup6\n        /* \"#utility.yul\":14654:14749   */\n      tag_166\n      jump\t// in\n    tag_325:\n        /* \"#utility.yul\":14647:14749   */\n      swap2\n      pop\n        /* \"#utility.yul\":14766:14914   */\n      tag_326\n        /* \"#utility.yul\":14910:14913   */\n      dup3\n        /* \"#utility.yul\":14766:14914   */\n      tag_178\n      jump\t// in\n    tag_326:\n        /* \"#utility.yul\":14759:14914   */\n      swap2\n      pop\n        /* \"#utility.yul\":14924:14999   */\n      tag_327\n        /* \"#utility.yul\":14995:14998   */\n      dup3\n        /* \"#utility.yul\":14986:14992   */\n      dup5\n        /* \"#utility.yul\":14924:14999   */\n      tag_181\n      jump\t// in\n    tag_327:\n        /* \"#utility.yul\":15024:15026   */\n      0x20\n        /* \"#utility.yul\":15019:15022   */\n      dup3\n        /* \"#utility.yul\":15015:15027   */\n      add\n        /* \"#utility.yul\":15008:15027   */\n      swap2\n      pop\n        /* \"#utility.yul\":15044:15047   */\n      dup2\n        /* \"#utility.yul\":15037:15047   */\n      swap1\n      pop\n        /* \"#utility.yul\":14371:15053   */\n      swap4\n      swap3\n      pop\n      pop\n      pop\n      jump\t// out\n\n    auxdata: 0xa26469706673582212208c329a5704a44bb1005443e6202668991f8c7ff0d7e256e3ca587f7c5a8eb6d264736f6c63430008110033\n}\n",
				"bytecode": {
					"linkReferences": {},
					"object": "60806040523480156200001157600080fd5b50604051620013f2380380620013f28339818101604052810190620000379190620000e8565b806000806101000a81548173ffffffffffffffffffffffffffffffffffffffff021916908373ffffffffffffffffffffffffffffffffffffffff160217905550506200011a565b600080fd5b600073ffffffffffffffffffffffffffffffffffffffff82169050919050565b6000620000b08262000083565b9050919050565b620000c281620000a3565b8114620000ce57600080fd5b50565b600081519050620000e281620000b7565b92915050565b6000602082840312156200010157620001006200007e565b5b60006200011184828501620000d1565b91505092915050565b6112c8806200012a6000396000f3fe608060405234801561001057600080fd5b50600436106100365760003560e01c8063820ed0861461003b578063fc86d9231461006b575b600080fd5b61005560048036038101906100509190610b8e565b610089565b6040516100629190610c6b565b60405180910390f35b610073610af1565b6040516100809190610d0c565b60405180910390f35b606060008060009054906101000a900473ffffffffffffffffffffffffffffffffffffffff1673ffffffffffffffffffffffffffffffffffffffff1663c2990d166040518163ffffffff1660e01b8152600401600060405180830381865afa1580156100f9573d6000803e3d6000fd5b505050506040513d6000823e3d601f19601f820116820180604052508101906101229190610e48565b905060008060009054906101000a900473ffffffffffffffffffffffffffffffffffffffff1673ffffffffffffffffffffffffffffffffffffffff1663e78be9026040518163ffffffff1660e01b8152600401600060405180830381865afa158015610192573d6000803e3d6000fd5b505050506040513d6000823e3d601f19601f820116820180604052508101906101bb9190610e48565b90506000604051806020016040528060008152509050600083511180156101e3575060008251115b15610ae55782826040516020016101fb929190610f65565b60405160208183030381529060405290506000868690501115610ae4576000868690508451101580156102ac57508686600081811061023d5761023c610f9f565b5b9050013560f81c60f81b7effffffffffffffffffffffffffffffffffffffffffffffffffffffffffffff19168460208151811061027d5761027c610f9f565b5b602001015160f81c60f81b7effffffffffffffffffffffffffffffffffffffffffffffffffffffffffffff1916145b8015610352575086866001898990506102c59190611007565b8181106102d5576102d4610f9f565b5b9050013560f81c60f81b7effffffffffffffffffffffffffffffffffffffffffffffffffffffffffffff191684888890506020610312919061103b565b8151811061032357610322610f9f565b5b602001015160f81c60f81b7effffffffffffffffffffffffffffffffffffffffffffffffffffffffffffff1916145b90506000878790508451101580156103e857508787600081811061037957610378610f9f565b5b9050013560f81c60f81b7effffffffffffffffffffffffffffffffffffffffffffffffffffffffffffff1916846020815181106103b9576103b8610f9f565b5b602001015160f81c60f81b7effffffffffffffffffffffffffffffffffffffffffffffffffffffffffffff1916145b801561048e5750878760018a8a90506104019190611007565b81811061041157610410610f9f565b5b9050013560f81c60f81b7effffffffffffffffffffffffffffffffffffffffffffffffffffffffffffff19168489899050602061044e919061103b565b8151811061045f5761045e610f9f565b5b602001015160f81c60f81b7effffffffffffffffffffffffffffffffffffffffffffffffffffffffffffff1916145b905081806104995750805b15610ae1578288886040516020016104b39392919061113b565b604051602081830303815290604052925081156107d2576000855190505b60008111156107d05780806104e590611177565b915050888860018b8b90506104fa9190611007565b81811061050a57610509610f9f565b5b9050013560f81c60f81b7effffffffffffffffffffffffffffffffffffffffffffffffffffffffffffff191686828151811061054957610548610f9f565b5b602001015160f81c60f81b7effffffffffffffffffffffffffffffffffffffffffffffffffffffffffffff191614801561061a57508888600081811061059257610591610f9f565b5b9050013560f81c60f81b7effffffffffffffffffffffffffffffffffffffffffffffffffffffffffffff19168660018b8b9050846105d09190611007565b6105da919061103b565b815181106105eb576105ea610f9f565b5b602001015160f81c60f81b7effffffffffffffffffffffffffffffffffffffffffffffffffffffffffffff1916145b156107cb57600060018a8a9050836106329190611007565b61063c919061103b565b9050600060018361064d919061103b565b90505b6000821180156106cb57507f0a000000000000000000000000000000000000000000000000000000000000008860018461068a9190611007565b8151811061069b5761069a610f9f565b5b602001015160f81c60f81b7effffffffffffffffffffffffffffffffffffffffffffffffffffffffffffff191614155b156106e35781806106db90611177565b925050610650565b5b87518110801561075357507f0a0000000000000000000000000000000000000000000000000000000000000088828151811061072357610722610f9f565b5b602001015160f81c60f81b7effffffffffffffffffffffffffffffffffffffffffffffffffffffffffffff191614155b1561076b578080610763906111a0565b9150506106e4565b600087905060006020905060005b82518110156107c557600060208201840151905089816040516020016107a092919061125f565b60405160208183030381529060405299505081816107be919061103b565b9050610779565b50505050505b6104d1565b505b8015610ae0576000845190505b6000811115610ade5780806107f390611177565b915050888860018b8b90506108089190611007565b81811061081857610817610f9f565b5b9050013560f81c60f81b7effffffffffffffffffffffffffffffffffffffffffffffffffffffffffffff191685828151811061085757610856610f9f565b5b602001015160f81c60f81b7effffffffffffffffffffffffffffffffffffffffffffffffffffffffffffff19161480156109285750888860008181106108a05761089f610f9f565b5b9050013560f81c60f81b7effffffffffffffffffffffffffffffffffffffffffffffffffffffffffffff19168560018b8b9050846108de9190611007565b6108e8919061103b565b815181106108f9576108f8610f9f565b5b602001015160f81c60f81b7effffffffffffffffffffffffffffffffffffffffffffffffffffffffffffff1916145b15610ad957600060018a8a9050836109409190611007565b61094a919061103b565b9050600060018361095b919061103b565b90505b6000821180156109d957507f0a00000000000000000000000000000000000000000000000000000000000000876001846109989190611007565b815181106109a9576109a8610f9f565b5b602001015160f81c60f81b7effffffffffffffffffffffffffffffffffffffffffffffffffffffffffffff191614155b156109f15781806109e990611177565b92505061095e565b5b865181108015610a6157507f0a00000000000000000000000000000000000000000000000000000000000000878281518110610a3157610a30610f9f565b5b602001015160f81c60f81b7effffffffffffffffffffffffffffffffffffffffffffffffffffffffffffff191614155b15610a79578080610a71906111a0565b9150506109f2565b600087905060006020905060005b8251811015610ad35760006020820184015190508981604051602001610aae92919061125f565b6040516020818303038152906040529950508181610acc919061103b565b9050610a87565b50505050505b6107df565b505b5b50505b5b80935050505092915050565b60008054906101000a900473ffffffffffffffffffffffffffffffffffffffff1681565b6000604051905090565b600080fd5b600080fd5b600080fd5b600080fd5b600080fd5b60008083601f840112610b4e57610b4d610b29565b5b8235905067ffffffffffffffff811115610b6b57610b6a610b2e565b5b602083019150836001820283011115610b8757610b86610b33565b5b9250929050565b60008060208385031215610ba557610ba4610b1f565b5b600083013567ffffffffffffffff811115610bc357610bc2610b24565b5b610bcf85828601610b38565b92509250509250929050565b600081519050919050565b600082825260208201905092915050565b60005b83811015610c15578082015181840152602081019050610bfa565b60008484015250505050565b6000601f19601f8301169050919050565b6000610c3d82610bdb565b610c478185610be6565b9350610c57818560208601610bf7565b610c6081610c21565b840191505092915050565b60006020820190508181036000830152610c858184610c32565b905092915050565b600073ffffffffffffffffffffffffffffffffffffffff82169050919050565b6000819050919050565b6000610cd2610ccd610cc884610c8d565b610cad565b610c8d565b9050919050565b6000610ce482610cb7565b9050919050565b6000610cf682610cd9565b9050919050565b610d0681610ceb565b82525050565b6000602082019050610d216000830184610cfd565b92915050565b600080fd5b7f4e487b7100000000000000000000000000000000000000000000000000000000600052604160045260246000fd5b610d6482610c21565b810181811067ffffffffffffffff82111715610d8357610d82610d2c565b5b80604052505050565b6000610d96610b15565b9050610da28282610d5b565b919050565b600067ffffffffffffffff821115610dc257610dc1610d2c565b5b610dcb82610c21565b9050602081019050919050565b6000610deb610de684610da7565b610d8c565b905082815260208101848484011115610e0757610e06610d27565b5b610e12848285610bf7565b509392505050565b600082601f830112610e2f57610e2e610b29565b5b8151610e3f848260208601610dd8565b91505092915050565b600060208284031215610e5e57610e5d610b1f565b5b600082015167ffffffffffffffff811115610e7c57610e7b610b24565b5b610e8884828501610e1a565b91505092915050565b600081905092915050565b7f437261776c656420646174613a0a000000000000000000000000000000000000600082015250565b6000610ed2600e83610e91565b9150610edd82610e9c565b600e82019050919050565b6000610ef382610bdb565b610efd8185610e91565b9350610f0d818560208601610bf7565b80840191505092915050565b7f0a0a547261696e656420646174613a0a00000000000000000000000000000000600082015250565b6000610f4f601083610e91565b9150610f5a82610f19565b601082019050919050565b6000610f7082610ec5565b9150610f7c8285610ee8565b9150610f8782610f42565b9150610f938284610ee8565b91508190509392505050565b7f4e487b7100000000000000000000000000000000000000000000000000000000600052603260045260246000fd5b6000819050919050565b7f4e487b7100000000000000000000000000000000000000000000000000000000600052601160045260246000fd5b600061101282610fce565b915061101d83610fce565b925082820390508181111561103557611034610fd8565b5b92915050565b600061104682610fce565b915061105183610fce565b925082820190508082111561106957611068610fd8565b5b92915050565b7f0a0a526573756c747320666f7220270000000000000000000000000000000000600082015250565b60006110a5600f83610e91565b91506110b08261106f565b600f82019050919050565b82818337600083830152505050565b60006110d68385610e91565b93506110e38385846110bb565b82840190509392505050565b7f273a0a0000000000000000000000000000000000000000000000000000000000600082015250565b6000611125600383610e91565b9150611130826110ef565b600382019050919050565b60006111478286610ee8565b915061115282611098565b915061115f8284866110ca565b915061116a82611118565b9150819050949350505050565b600061118282610fce565b91506000820361119557611194610fd8565b5b600182039050919050565b60006111ab82610fce565b91507fffffffffffffffffffffffffffffffffffffffffffffffffffffffffffffffff82036111dd576111dc610fd8565b5b600182019050919050565b7f0a2d200000000000000000000000000000000000000000000000000000000000600082015250565b600061121e600383610e91565b9150611229826111e8565b600382019050919050565b6000819050919050565b6000819050919050565b61125961125482611234565b61123e565b82525050565b600061126b8285610ee8565b915061127682611211565b91506112828284611248565b602082019150819050939250505056fea26469706673582212208c329a5704a44bb1005443e6202668991f8c7ff0d7e256e3ca587f7c5a8eb6d264736f6c63430008110033",
					"opcodes": "PUSH1 0x80 PUSH1 0x40 MSTORE CALLVALUE DUP1 ISZERO PUSH3 0x11 JUMPI PUSH1 0x0 DUP1 REVERT JUMPDEST POP PUSH1 0x40 MLOAD PUSH3 0x13F2 CODESIZE SUB DUP1 PUSH3 0x13F2 DUP4 CODECOPY DUP2 DUP2 ADD PUSH1 0x40 MSTORE DUP2 ADD SWAP1 PUSH3 0x37 SWAP2 SWAP1 PUSH3 0xE8 JUMP JUMPDEST DUP1 PUSH1 0x0 DUP1 PUSH2 0x100 EXP DUP2 SLOAD DUP2 PUSH20 0xFFFFFFFFFFFFFFFFFFFFFFFFFFFFFFFFFFFFFFFF MUL NOT AND SWAP1 DUP4 PUSH20 0xFFFFFFFFFFFFFFFFFFFFFFFFFFFFFFFFFFFFFFFF AND MUL OR SWAP1 SSTORE POP POP PUSH3 0x11A JUMP JUMPDEST PUSH1 0x0 DUP1 REVERT JUMPDEST PUSH1 0x0 PUSH20 0xFFFFFFFFFFFFFFFFFFFFFFFFFFFFFFFFFFFFFFFF DUP3 AND SWAP1 POP SWAP2 SWAP1 POP JUMP JUMPDEST PUSH1 0x0 PUSH3 0xB0 DUP3 PUSH3 0x83 JUMP JUMPDEST SWAP1 POP SWAP2 SWAP1 POP JUMP JUMPDEST PUSH3 0xC2 DUP2 PUSH3 0xA3 JUMP JUMPDEST DUP2 EQ PUSH3 0xCE JUMPI PUSH1 0x0 DUP1 REVERT JUMPDEST POP JUMP JUMPDEST PUSH1 0x0 DUP2 MLOAD SWAP1 POP PUSH3 0xE2 DUP2 PUSH3 0xB7 JUMP JUMPDEST SWAP3 SWAP2 POP POP JUMP JUMPDEST PUSH1 0x0 PUSH1 0x20 DUP3 DUP5 SUB SLT ISZERO PUSH3 0x101 JUMPI PUSH3 0x100 PUSH3 0x7E JUMP JUMPDEST JUMPDEST PUSH1 0x0 PUSH3 0x111 DUP5 DUP3 DUP6 ADD PUSH3 0xD1 JUMP JUMPDEST SWAP2 POP POP SWAP3 SWAP2 POP POP JUMP JUMPDEST PUSH2 0x12C8 DUP1 PUSH3 0x12A PUSH1 0x0 CODECOPY PUSH1 0x0 RETURN INVALID PUSH1 0x80 PUSH1 0x40 MSTORE CALLVALUE DUP1 ISZERO PUSH2 0x10 JUMPI PUSH1 0x0 DUP1 REVERT JUMPDEST POP PUSH1 0x4 CALLDATASIZE LT PUSH2 0x36 JUMPI PUSH1 0x0 CALLDATALOAD PUSH1 0xE0 SHR DUP1 PUSH4 0x820ED086 EQ PUSH2 0x3B JUMPI DUP1 PUSH4 0xFC86D923 EQ PUSH2 0x6B JUMPI JUMPDEST PUSH1 0x0 DUP1 REVERT JUMPDEST PUSH2 0x55 PUSH1 0x4 DUP1 CALLDATASIZE SUB DUP2 ADD SWAP1 PUSH2 0x50 SWAP2 SWAP1 PUSH2 0xB8E JUMP JUMPDEST PUSH2 0x89 JUMP JUMPDEST PUSH1 0x40 MLOAD PUSH2 0x62 SWAP2 SWAP1 PUSH2 0xC6B JUMP JUMPDEST PUSH1 0x40 MLOAD DUP1 SWAP2 SUB SWAP1 RETURN JUMPDEST PUSH2 0x73 PUSH2 0xAF1 JUMP JUMPDEST PUSH1 0x40 MLOAD PUSH2 0x80 SWAP2 SWAP1 PUSH2 0xD0C JUMP JUMPDEST PUSH1 0x40 MLOAD DUP1 SWAP2 SUB SWAP1 RETURN JUMPDEST PUSH1 0x60 PUSH1 0x0 DUP1 PUSH1 0x0 SWAP1 SLOAD SWAP1 PUSH2 0x100 EXP SWAP1 DIV PUSH20 0xFFFFFFFFFFFFFFFFFFFFFFFFFFFFFFFFFFFFFFFF AND PUSH20 0xFFFFFFFFFFFFFFFFFFFFFFFFFFFFFFFFFFFFFFFF AND PUSH4 0xC2990D16 PUSH1 0x40 MLOAD DUP2 PUSH4 0xFFFFFFFF AND PUSH1 0xE0 SHL DUP2 MSTORE PUSH1 0x4 ADD PUSH1 0x0 PUSH1 0x40 MLOAD DUP1 DUP4 SUB DUP2 DUP7 GAS STATICCALL ISZERO DUP1 ISZERO PUSH2 0xF9 JUMPI RETURNDATASIZE PUSH1 0x0 DUP1 RETURNDATACOPY RETURNDATASIZE PUSH1 0x0 REVERT JUMPDEST POP POP POP POP PUSH1 0x40 MLOAD RETURNDATASIZE PUSH1 0x0 DUP3 RETURNDATACOPY RETURNDATASIZE PUSH1 0x1F NOT PUSH1 0x1F DUP3 ADD AND DUP3 ADD DUP1 PUSH1 0x40 MSTORE POP DUP2 ADD SWAP1 PUSH2 0x122 SWAP2 SWAP1 PUSH2 0xE48 JUMP JUMPDEST SWAP1 POP PUSH1 0x0 DUP1 PUSH1 0x0 SWAP1 SLOAD SWAP1 PUSH2 0x100 EXP SWAP1 DIV PUSH20 0xFFFFFFFFFFFFFFFFFFFFFFFFFFFFFFFFFFFFFFFF AND PUSH20 0xFFFFFFFFFFFFFFFFFFFFFFFFFFFFFFFFFFFFFFFF AND PUSH4 0xE78BE902 PUSH1 0x40 MLOAD DUP2 PUSH4 0xFFFFFFFF AND PUSH1 0xE0 SHL DUP2 MSTORE PUSH1 0x4 ADD PUSH1 0x0 PUSH1 0x40 MLOAD DUP1 DUP4 SUB DUP2 DUP7 GAS STATICCALL ISZERO DUP1 ISZERO PUSH2 0x192 JUMPI RETURNDATASIZE PUSH1 0x0 DUP1 RETURNDATACOPY RETURNDATASIZE PUSH1 0x0 REVERT JUMPDEST POP POP POP POP PUSH1 0x40 MLOAD RETURNDATASIZE PUSH1 0x0 DUP3 RETURNDATACOPY RETURNDATASIZE PUSH1 0x1F NOT PUSH1 0x1F DUP3 ADD AND DUP3 ADD DUP1 PUSH1 0x40 MSTORE POP DUP2 ADD SWAP1 PUSH2 0x1BB SWAP2 SWAP1 PUSH2 0xE48 JUMP JUMPDEST SWAP1 POP PUSH1 0x0 PUSH1 0x40 MLOAD DUP1 PUSH1 0x20 ADD PUSH1 0x40 MSTORE DUP1 PUSH1 0x0 DUP2 MSTORE POP SWAP1 POP PUSH1 0x0 DUP4 MLOAD GT DUP1 ISZERO PUSH2 0x1E3 JUMPI POP PUSH1 0x0 DUP3 MLOAD GT JUMPDEST ISZERO PUSH2 0xAE5 JUMPI DUP3 DUP3 PUSH1 0x40 MLOAD PUSH1 0x20 ADD PUSH2 0x1FB SWAP3 SWAP2 SWAP1 PUSH2 0xF65 JUMP JUMPDEST PUSH1 0x40 MLOAD PUSH1 0x20 DUP2 DUP4 SUB SUB DUP2 MSTORE SWAP1 PUSH1 0x40 MSTORE SWAP1 POP PUSH1 0x0 DUP7 DUP7 SWAP1 POP GT ISZERO PUSH2 0xAE4 JUMPI PUSH1 0x0 DUP7 DUP7 SWAP1 POP DUP5 MLOAD LT ISZERO DUP1 ISZERO PUSH2 0x2AC JUMPI POP DUP7 DUP7 PUSH1 0x0 DUP2 DUP2 LT PUSH2 0x23D JUMPI PUSH2 0x23C PUSH2 0xF9F JUMP JUMPDEST JUMPDEST SWAP1 POP ADD CALLDATALOAD PUSH1 0xF8 SHR PUSH1 0xF8 SHL PUSH31 0xFFFFFFFFFFFFFFFFFFFFFFFFFFFFFFFFFFFFFFFFFFFFFFFFFFFFFFFFFFFFFF NOT AND DUP5 PUSH1 0x20 DUP2 MLOAD DUP2 LT PUSH2 0x27D JUMPI PUSH2 0x27C PUSH2 0xF9F JUMP JUMPDEST JUMPDEST PUSH1 0x20 ADD ADD MLOAD PUSH1 0xF8 SHR PUSH1 0xF8 SHL PUSH31 0xFFFFFFFFFFFFFFFFFFFFFFFFFFFFFFFFFFFFFFFFFFFFFFFFFFFFFFFFFFFFFF NOT AND EQ JUMPDEST DUP1 ISZERO PUSH2 0x352 JUMPI POP DUP7 DUP7 PUSH1 0x1 DUP10 DUP10 SWAP1 POP PUSH2 0x2C5 SWAP2 SWAP1 PUSH2 0x1007 JUMP JUMPDEST DUP2 DUP2 LT PUSH2 0x2D5 JUMPI PUSH2 0x2D4 PUSH2 0xF9F JUMP JUMPDEST JUMPDEST SWAP1 POP ADD CALLDATALOAD PUSH1 0xF8 SHR PUSH1 0xF8 SHL PUSH31 0xFFFFFFFFFFFFFFFFFFFFFFFFFFFFFFFFFFFFFFFFFFFFFFFFFFFFFFFFFFFFFF NOT AND DUP5 DUP9 DUP9 SWAP1 POP PUSH1 0x20 PUSH2 0x312 SWAP2 SWAP1 PUSH2 0x103B JUMP JUMPDEST DUP2 MLOAD DUP2 LT PUSH2 0x323 JUMPI PUSH2 0x322 PUSH2 0xF9F JUMP JUMPDEST JUMPDEST PUSH1 0x20 ADD ADD MLOAD PUSH1 0xF8 SHR PUSH1 0xF8 SHL PUSH31 0xFFFFFFFFFFFFFFFFFFFFFFFFFFFFFFFFFFFFFFFFFFFFFFFFFFFFFFFFFFFFFF NOT AND EQ JUMPDEST SWAP1 POP PUSH1 0x0 DUP8 DUP8 SWAP1 POP DUP5 MLOAD LT ISZERO DUP1 ISZERO PUSH2 0x3E8 JUMPI POP DUP8 DUP8 PUSH1 0x0 DUP2 DUP2 LT PUSH2 0x379 JUMPI PUSH2 0x378 PUSH2 0xF9F JUMP JUMPDEST JUMPDEST SWAP1 POP ADD CALLDATALOAD PUSH1 0xF8 SHR PUSH1 0xF8 SHL PUSH31 0xFFFFFFFFFFFFFFFFFFFFFFFFFFFFFFFFFFFFFFFFFFFFFFFFFFFFFFFFFFFFFF NOT AND DUP5 PUSH1 0x20 DUP2 MLOAD DUP2 LT PUSH2 0x3B9 JUMPI PUSH2 0x3B8 PUSH2 0xF9F JUMP JUMPDEST JUMPDEST PUSH1 0x20 ADD ADD MLOAD PUSH1 0xF8 SHR PUSH1 0xF8 SHL PUSH31 0xFFFFFFFFFFFFFFFFFFFFFFFFFFFFFFFFFFFFFFFFFFFFFFFFFFFFFFFFFFFFFF NOT AND EQ JUMPDEST DUP1 ISZERO PUSH2 0x48E JUMPI POP DUP8 DUP8 PUSH1 0x1 DUP11 DUP11 SWAP1 POP PUSH2 0x401 SWAP2 SWAP1 PUSH2 0x1007 JUMP JUMPDEST DUP2 DUP2 LT PUSH2 0x411 JUMPI PUSH2 0x410 PUSH2 0xF9F JUMP JUMPDEST JUMPDEST SWAP1 POP ADD CALLDATALOAD PUSH1 0xF8 SHR PUSH1 0xF8 SHL PUSH31 0xFFFFFFFFFFFFFFFFFFFFFFFFFFFFFFFFFFFFFFFFFFFFFFFFFFFFFFFFFFFFFF NOT AND DUP5 DUP10 DUP10 SWAP1 POP PUSH1 0x20 PUSH2 0x44E SWAP2 SWAP1 PUSH2 0x103B JUMP JUMPDEST DUP2 MLOAD DUP2 LT PUSH2 0x45F JUMPI PUSH2 0x45E PUSH2 0xF9F JUMP JUMPDEST JUMPDEST PUSH1 0x20 ADD ADD MLOAD PUSH1 0xF8 SHR PUSH1 0xF8 SHL PUSH31 0xFFFFFFFFFFFFFFFFFFFFFFFFFFFFFFFFFFFFFFFFFFFFFFFFFFFFFFFFFFFFFF NOT AND EQ JUMPDEST SWAP1 POP DUP2 DUP1 PUSH2 0x499 JUMPI POP DUP1 JUMPDEST ISZERO PUSH2 0xAE1 JUMPI DUP3 DUP9 DUP9 PUSH1 0x40 MLOAD PUSH1 0x20 ADD PUSH2 0x4B3 SWAP4 SWAP3 SWAP2 SWAP1 PUSH2 0x113B JUMP JUMPDEST PUSH1 0x40 MLOAD PUSH1 0x20 DUP2 DUP4 SUB SUB DUP2 MSTORE SWAP1 PUSH1 0x40 MSTORE SWAP3 POP DUP2 ISZERO PUSH2 0x7D2 JUMPI PUSH1 0x0 DUP6 MLOAD SWAP1 POP JUMPDEST PUSH1 0x0 DUP2 GT ISZERO PUSH2 0x7D0 JUMPI DUP1 DUP1 PUSH2 0x4E5 SWAP1 PUSH2 0x1177 JUMP JUMPDEST SWAP2 POP POP DUP9 DUP9 PUSH1 0x1 DUP12 DUP12 SWAP1 POP PUSH2 0x4FA SWAP2 SWAP1 PUSH2 0x1007 JUMP JUMPDEST DUP2 DUP2 LT PUSH2 0x50A JUMPI PUSH2 0x509 PUSH2 0xF9F JUMP JUMPDEST JUMPDEST SWAP1 POP ADD CALLDATALOAD PUSH1 0xF8 SHR PUSH1 0xF8 SHL PUSH31 0xFFFFFFFFFFFFFFFFFFFFFFFFFFFFFFFFFFFFFFFFFFFFFFFFFFFFFFFFFFFFFF NOT AND DUP7 DUP3 DUP2 MLOAD DUP2 LT PUSH2 0x549 JUMPI PUSH2 0x548 PUSH2 0xF9F JUMP JUMPDEST JUMPDEST PUSH1 0x20 ADD ADD MLOAD PUSH1 0xF8 SHR PUSH1 0xF8 SHL PUSH31 0xFFFFFFFFFFFFFFFFFFFFFFFFFFFFFFFFFFFFFFFFFFFFFFFFFFFFFFFFFFFFFF NOT AND EQ DUP1 ISZERO PUSH2 0x61A JUMPI POP DUP9 DUP9 PUSH1 0x0 DUP2 DUP2 LT PUSH2 0x592 JUMPI PUSH2 0x591 PUSH2 0xF9F JUMP JUMPDEST JUMPDEST SWAP1 POP ADD CALLDATALOAD PUSH1 0xF8 SHR PUSH1 0xF8 SHL PUSH31 0xFFFFFFFFFFFFFFFFFFFFFFFFFFFFFFFFFFFFFFFFFFFFFFFFFFFFFFFFFFFFFF NOT AND DUP7 PUSH1 0x1 DUP12 DUP12 SWAP1 POP DUP5 PUSH2 0x5D0 SWAP2 SWAP1 PUSH2 0x1007 JUMP JUMPDEST PUSH2 0x5DA SWAP2 SWAP1 PUSH2 0x103B JUMP JUMPDEST DUP2 MLOAD DUP2 LT PUSH2 0x5EB JUMPI PUSH2 0x5EA PUSH2 0xF9F JUMP JUMPDEST JUMPDEST PUSH1 0x20 ADD ADD MLOAD PUSH1 0xF8 SHR PUSH1 0xF8 SHL PUSH31 0xFFFFFFFFFFFFFFFFFFFFFFFFFFFFFFFFFFFFFFFFFFFFFFFFFFFFFFFFFFFFFF NOT AND EQ JUMPDEST ISZERO PUSH2 0x7CB JUMPI PUSH1 0x0 PUSH1 0x1 DUP11 DUP11 SWAP1 POP DUP4 PUSH2 0x632 SWAP2 SWAP1 PUSH2 0x1007 JUMP JUMPDEST PUSH2 0x63C SWAP2 SWAP1 PUSH2 0x103B JUMP JUMPDEST SWAP1 POP PUSH1 0x0 PUSH1 0x1 DUP4 PUSH2 0x64D SWAP2 SWAP1 PUSH2 0x103B JUMP JUMPDEST SWAP1 POP JUMPDEST PUSH1 0x0 DUP3 GT DUP1 ISZERO PUSH2 0x6CB JUMPI POP PUSH32 0xA00000000000000000000000000000000000000000000000000000000000000 DUP9 PUSH1 0x1 DUP5 PUSH2 0x68A SWAP2 SWAP1 PUSH2 0x1007 JUMP JUMPDEST DUP2 MLOAD DUP2 LT PUSH2 0x69B JUMPI PUSH2 0x69A PUSH2 0xF9F JUMP JUMPDEST JUMPDEST PUSH1 0x20 ADD ADD MLOAD PUSH1 0xF8 SHR PUSH1 0xF8 SHL PUSH31 0xFFFFFFFFFFFFFFFFFFFFFFFFFFFFFFFFFFFFFFFFFFFFFFFFFFFFFFFFFFFFFF NOT AND EQ ISZERO JUMPDEST ISZERO PUSH2 0x6E3 JUMPI DUP2 DUP1 PUSH2 0x6DB SWAP1 PUSH2 0x1177 JUMP JUMPDEST SWAP3 POP POP PUSH2 0x650 JUMP JUMPDEST JUMPDEST DUP8 MLOAD DUP2 LT DUP1 ISZERO PUSH2 0x753 JUMPI POP PUSH32 0xA00000000000000000000000000000000000000000000000000000000000000 DUP9 DUP3 DUP2 MLOAD DUP2 LT PUSH2 0x723 JUMPI PUSH2 0x722 PUSH2 0xF9F JUMP JUMPDEST JUMPDEST PUSH1 0x20 ADD ADD MLOAD PUSH1 0xF8 SHR PUSH1 0xF8 SHL PUSH31 0xFFFFFFFFFFFFFFFFFFFFFFFFFFFFFFFFFFFFFFFFFFFFFFFFFFFFFFFFFFFFFF NOT AND EQ ISZERO JUMPDEST ISZERO PUSH2 0x76B JUMPI DUP1 DUP1 PUSH2 0x763 SWAP1 PUSH2 0x11A0 JUMP JUMPDEST SWAP2 POP POP PUSH2 0x6E4 JUMP JUMPDEST PUSH1 0x0 DUP8 SWAP1 POP PUSH1 0x0 PUSH1 0x20 SWAP1 POP PUSH1 0x0 JUMPDEST DUP3 MLOAD DUP2 LT ISZERO PUSH2 0x7C5 JUMPI PUSH1 0x0 PUSH1 0x20 DUP3 ADD DUP5 ADD MLOAD SWAP1 POP DUP10 DUP2 PUSH1 0x40 MLOAD PUSH1 0x20 ADD PUSH2 0x7A0 SWAP3 SWAP2 SWAP1 PUSH2 0x125F JUMP JUMPDEST PUSH1 0x40 MLOAD PUSH1 0x20 DUP2 DUP4 SUB SUB DUP2 MSTORE SWAP1 PUSH1 0x40 MSTORE SWAP10 POP POP DUP2 DUP2 PUSH2 0x7BE SWAP2 SWAP1 PUSH2 0x103B JUMP JUMPDEST SWAP1 POP PUSH2 0x779 JUMP JUMPDEST POP POP POP POP POP JUMPDEST PUSH2 0x4D1 JUMP JUMPDEST POP JUMPDEST DUP1 ISZERO PUSH2 0xAE0 JUMPI PUSH1 0x0 DUP5 MLOAD SWAP1 POP JUMPDEST PUSH1 0x0 DUP2 GT ISZERO PUSH2 0xADE JUMPI DUP1 DUP1 PUSH2 0x7F3 SWAP1 PUSH2 0x1177 JUMP JUMPDEST SWAP2 POP POP DUP9 DUP9 PUSH1 0x1 DUP12 DUP12 SWAP1 POP PUSH2 0x808 SWAP2 SWAP1 PUSH2 0x1007 JUMP JUMPDEST DUP2 DUP2 LT PUSH2 0x818 JUMPI PUSH2 0x817 PUSH2 0xF9F JUMP JUMPDEST JUMPDEST SWAP1 POP ADD CALLDATALOAD PUSH1 0xF8 SHR PUSH1 0xF8 SHL PUSH31 0xFFFFFFFFFFFFFFFFFFFFFFFFFFFFFFFFFFFFFFFFFFFFFFFFFFFFFFFFFFFFFF NOT AND DUP6 DUP3 DUP2 MLOAD DUP2 LT PUSH2 0x857 JUMPI PUSH2 0x856 PUSH2 0xF9F JUMP JUMPDEST JUMPDEST PUSH1 0x20 ADD ADD MLOAD PUSH1 0xF8 SHR PUSH1 0xF8 SHL PUSH31 0xFFFFFFFFFFFFFFFFFFFFFFFFFFFFFFFFFFFFFFFFFFFFFFFFFFFFFFFFFFFFFF NOT AND EQ DUP1 ISZERO PUSH2 0x928 JUMPI POP DUP9 DUP9 PUSH1 0x0 DUP2 DUP2 LT PUSH2 0x8A0 JUMPI PUSH2 0x89F PUSH2 0xF9F JUMP JUMPDEST JUMPDEST SWAP1 POP ADD CALLDATALOAD PUSH1 0xF8 SHR PUSH1 0xF8 SHL PUSH31 0xFFFFFFFFFFFFFFFFFFFFFFFFFFFFFFFFFFFFFFFFFFFFFFFFFFFFFFFFFFFFFF NOT AND DUP6 PUSH1 0x1 DUP12 DUP12 SWAP1 POP DUP5 PUSH2 0x8DE SWAP2 SWAP1 PUSH2 0x1007 JUMP JUMPDEST PUSH2 0x8E8 SWAP2 SWAP1 PUSH2 0x103B JUMP JUMPDEST DUP2 MLOAD DUP2 LT PUSH2 0x8F9 JUMPI PUSH2 0x8F8 PUSH2 0xF9F JUMP JUMPDEST JUMPDEST PUSH1 0x20 ADD ADD MLOAD PUSH1 0xF8 SHR PUSH1 0xF8 SHL PUSH31 0xFFFFFFFFFFFFFFFFFFFFFFFFFFFFFFFFFFFFFFFFFFFFFFFFFFFFFFFFFFFFFF NOT AND EQ JUMPDEST ISZERO PUSH2 0xAD9 JUMPI PUSH1 0x0 PUSH1 0x1 DUP11 DUP11 SWAP1 POP DUP4 PUSH2 0x940 SWAP2 SWAP1 PUSH2 0x1007 JUMP JUMPDEST PUSH2 0x94A SWAP2 SWAP1 PUSH2 0x103B JUMP JUMPDEST SWAP1 POP PUSH1 0x0 PUSH1 0x1 DUP4 PUSH2 0x95B SWAP2 SWAP1 PUSH2 0x103B JUMP JUMPDEST SWAP1 POP JUMPDEST PUSH1 0x0 DUP3 GT DUP1 ISZERO PUSH2 0x9D9 JUMPI POP PUSH32 0xA00000000000000000000000000000000000000000000000000000000000000 DUP8 PUSH1 0x1 DUP5 PUSH2 0x998 SWAP2 SWAP1 PUSH2 0x1007 JUMP JUMPDEST DUP2 MLOAD DUP2 LT PUSH2 0x9A9 JUMPI PUSH2 0x9A8 PUSH2 0xF9F JUMP JUMPDEST JUMPDEST PUSH1 0x20 ADD ADD MLOAD PUSH1 0xF8 SHR PUSH1 0xF8 SHL PUSH31 0xFFFFFFFFFFFFFFFFFFFFFFFFFFFFFFFFFFFFFFFFFFFFFFFFFFFFFFFFFFFFFF NOT AND EQ ISZERO JUMPDEST ISZERO PUSH2 0x9F1 JUMPI DUP2 DUP1 PUSH2 0x9E9 SWAP1 PUSH2 0x1177 JUMP JUMPDEST SWAP3 POP POP PUSH2 0x95E JUMP JUMPDEST JUMPDEST DUP7 MLOAD DUP2 LT DUP1 ISZERO PUSH2 0xA61 JUMPI POP PUSH32 0xA00000000000000000000000000000000000000000000000000000000000000 DUP8 DUP3 DUP2 MLOAD DUP2 LT PUSH2 0xA31 JUMPI PUSH2 0xA30 PUSH2 0xF9F JUMP JUMPDEST JUMPDEST PUSH1 0x20 ADD ADD MLOAD PUSH1 0xF8 SHR PUSH1 0xF8 SHL PUSH31 0xFFFFFFFFFFFFFFFFFFFFFFFFFFFFFFFFFFFFFFFFFFFFFFFFFFFFFFFFFFFFFF NOT AND EQ ISZERO JUMPDEST ISZERO PUSH2 0xA79 JUMPI DUP1 DUP1 PUSH2 0xA71 SWAP1 PUSH2 0x11A0 JUMP JUMPDEST SWAP2 POP POP PUSH2 0x9F2 JUMP JUMPDEST PUSH1 0x0 DUP8 SWAP1 POP PUSH1 0x0 PUSH1 0x20 SWAP1 POP PUSH1 0x0 JUMPDEST DUP3 MLOAD DUP2 LT ISZERO PUSH2 0xAD3 JUMPI PUSH1 0x0 PUSH1 0x20 DUP3 ADD DUP5 ADD MLOAD SWAP1 POP DUP10 DUP2 PUSH1 0x40 MLOAD PUSH1 0x20 ADD PUSH2 0xAAE SWAP3 SWAP2 SWAP1 PUSH2 0x125F JUMP JUMPDEST PUSH1 0x40 MLOAD PUSH1 0x20 DUP2 DUP4 SUB SUB DUP2 MSTORE SWAP1 PUSH1 0x40 MSTORE SWAP10 POP POP DUP2 DUP2 PUSH2 0xACC SWAP2 SWAP1 PUSH2 0x103B JUMP JUMPDEST SWAP1 POP PUSH2 0xA87 JUMP JUMPDEST POP POP POP POP POP JUMPDEST PUSH2 0x7DF JUMP JUMPDEST POP JUMPDEST JUMPDEST POP POP JUMPDEST JUMPDEST DUP1 SWAP4 POP POP POP POP SWAP3 SWAP2 POP POP JUMP JUMPDEST PUSH1 0x0 DUP1 SLOAD SWAP1 PUSH2 0x100 EXP SWAP1 DIV PUSH20 0xFFFFFFFFFFFFFFFFFFFFFFFFFFFFFFFFFFFFFFFF AND DUP2 JUMP JUMPDEST PUSH1 0x0 PUSH1 0x40 MLOAD SWAP1 POP SWAP1 JUMP JUMPDEST PUSH1 0x0 DUP1 REVERT JUMPDEST PUSH1 0x0 DUP1 REVERT JUMPDEST PUSH1 0x0 DUP1 REVERT JUMPDEST PUSH1 0x0 DUP1 REVERT JUMPDEST PUSH1 0x0 DUP1 REVERT JUMPDEST PUSH1 0x0 DUP1 DUP4 PUSH1 0x1F DUP5 ADD SLT PUSH2 0xB4E JUMPI PUSH2 0xB4D PUSH2 0xB29 JUMP JUMPDEST JUMPDEST DUP3 CALLDATALOAD SWAP1 POP PUSH8 0xFFFFFFFFFFFFFFFF DUP2 GT ISZERO PUSH2 0xB6B JUMPI PUSH2 0xB6A PUSH2 0xB2E JUMP JUMPDEST JUMPDEST PUSH1 0x20 DUP4 ADD SWAP2 POP DUP4 PUSH1 0x1 DUP3 MUL DUP4 ADD GT ISZERO PUSH2 0xB87 JUMPI PUSH2 0xB86 PUSH2 0xB33 JUMP JUMPDEST JUMPDEST SWAP3 POP SWAP3 SWAP1 POP JUMP JUMPDEST PUSH1 0x0 DUP1 PUSH1 0x20 DUP4 DUP6 SUB SLT ISZERO PUSH2 0xBA5 JUMPI PUSH2 0xBA4 PUSH2 0xB1F JUMP JUMPDEST JUMPDEST PUSH1 0x0 DUP4 ADD CALLDATALOAD PUSH8 0xFFFFFFFFFFFFFFFF DUP2 GT ISZERO PUSH2 0xBC3 JUMPI PUSH2 0xBC2 PUSH2 0xB24 JUMP JUMPDEST JUMPDEST PUSH2 0xBCF DUP6 DUP3 DUP7 ADD PUSH2 0xB38 JUMP JUMPDEST SWAP3 POP SWAP3 POP POP SWAP3 POP SWAP3 SWAP1 POP JUMP JUMPDEST PUSH1 0x0 DUP2 MLOAD SWAP1 POP SWAP2 SWAP1 POP JUMP JUMPDEST PUSH1 0x0 DUP3 DUP3 MSTORE PUSH1 0x20 DUP3 ADD SWAP1 POP SWAP3 SWAP2 POP POP JUMP JUMPDEST PUSH1 0x0 JUMPDEST DUP4 DUP2 LT ISZERO PUSH2 0xC15 JUMPI DUP1 DUP3 ADD MLOAD DUP2 DUP5 ADD MSTORE PUSH1 0x20 DUP2 ADD SWAP1 POP PUSH2 0xBFA JUMP JUMPDEST PUSH1 0x0 DUP5 DUP5 ADD MSTORE POP POP POP POP JUMP JUMPDEST PUSH1 0x0 PUSH1 0x1F NOT PUSH1 0x1F DUP4 ADD AND SWAP1 POP SWAP2 SWAP1 POP JUMP JUMPDEST PUSH1 0x0 PUSH2 0xC3D DUP3 PUSH2 0xBDB JUMP JUMPDEST PUSH2 0xC47 DUP2 DUP6 PUSH2 0xBE6 JUMP JUMPDEST SWAP4 POP PUSH2 0xC57 DUP2 DUP6 PUSH1 0x20 DUP7 ADD PUSH2 0xBF7 JUMP JUMPDEST PUSH2 0xC60 DUP2 PUSH2 0xC21 JUMP JUMPDEST DUP5 ADD SWAP2 POP POP SWAP3 SWAP2 POP POP JUMP JUMPDEST PUSH1 0x0 PUSH1 0x20 DUP3 ADD SWAP1 POP DUP2 DUP2 SUB PUSH1 0x0 DUP4 ADD MSTORE PUSH2 0xC85 DUP2 DUP5 PUSH2 0xC32 JUMP JUMPDEST SWAP1 POP SWAP3 SWAP2 POP POP JUMP JUMPDEST PUSH1 0x0 PUSH20 0xFFFFFFFFFFFFFFFFFFFFFFFFFFFFFFFFFFFFFFFF DUP3 AND SWAP1 POP SWAP2 SWAP1 POP JUMP JUMPDEST PUSH1 0x0 DUP2 SWAP1 POP SWAP2 SWAP1 POP JUMP JUMPDEST PUSH1 0x0 PUSH2 0xCD2 PUSH2 0xCCD PUSH2 0xCC8 DUP5 PUSH2 0xC8D JUMP JUMPDEST PUSH2 0xCAD JUMP JUMPDEST PUSH2 0xC8D JUMP JUMPDEST SWAP1 POP SWAP2 SWAP1 POP JUMP JUMPDEST PUSH1 0x0 PUSH2 0xCE4 DUP3 PUSH2 0xCB7 JUMP JUMPDEST SWAP1 POP SWAP2 SWAP1 POP JUMP JUMPDEST PUSH1 0x0 PUSH2 0xCF6 DUP3 PUSH2 0xCD9 JUMP JUMPDEST SWAP1 POP SWAP2 SWAP1 POP JUMP JUMPDEST PUSH2 0xD06 DUP2 PUSH2 0xCEB JUMP JUMPDEST DUP3 MSTORE POP POP JUMP JUMPDEST PUSH1 0x0 PUSH1 0x20 DUP3 ADD SWAP1 POP PUSH2 0xD21 PUSH1 0x0 DUP4 ADD DUP5 PUSH2 0xCFD JUMP JUMPDEST SWAP3 SWAP2 POP POP JUMP JUMPDEST PUSH1 0x0 DUP1 REVERT JUMPDEST PUSH32 0x4E487B7100000000000000000000000000000000000000000000000000000000 PUSH1 0x0 MSTORE PUSH1 0x41 PUSH1 0x4 MSTORE PUSH1 0x24 PUSH1 0x0 REVERT JUMPDEST PUSH2 0xD64 DUP3 PUSH2 0xC21 JUMP JUMPDEST DUP2 ADD DUP2 DUP2 LT PUSH8 0xFFFFFFFFFFFFFFFF DUP3 GT OR ISZERO PUSH2 0xD83 JUMPI PUSH2 0xD82 PUSH2 0xD2C JUMP JUMPDEST JUMPDEST DUP1 PUSH1 0x40 MSTORE POP POP POP JUMP JUMPDEST PUSH1 0x0 PUSH2 0xD96 PUSH2 0xB15 JUMP JUMPDEST SWAP1 POP PUSH2 0xDA2 DUP3 DUP3 PUSH2 0xD5B JUMP JUMPDEST SWAP2 SWAP1 POP JUMP JUMPDEST PUSH1 0x0 PUSH8 0xFFFFFFFFFFFFFFFF DUP3 GT ISZERO PUSH2 0xDC2 JUMPI PUSH2 0xDC1 PUSH2 0xD2C JUMP JUMPDEST JUMPDEST PUSH2 0xDCB DUP3 PUSH2 0xC21 JUMP JUMPDEST SWAP1 POP PUSH1 0x20 DUP2 ADD SWAP1 POP SWAP2 SWAP1 POP JUMP JUMPDEST PUSH1 0x0 PUSH2 0xDEB PUSH2 0xDE6 DUP5 PUSH2 0xDA7 JUMP JUMPDEST PUSH2 0xD8C JUMP JUMPDEST SWAP1 POP DUP3 DUP2 MSTORE PUSH1 0x20 DUP2 ADD DUP5 DUP5 DUP5 ADD GT ISZERO PUSH2 0xE07 JUMPI PUSH2 0xE06 PUSH2 0xD27 JUMP JUMPDEST JUMPDEST PUSH2 0xE12 DUP5 DUP3 DUP6 PUSH2 0xBF7 JUMP JUMPDEST POP SWAP4 SWAP3 POP POP POP JUMP JUMPDEST PUSH1 0x0 DUP3 PUSH1 0x1F DUP4 ADD SLT PUSH2 0xE2F JUMPI PUSH2 0xE2E PUSH2 0xB29 JUMP JUMPDEST JUMPDEST DUP2 MLOAD PUSH2 0xE3F DUP5 DUP3 PUSH1 0x20 DUP7 ADD PUSH2 0xDD8 JUMP JUMPDEST SWAP2 POP POP SWAP3 SWAP2 POP POP JUMP JUMPDEST PUSH1 0x0 PUSH1 0x20 DUP3 DUP5 SUB SLT ISZERO PUSH2 0xE5E JUMPI PUSH2 0xE5D PUSH2 0xB1F JUMP JUMPDEST JUMPDEST PUSH1 0x0 DUP3 ADD MLOAD PUSH8 0xFFFFFFFFFFFFFFFF DUP2 GT ISZERO PUSH2 0xE7C JUMPI PUSH2 0xE7B PUSH2 0xB24 JUMP JUMPDEST JUMPDEST PUSH2 0xE88 DUP5 DUP3 DUP6 ADD PUSH2 0xE1A JUMP JUMPDEST SWAP2 POP POP SWAP3 SWAP2 POP POP JUMP JUMPDEST PUSH1 0x0 DUP2 SWAP1 POP SWAP3 SWAP2 POP POP JUMP JUMPDEST PUSH32 0x437261776C656420646174613A0A000000000000000000000000000000000000 PUSH1 0x0 DUP3 ADD MSTORE POP JUMP JUMPDEST PUSH1 0x0 PUSH2 0xED2 PUSH1 0xE DUP4 PUSH2 0xE91 JUMP JUMPDEST SWAP2 POP PUSH2 0xEDD DUP3 PUSH2 0xE9C JUMP JUMPDEST PUSH1 0xE DUP3 ADD SWAP1 POP SWAP2 SWAP1 POP JUMP JUMPDEST PUSH1 0x0 PUSH2 0xEF3 DUP3 PUSH2 0xBDB JUMP JUMPDEST PUSH2 0xEFD DUP2 DUP6 PUSH2 0xE91 JUMP JUMPDEST SWAP4 POP PUSH2 0xF0D DUP2 DUP6 PUSH1 0x20 DUP7 ADD PUSH2 0xBF7 JUMP JUMPDEST DUP1 DUP5 ADD SWAP2 POP POP SWAP3 SWAP2 POP POP JUMP JUMPDEST PUSH32 0xA0A547261696E656420646174613A0A00000000000000000000000000000000 PUSH1 0x0 DUP3 ADD MSTORE POP JUMP JUMPDEST PUSH1 0x0 PUSH2 0xF4F PUSH1 0x10 DUP4 PUSH2 0xE91 JUMP JUMPDEST SWAP2 POP PUSH2 0xF5A DUP3 PUSH2 0xF19 JUMP JUMPDEST PUSH1 0x10 DUP3 ADD SWAP1 POP SWAP2 SWAP1 POP JUMP JUMPDEST PUSH1 0x0 PUSH2 0xF70 DUP3 PUSH2 0xEC5 JUMP JUMPDEST SWAP2 POP PUSH2 0xF7C DUP3 DUP6 PUSH2 0xEE8 JUMP JUMPDEST SWAP2 POP PUSH2 0xF87 DUP3 PUSH2 0xF42 JUMP JUMPDEST SWAP2 POP PUSH2 0xF93 DUP3 DUP5 PUSH2 0xEE8 JUMP JUMPDEST SWAP2 POP DUP2 SWAP1 POP SWAP4 SWAP3 POP POP POP JUMP JUMPDEST PUSH32 0x4E487B7100000000000000000000000000000000000000000000000000000000 PUSH1 0x0 MSTORE PUSH1 0x32 PUSH1 0x4 MSTORE PUSH1 0x24 PUSH1 0x0 REVERT JUMPDEST PUSH1 0x0 DUP2 SWAP1 POP SWAP2 SWAP1 POP JUMP JUMPDEST PUSH32 0x4E487B7100000000000000000000000000000000000000000000000000000000 PUSH1 0x0 MSTORE PUSH1 0x11 PUSH1 0x4 MSTORE PUSH1 0x24 PUSH1 0x0 REVERT JUMPDEST PUSH1 0x0 PUSH2 0x1012 DUP3 PUSH2 0xFCE JUMP JUMPDEST SWAP2 POP PUSH2 0x101D DUP4 PUSH2 0xFCE JUMP JUMPDEST SWAP3 POP DUP3 DUP3 SUB SWAP1 POP DUP2 DUP2 GT ISZERO PUSH2 0x1035 JUMPI PUSH2 0x1034 PUSH2 0xFD8 JUMP JUMPDEST JUMPDEST SWAP3 SWAP2 POP POP JUMP JUMPDEST PUSH1 0x0 PUSH2 0x1046 DUP3 PUSH2 0xFCE JUMP JUMPDEST SWAP2 POP PUSH2 0x1051 DUP4 PUSH2 0xFCE JUMP JUMPDEST SWAP3 POP DUP3 DUP3 ADD SWAP1 POP DUP1 DUP3 GT ISZERO PUSH2 0x1069 JUMPI PUSH2 0x1068 PUSH2 0xFD8 JUMP JUMPDEST JUMPDEST SWAP3 SWAP2 POP POP JUMP JUMPDEST PUSH32 0xA0A526573756C747320666F7220270000000000000000000000000000000000 PUSH1 0x0 DUP3 ADD MSTORE POP JUMP JUMPDEST PUSH1 0x0 PUSH2 0x10A5 PUSH1 0xF DUP4 PUSH2 0xE91 JUMP JUMPDEST SWAP2 POP PUSH2 0x10B0 DUP3 PUSH2 0x106F JUMP JUMPDEST PUSH1 0xF DUP3 ADD SWAP1 POP SWAP2 SWAP1 POP JUMP JUMPDEST DUP3 DUP2 DUP4 CALLDATACOPY PUSH1 0x0 DUP4 DUP4 ADD MSTORE POP POP POP JUMP JUMPDEST PUSH1 0x0 PUSH2 0x10D6 DUP4 DUP6 PUSH2 0xE91 JUMP JUMPDEST SWAP4 POP PUSH2 0x10E3 DUP4 DUP6 DUP5 PUSH2 0x10BB JUMP JUMPDEST DUP3 DUP5 ADD SWAP1 POP SWAP4 SWAP3 POP POP POP JUMP JUMPDEST PUSH32 0x273A0A0000000000000000000000000000000000000000000000000000000000 PUSH1 0x0 DUP3 ADD MSTORE POP JUMP JUMPDEST PUSH1 0x0 PUSH2 0x1125 PUSH1 0x3 DUP4 PUSH2 0xE91 JUMP JUMPDEST SWAP2 POP PUSH2 0x1130 DUP3 PUSH2 0x10EF JUMP JUMPDEST PUSH1 0x3 DUP3 ADD SWAP1 POP SWAP2 SWAP1 POP JUMP JUMPDEST PUSH1 0x0 PUSH2 0x1147 DUP3 DUP7 PUSH2 0xEE8 JUMP JUMPDEST SWAP2 POP PUSH2 0x1152 DUP3 PUSH2 0x1098 JUMP JUMPDEST SWAP2 POP PUSH2 0x115F DUP3 DUP5 DUP7 PUSH2 0x10CA JUMP JUMPDEST SWAP2 POP PUSH2 0x116A DUP3 PUSH2 0x1118 JUMP JUMPDEST SWAP2 POP DUP2 SWAP1 POP SWAP5 SWAP4 POP POP POP POP JUMP JUMPDEST PUSH1 0x0 PUSH2 0x1182 DUP3 PUSH2 0xFCE JUMP JUMPDEST SWAP2 POP PUSH1 0x0 DUP3 SUB PUSH2 0x1195 JUMPI PUSH2 0x1194 PUSH2 0xFD8 JUMP JUMPDEST JUMPDEST PUSH1 0x1 DUP3 SUB SWAP1 POP SWAP2 SWAP1 POP JUMP JUMPDEST PUSH1 0x0 PUSH2 0x11AB DUP3 PUSH2 0xFCE JUMP JUMPDEST SWAP2 POP PUSH32 0xFFFFFFFFFFFFFFFFFFFFFFFFFFFFFFFFFFFFFFFFFFFFFFFFFFFFFFFFFFFFFFFF DUP3 SUB PUSH2 0x11DD JUMPI PUSH2 0x11DC PUSH2 0xFD8 JUMP JUMPDEST JUMPDEST PUSH1 0x1 DUP3 ADD SWAP1 POP SWAP2 SWAP1 POP JUMP JUMPDEST PUSH32 0xA2D200000000000000000000000000000000000000000000000000000000000 PUSH1 0x0 DUP3 ADD MSTORE POP JUMP JUMPDEST PUSH1 0x0 PUSH2 0x121E PUSH1 0x3 DUP4 PUSH2 0xE91 JUMP JUMPDEST SWAP2 POP PUSH2 0x1229 DUP3 PUSH2 0x11E8 JUMP JUMPDEST PUSH1 0x3 DUP3 ADD SWAP1 POP SWAP2 SWAP1 POP JUMP JUMPDEST PUSH1 0x0 DUP2 SWAP1 POP SWAP2 SWAP1 POP JUMP JUMPDEST PUSH1 0x0 DUP2 SWAP1 POP SWAP2 SWAP1 POP JUMP JUMPDEST PUSH2 0x1259 PUSH2 0x1254 DUP3 PUSH2 0x1234 JUMP JUMPDEST PUSH2 0x123E JUMP JUMPDEST DUP3 MSTORE POP POP JUMP JUMPDEST PUSH1 0x0 PUSH2 0x126B DUP3 DUP6 PUSH2 0xEE8 JUMP JUMPDEST SWAP2 POP PUSH2 0x1276 DUP3 PUSH2 0x1211 JUMP JUMPDEST SWAP2 POP PUSH2 0x1282 DUP3 DUP5 PUSH2 0x1248 JUMP JUMPDEST PUSH1 0x20 DUP3 ADD SWAP2 POP DUP2 SWAP1 POP SWAP4 SWAP3 POP POP POP JUMP INVALID LOG2 PUSH5 0x6970667358 0x22 SLT KECCAK256 DUP13 ORIGIN SWAP11 JUMPI DIV LOG4 0x4B 0xB1 STOP SLOAD NUMBER 0xE6 KECCAK256 0x26 PUSH9 0x991F8C7FF0D7E256E3 0xCA PC PUSH32 0x7C5A8EB6D264736F6C6343000811003300000000000000000000000000000000 "
				},
				"gasEstimates": {
					"creation": {
						"codeDepositCost": "961600",
						"executionCost": "infinite",
						"totalCost": "infinite"
					},
					"external": {
						"crawler()": "infinite",
						"search(string)": "infinite"
					}
				},
				"methodIdentifiers": {
					"crawler()": "fc86d923",
					"search(string)": "820ed086"
				}
			},
			"storageLayout": {
				"storage": [
					{
						"astId": 598,
						"contract": "WebCrawlerDriver.sol:WebCrawlerDriver",
						"label": "crawler",
						"offset": 0,
						"slot": "0",
						"type": "t_contract(WebCrawler)592"
					}
				],
				"types": {
					"t_contract(WebCrawler)592": {
						"encoding": "inplace",
						"label": "contract WebCrawler",
						"numberOfBytes": "20"
					}
				}
			},
			"userdoc": {
				"kind": "user",
				"methods": {},
				"version": 1
			}
		}
	}
}