{
	"data": {
		"bytecode": {
			"linkReferences": {},
			"object": "60806040523480156200001157600080fd5b50604051620013f2380380620013f28339818101604052810190620000379190620000e8565b806000806101000a81548173ffffffffffffffffffffffffffffffffffffffff021916908373ffffffffffffffffffffffffffffffffffffffff160217905550506200011a565b600080fd5b600073ffffffffffffffffffffffffffffffffffffffff82169050919050565b6000620000b08262000083565b9050919050565b620000c281620000a3565b8114620000ce57600080fd5b50565b600081519050620000e281620000b7565b92915050565b6000602082840312156200010157620001006200007e565b5b60006200011184828501620000d1565b91505092915050565b6112c8806200012a6000396000f3fe608060405234801561001057600080fd5b50600436106100365760003560e01c8063820ed0861461003b578063fc86d9231461006b575b600080fd5b61005560048036038101906100509190610b8e565b610089565b6040516100629190610c6b565b60405180910390f35b610073610af1565b6040516100809190610d0c565b60405180910390f35b606060008060009054906101000a900473ffffffffffffffffffffffffffffffffffffffff1673ffffffffffffffffffffffffffffffffffffffff1663c2990d166040518163ffffffff1660e01b8152600401600060405180830381865afa1580156100f9573d6000803e3d6000fd5b505050506040513d6000823e3d601f19601f820116820180604052508101906101229190610e48565b905060008060009054906101000a900473ffffffffffffffffffffffffffffffffffffffff1673ffffffffffffffffffffffffffffffffffffffff1663e78be9026040518163ffffffff1660e01b8152600401600060405180830381865afa158015610192573d6000803e3d6000fd5b505050506040513d6000823e3d601f19601f820116820180604052508101906101bb9190610e48565b90506000604051806020016040528060008152509050600083511180156101e3575060008251115b15610ae55782826040516020016101fb929190610f65565b60405160208183030381529060405290506000868690501115610ae4576000868690508451101580156102ac57508686600081811061023d5761023c610f9f565b5b9050013560f81c60f81b7effffffffffffffffffffffffffffffffffffffffffffffffffffffffffffff19168460208151811061027d5761027c610f9f565b5b602001015160f81c60f81b7effffffffffffffffffffffffffffffffffffffffffffffffffffffffffffff1916145b8015610352575086866001898990506102c59190611007565b8181106102d5576102d4610f9f565b5b9050013560f81c60f81b7effffffffffffffffffffffffffffffffffffffffffffffffffffffffffffff191684888890506020610312919061103b565b8151811061032357610322610f9f565b5b602001015160f81c60f81b7effffffffffffffffffffffffffffffffffffffffffffffffffffffffffffff1916145b90506000878790508451101580156103e857508787600081811061037957610378610f9f565b5b9050013560f81c60f81b7effffffffffffffffffffffffffffffffffffffffffffffffffffffffffffff1916846020815181106103b9576103b8610f9f565b5b602001015160f81c60f81b7effffffffffffffffffffffffffffffffffffffffffffffffffffffffffffff1916145b801561048e5750878760018a8a90506104019190611007565b81811061041157610410610f9f565b5b9050013560f81c60f81b7effffffffffffffffffffffffffffffffffffffffffffffffffffffffffffff19168489899050602061044e919061103b565b8151811061045f5761045e610f9f565b5b602001015160f81c60f81b7effffffffffffffffffffffffffffffffffffffffffffffffffffffffffffff1916145b905081806104995750805b15610ae1578288886040516020016104b39392919061113b565b604051602081830303815290604052925081156107d2576000855190505b60008111156107d05780806104e590611177565b915050888860018b8b90506104fa9190611007565b81811061050a57610509610f9f565b5b9050013560f81c60f81b7effffffffffffffffffffffffffffffffffffffffffffffffffffffffffffff191686828151811061054957610548610f9f565b5b602001015160f81c60f81b7effffffffffffffffffffffffffffffffffffffffffffffffffffffffffffff191614801561061a57508888600081811061059257610591610f9f565b5b9050013560f81c60f81b7effffffffffffffffffffffffffffffffffffffffffffffffffffffffffffff19168660018b8b9050846105d09190611007565b6105da919061103b565b815181106105eb576105ea610f9f565b5b602001015160f81c60f81b7effffffffffffffffffffffffffffffffffffffffffffffffffffffffffffff1916145b156107cb57600060018a8a9050836106329190611007565b61063c919061103b565b9050600060018361064d919061103b565b90505b6000821180156106cb57507f0a000000000000000000000000000000000000000000000000000000000000008860018461068a9190611007565b8151811061069b5761069a610f9f565b5b602001015160f81c60f81b7effffffffffffffffffffffffffffffffffffffffffffffffffffffffffffff191614155b156106e35781806106db90611177565b925050610650565b5b87518110801561075357507f0a0000000000000000000000000000000000000000000000000000000000000088828151811061072357610722610f9f565b5b602001015160f81c60f81b7effffffffffffffffffffffffffffffffffffffffffffffffffffffffffffff191614155b1561076b578080610763906111a0565b9150506106e4565b600087905060006020905060005b82518110156107c557600060208201840151905089816040516020016107a092919061125f565b60405160208183030381529060405299505081816107be919061103b565b9050610779565b50505050505b6104d1565b505b8015610ae0576000845190505b6000811115610ade5780806107f390611177565b915050888860018b8b90506108089190611007565b81811061081857610817610f9f565b5b9050013560f81c60f81b7effffffffffffffffffffffffffffffffffffffffffffffffffffffffffffff191685828151811061085757610856610f9f565b5b602001015160f81c60f81b7effffffffffffffffffffffffffffffffffffffffffffffffffffffffffffff19161480156109285750888860008181106108a05761089f610f9f565b5b9050013560f81c60f81b7effffffffffffffffffffffffffffffffffffffffffffffffffffffffffffff19168560018b8b9050846108de9190611007565b6108e8919061103b565b815181106108f9576108f8610f9f565b5b602001015160f81c60f81b7effffffffffffffffffffffffffffffffffffffffffffffffffffffffffffff1916145b15610ad957600060018a8a9050836109409190611007565b61094a919061103b565b9050600060018361095b919061103b565b90505b6000821180156109d957507f0a00000000000000000000000000000000000000000000000000000000000000876001846109989190611007565b815181106109a9576109a8610f9f565b5b602001015160f81c60f81b7effffffffffffffffffffffffffffffffffffffffffffffffffffffffffffff191614155b156109f15781806109e990611177565b92505061095e565b5b865181108015610a6157507f0a00000000000000000000000000000000000000000000000000000000000000878281518110610a3157610a30610f9f565b5b602001015160f81c60f81b7effffffffffffffffffffffffffffffffffffffffffffffffffffffffffffff191614155b15610a79578080610a71906111a0565b9150506109f2565b600087905060006020905060005b8251811015610ad35760006020820184015190508981604051602001610aae92919061125f565b6040516020818303038152906040529950508181610acc919061103b565b9050610a87565b50505050505b6107df565b505b5b50505b5b80935050505092915050565b60008054906101000a900473ffffffffffffffffffffffffffffffffffffffff1681565b6000604051905090565b600080fd5b600080fd5b600080fd5b600080fd5b600080fd5b60008083601f840112610b4e57610b4d610b29565b5b8235905067ffffffffffffffff811115610b6b57610b6a610b2e565b5b602083019150836001820283011115610b8757610b86610b33565b5b9250929050565b60008060208385031215610ba557610ba4610b1f565b5b600083013567ffffffffffffffff811115610bc357610bc2610b24565b5b610bcf85828601610b38565b92509250509250929050565b600081519050919050565b600082825260208201905092915050565b60005b83811015610c15578082015181840152602081019050610bfa565b60008484015250505050565b6000601f19601f8301169050919050565b6000610c3d82610bdb565b610c478185610be6565b9350610c57818560208601610bf7565b610c6081610c21565b840191505092915050565b60006020820190508181036000830152610c858184610c32565b905092915050565b600073ffffffffffffffffffffffffffffffffffffffff82169050919050565b6000819050919050565b6000610cd2610ccd610cc884610c8d565b610cad565b610c8d565b9050919050565b6000610ce482610cb7565b9050919050565b6000610cf682610cd9565b9050919050565b610d0681610ceb565b82525050565b6000602082019050610d216000830184610cfd565b92915050565b600080fd5b7f4e487b7100000000000000000000000000000000000000000000000000000000600052604160045260246000fd5b610d6482610c21565b810181811067ffffffffffffffff82111715610d8357610d82610d2c565b5b80604052505050565b6000610d96610b15565b9050610da28282610d5b565b919050565b600067ffffffffffffffff821115610dc257610dc1610d2c565b5b610dcb82610c21565b9050602081019050919050565b6000610deb610de684610da7565b610d8c565b905082815260208101848484011115610e0757610e06610d27565b5b610e12848285610bf7565b509392505050565b600082601f830112610e2f57610e2e610b29565b5b8151610e3f848260208601610dd8565b91505092915050565b600060208284031215610e5e57610e5d610b1f565b5b600082015167ffffffffffffffff811115610e7c57610e7b610b24565b5b610e8884828501610e1a565b91505092915050565b600081905092915050565b7f437261776c656420646174613a0a000000000000000000000000000000000000600082015250565b6000610ed2600e83610e91565b9150610edd82610e9c565b600e82019050919050565b6000610ef382610bdb565b610efd8185610e91565b9350610f0d818560208601610bf7565b80840191505092915050565b7f0a0a547261696e656420646174613a0a00000000000000000000000000000000600082015250565b6000610f4f601083610e91565b9150610f5a82610f19565b601082019050919050565b6000610f7082610ec5565b9150610f7c8285610ee8565b9150610f8782610f42565b9150610f938284610ee8565b91508190509392505050565b7f4e487b7100000000000000000000000000000000000000000000000000000000600052603260045260246000fd5b6000819050919050565b7f4e487b7100000000000000000000000000000000000000000000000000000000600052601160045260246000fd5b600061101282610fce565b915061101d83610fce565b925082820390508181111561103557611034610fd8565b5b92915050565b600061104682610fce565b915061105183610fce565b925082820190508082111561106957611068610fd8565b5b92915050565b7f0a0a526573756c747320666f7220270000000000000000000000000000000000600082015250565b60006110a5600f83610e91565b91506110b08261106f565b600f82019050919050565b82818337600083830152505050565b60006110d68385610e91565b93506110e38385846110bb565b82840190509392505050565b7f273a0a0000000000000000000000000000000000000000000000000000000000600082015250565b6000611125600383610e91565b9150611130826110ef565b600382019050919050565b60006111478286610ee8565b915061115282611098565b915061115f8284866110ca565b915061116a82611118565b9150819050949350505050565b600061118282610fce565b91506000820361119557611194610fd8565b5b600182039050919050565b60006111ab82610fce565b91507fffffffffffffffffffffffffffffffffffffffffffffffffffffffffffffffff82036111dd576111dc610fd8565b5b600182019050919050565b7f0a2d200000000000000000000000000000000000000000000000000000000000600082015250565b600061121e600383610e91565b9150611229826111e8565b600382019050919050565b6000819050919050565b6000819050919050565b61125961125482611234565b61123e565b82525050565b600061126b8285610ee8565b915061127682611211565b91506112828284611248565b602082019150819050939250505056fea26469706673582212208c329a5704a44bb1005443e6202668991f8c7ff0d7e256e3ca587f7c5a8eb6d264736f6c63430008110033",
			"opcodes": "PUSH1 0x80 PUSH1 0x40 MSTORE CALLVALUE DUP1 ISZERO PUSH3 0x11 JUMPI PUSH1 0x0 DUP1 REVERT JUMPDEST POP PUSH1 0x40 MLOAD PUSH3 0x13F2 CODESIZE SUB DUP1 PUSH3 0x13F2 DUP4 CODECOPY DUP2 DUP2 ADD PUSH1 0x40 MSTORE DUP2 ADD SWAP1 PUSH3 0x37 SWAP2 SWAP1 PUSH3 0xE8 JUMP JUMPDEST DUP1 PUSH1 0x0 DUP1 PUSH2 0x100 EXP DUP2 SLOAD DUP2 PUSH20 0xFFFFFFFFFFFFFFFFFFFFFFFFFFFFFFFFFFFFFFFF MUL NOT AND SWAP1 DUP4 PUSH20 0xFFFFFFFFFFFFFFFFFFFFFFFFFFFFFFFFFFFFFFFF AND MUL OR SWAP1 SSTORE POP POP PUSH3 0x11A JUMP JUMPDEST PUSH1 0x0 DUP1 REVERT JUMPDEST PUSH1 0x0 PUSH20 0xFFFFFFFFFFFFFFFFFFFFFFFFFFFFFFFFFFFFFFFF DUP3 AND SWAP1 POP SWAP2 SWAP1 POP JUMP JUMPDEST PUSH1 0x0 PUSH3 0xB0 DUP3 PUSH3 0x83 JUMP JUMPDEST SWAP1 POP SWAP2 SWAP1 POP JUMP JUMPDEST PUSH3 0xC2 DUP2 PUSH3 0xA3 JUMP JUMPDEST DUP2 EQ PUSH3 0xCE JUMPI PUSH1 0x0 DUP1 REVERT JUMPDEST POP JUMP JUMPDEST PUSH1 0x0 DUP2 MLOAD SWAP1 POP PUSH3 0xE2 DUP2 PUSH3 0xB7 JUMP JUMPDEST SWAP3 SWAP2 POP POP JUMP JUMPDEST PUSH1 0x0 PUSH1 0x20 DUP3 DUP5 SUB SLT ISZERO PUSH3 0x101 JUMPI PUSH3 0x100 PUSH3 0x7E JUMP JUMPDEST JUMPDEST PUSH1 0x0 PUSH3 0x111 DUP5 DUP3 DUP6 ADD PUSH3 0xD1 JUMP JUMPDEST SWAP2 POP POP SWAP3 SWAP2 POP POP JUMP JUMPDEST PUSH2 0x12C8 DUP1 PUSH3 0x12A PUSH1 0x0 CODECOPY PUSH1 0x0 RETURN INVALID PUSH1 0x80 PUSH1 0x40 MSTORE CALLVALUE DUP1 ISZERO PUSH2 0x10 JUMPI PUSH1 0x0 DUP1 REVERT JUMPDEST POP PUSH1 0x4 CALLDATASIZE LT PUSH2 0x36 JUMPI PUSH1 0x0 CALLDATALOAD PUSH1 0xE0 SHR DUP1 PUSH4 0x820ED086 EQ PUSH2 0x3B JUMPI DUP1 PUSH4 0xFC86D923 EQ PUSH2 0x6B JUMPI JUMPDEST PUSH1 0x0 DUP1 REVERT JUMPDEST PUSH2 0x55 PUSH1 0x4 DUP1 CALLDATASIZE SUB DUP2 ADD SWAP1 PUSH2 0x50 SWAP2 SWAP1 PUSH2 0xB8E JUMP JUMPDEST PUSH2 0x89 JUMP JUMPDEST PUSH1 0x40 MLOAD PUSH2 0x62 SWAP2 SWAP1 PUSH2 0xC6B JUMP JUMPDEST PUSH1 0x40 MLOAD DUP1 SWAP2 SUB SWAP1 RETURN JUMPDEST PUSH2 0x73 PUSH2 0xAF1 JUMP JUMPDEST PUSH1 0x40 MLOAD PUSH2 0x80 SWAP2 SWAP1 PUSH2 0xD0C JUMP JUMPDEST PUSH1 0x40 MLOAD DUP1 SWAP2 SUB SWAP1 RETURN JUMPDEST PUSH1 0x60 PUSH1 0x0 DUP1 PUSH1 0x0 SWAP1 SLOAD SWAP1 PUSH2 0x100 EXP SWAP1 DIV PUSH20 0xFFFFFFFFFFFFFFFFFFFFFFFFFFFFFFFFFFFFFFFF AND PUSH20 0xFFFFFFFFFFFFFFFFFFFFFFFFFFFFFFFFFFFFFFFF AND PUSH4 0xC2990D16 PUSH1 0x40 MLOAD DUP2 PUSH4 0xFFFFFFFF AND PUSH1 0xE0 SHL DUP2 MSTORE PUSH1 0x4 ADD PUSH1 0x0 PUSH1 0x40 MLOAD DUP1 DUP4 SUB DUP2 DUP7 GAS STATICCALL ISZERO DUP1 ISZERO PUSH2 0xF9 JUMPI RETURNDATASIZE PUSH1 0x0 DUP1 RETURNDATACOPY RETURNDATASIZE PUSH1 0x0 REVERT JUMPDEST POP POP POP POP PUSH1 0x40 MLOAD RETURNDATASIZE PUSH1 0x0 DUP3 RETURNDATACOPY RETURNDATASIZE PUSH1 0x1F NOT PUSH1 0x1F DUP3 ADD AND DUP3 ADD DUP1 PUSH1 0x40 MSTORE POP DUP2 ADD SWAP1 PUSH2 0x122 SWAP2 SWAP1 PUSH2 0xE48 JUMP JUMPDEST SWAP1 POP PUSH1 0x0 DUP1 PUSH1 0x0 SWAP1 SLOAD SWAP1 PUSH2 0x100 EXP SWAP1 DIV PUSH20 0xFFFFFFFFFFFFFFFFFFFFFFFFFFFFFFFFFFFFFFFF AND PUSH20 0xFFFFFFFFFFFFFFFFFFFFFFFFFFFFFFFFFFFFFFFF AND PUSH4 0xE78BE902 PUSH1 0x40 MLOAD DUP2 PUSH4 0xFFFFFFFF AND PUSH1 0xE0 SHL DUP2 MSTORE PUSH1 0x4 ADD PUSH1 0x0 PUSH1 0x40 MLOAD DUP1 DUP4 SUB DUP2 DUP7 GAS STATICCALL ISZERO DUP1 ISZERO PUSH2 0x192 JUMPI RETURNDATASIZE PUSH1 0x0 DUP1 RETURNDATACOPY RETURNDATASIZE PUSH1 0x0 REVERT JUMPDEST POP POP POP POP PUSH1 0x40 MLOAD RETURNDATASIZE PUSH1 0x0 DUP3 RETURNDATACOPY RETURNDATASIZE PUSH1 0x1F NOT PUSH1 0x1F DUP3 ADD AND DUP3 ADD DUP1 PUSH1 0x40 MSTORE POP DUP2 ADD SWAP1 PUSH2 0x1BB SWAP2 SWAP1 PUSH2 0xE48 JUMP JUMPDEST SWAP1 POP PUSH1 0x0 PUSH1 0x40 MLOAD DUP1 PUSH1 0x20 ADD PUSH1 0x40 MSTORE DUP1 PUSH1 0x0 DUP2 MSTORE POP SWAP1 POP PUSH1 0x0 DUP4 MLOAD GT DUP1 ISZERO PUSH2 0x1E3 JUMPI POP PUSH1 0x0 DUP3 MLOAD GT JUMPDEST ISZERO PUSH2 0xAE5 JUMPI DUP3 DUP3 PUSH1 0x40 MLOAD PUSH1 0x20 ADD PUSH2 0x1FB SWAP3 SWAP2 SWAP1 PUSH2 0xF65 JUMP JUMPDEST PUSH1 0x40 MLOAD PUSH1 0x20 DUP2 DUP4 SUB SUB DUP2 MSTORE SWAP1 PUSH1 0x40 MSTORE SWAP1 POP PUSH1 0x0 DUP7 DUP7 SWAP1 POP GT ISZERO PUSH2 0xAE4 JUMPI PUSH1 0x0 DUP7 DUP7 SWAP1 POP DUP5 MLOAD LT ISZERO DUP1 ISZERO PUSH2 0x2AC JUMPI POP DUP7 DUP7 PUSH1 0x0 DUP2 DUP2 LT PUSH2 0x23D JUMPI PUSH2 0x23C PUSH2 0xF9F JUMP JUMPDEST JUMPDEST SWAP1 POP ADD CALLDATALOAD PUSH1 0xF8 SHR PUSH1 0xF8 SHL PUSH31 0xFFFFFFFFFFFFFFFFFFFFFFFFFFFFFFFFFFFFFFFFFFFFFFFFFFFFFFFFFFFFFF NOT AND DUP5 PUSH1 0x20 DUP2 MLOAD DUP2 LT PUSH2 0x27D JUMPI PUSH2 0x27C PUSH2 0xF9F JUMP JUMPDEST JUMPDEST PUSH1 0x20 ADD ADD MLOAD PUSH1 0xF8 SHR PUSH1 0xF8 SHL PUSH31 0xFFFFFFFFFFFFFFFFFFFFFFFFFFFFFFFFFFFFFFFFFFFFFFFFFFFFFFFFFFFFFF NOT AND EQ JUMPDEST DUP1 ISZERO PUSH2 0x352 JUMPI POP DUP7 DUP7 PUSH1 0x1 DUP10 DUP10 SWAP1 POP PUSH2 0x2C5 SWAP2 SWAP1 PUSH2 0x1007 JUMP JUMPDEST DUP2 DUP2 LT PUSH2 0x2D5 JUMPI PUSH2 0x2D4 PUSH2 0xF9F JUMP JUMPDEST JUMPDEST SWAP1 POP ADD CALLDATALOAD PUSH1 0xF8 SHR PUSH1 0xF8 SHL PUSH31 0xFFFFFFFFFFFFFFFFFFFFFFFFFFFFFFFFFFFFFFFFFFFFFFFFFFFFFFFFFFFFFF NOT AND DUP5 DUP9 DUP9 SWAP1 POP PUSH1 0x20 PUSH2 0x312 SWAP2 SWAP1 PUSH2 0x103B JUMP JUMPDEST DUP2 MLOAD DUP2 LT PUSH2 0x323 JUMPI PUSH2 0x322 PUSH2 0xF9F JUMP JUMPDEST JUMPDEST PUSH1 0x20 ADD ADD MLOAD PUSH1 0xF8 SHR PUSH1 0xF8 SHL PUSH31 0xFFFFFFFFFFFFFFFFFFFFFFFFFFFFFFFFFFFFFFFFFFFFFFFFFFFFFFFFFFFFFF NOT AND EQ JUMPDEST SWAP1 POP PUSH1 0x0 DUP8 DUP8 SWAP1 POP DUP5 MLOAD LT ISZERO DUP1 ISZERO PUSH2 0x3E8 JUMPI POP DUP8 DUP8 PUSH1 0x0 DUP2 DUP2 LT PUSH2 0x379 JUMPI PUSH2 0x378 PUSH2 0xF9F JUMP JUMPDEST JUMPDEST SWAP1 POP ADD CALLDATALOAD PUSH1 0xF8 SHR PUSH1 0xF8 SHL PUSH31 0xFFFFFFFFFFFFFFFFFFFFFFFFFFFFFFFFFFFFFFFFFFFFFFFFFFFFFFFFFFFFFF NOT AND DUP5 PUSH1 0x20 DUP2 MLOAD DUP2 LT PUSH2 0x3B9 JUMPI PUSH2 0x3B8 PUSH2 0xF9F JUMP JUMPDEST JUMPDEST PUSH1 0x20 ADD ADD MLOAD PUSH1 0xF8 SHR PUSH1 0xF8 SHL PUSH31 0xFFFFFFFFFFFFFFFFFFFFFFFFFFFFFFFFFFFFFFFFFFFFFFFFFFFFFFFFFFFFFF NOT AND EQ JUMPDEST DUP1 ISZERO PUSH2 0x48E JUMPI POP DUP8 DUP8 PUSH1 0x1 DUP11 DUP11 SWAP1 POP PUSH2 0x401 SWAP2 SWAP1 PUSH2 0x1007 JUMP JUMPDEST DUP2 DUP2 LT PUSH2 0x411 JUMPI PUSH2 0x410 PUSH2 0xF9F JUMP JUMPDEST JUMPDEST SWAP1 POP ADD CALLDATALOAD PUSH1 0xF8 SHR PUSH1 0xF8 SHL PUSH31 0xFFFFFFFFFFFFFFFFFFFFFFFFFFFFFFFFFFFFFFFFFFFFFFFFFFFFFFFFFFFFFF NOT AND DUP5 DUP10 DUP10 SWAP1 POP PUSH1 0x20 PUSH2 0x44E SWAP2 SWAP1 PUSH2 0x103B JUMP JUMPDEST DUP2 MLOAD DUP2 LT PUSH2 0x45F JUMPI PUSH2 0x45E PUSH2 0xF9F JUMP JUMPDEST JUMPDEST PUSH1 0x20 ADD ADD MLOAD PUSH1 0xF8 SHR PUSH1 0xF8 SHL PUSH31 0xFFFFFFFFFFFFFFFFFFFFFFFFFFFFFFFFFFFFFFFFFFFFFFFFFFFFFFFFFFFFFF NOT AND EQ JUMPDEST SWAP1 POP DUP2 DUP1 PUSH2 0x499 JUMPI POP DUP1 JUMPDEST ISZERO PUSH2 0xAE1 JUMPI DUP3 DUP9 DUP9 PUSH1 0x40 MLOAD PUSH1 0x20 ADD PUSH2 0x4B3 SWAP4 SWAP3 SWAP2 SWAP1 PUSH2 0x113B JUMP JUMPDEST PUSH1 0x40 MLOAD PUSH1 0x20 DUP2 DUP4 SUB SUB DUP2 MSTORE SWAP1 PUSH1 0x40 MSTORE SWAP3 POP DUP2 ISZERO PUSH2 0x7D2 JUMPI PUSH1 0x0 DUP6 MLOAD SWAP1 POP JUMPDEST PUSH1 0x0 DUP2 GT ISZERO PUSH2 0x7D0 JUMPI DUP1 DUP1 PUSH2 0x4E5 SWAP1 PUSH2 0x1177 JUMP JUMPDEST SWAP2 POP POP DUP9 DUP9 PUSH1 0x1 DUP12 DUP12 SWAP1 POP PUSH2 0x4FA SWAP2 SWAP1 PUSH2 0x1007 JUMP JUMPDEST DUP2 DUP2 LT PUSH2 0x50A JUMPI PUSH2 0x509 PUSH2 0xF9F JUMP JUMPDEST JUMPDEST SWAP1 POP ADD CALLDATALOAD PUSH1 0xF8 SHR PUSH1 0xF8 SHL PUSH31 0xFFFFFFFFFFFFFFFFFFFFFFFFFFFFFFFFFFFFFFFFFFFFFFFFFFFFFFFFFFFFFF NOT AND DUP7 DUP3 DUP2 MLOAD DUP2 LT PUSH2 0x549 JUMPI PUSH2 0x548 PUSH2 0xF9F JUMP JUMPDEST JUMPDEST PUSH1 0x20 ADD ADD MLOAD PUSH1 0xF8 SHR PUSH1 0xF8 SHL PUSH31 0xFFFFFFFFFFFFFFFFFFFFFFFFFFFFFFFFFFFFFFFFFFFFFFFFFFFFFFFFFFFFFF NOT AND EQ DUP1 ISZERO PUSH2 0x61A JUMPI POP DUP9 DUP9 PUSH1 0x0 DUP2 DUP2 LT PUSH2 0x592 JUMPI PUSH2 0x591 PUSH2 0xF9F JUMP JUMPDEST JUMPDEST SWAP1 POP ADD CALLDATALOAD PUSH1 0xF8 SHR PUSH1 0xF8 SHL PUSH31 0xFFFFFFFFFFFFFFFFFFFFFFFFFFFFFFFFFFFFFFFFFFFFFFFFFFFFFFFFFFFFFF NOT AND DUP7 PUSH1 0x1 DUP12 DUP12 SWAP1 POP DUP5 PUSH2 0x5D0 SWAP2 SWAP1 PUSH2 0x1007 JUMP JUMPDEST PUSH2 0x5DA SWAP2 SWAP1 PUSH2 0x103B JUMP JUMPDEST DUP2 MLOAD DUP2 LT PUSH2 0x5EB JUMPI PUSH2 0x5EA PUSH2 0xF9F JUMP JUMPDEST JUMPDEST PUSH1 0x20 ADD ADD MLOAD PUSH1 0xF8 SHR PUSH1 0xF8 SHL PUSH31 0xFFFFFFFFFFFFFFFFFFFFFFFFFFFFFFFFFFFFFFFFFFFFFFFFFFFFFFFFFFFFFF NOT AND EQ JUMPDEST ISZERO PUSH2 0x7CB JUMPI PUSH1 0x0 PUSH1 0x1 DUP11 DUP11 SWAP1 POP DUP4 PUSH2 0x632 SWAP2 SWAP1 PUSH2 0x1007 JUMP JUMPDEST PUSH2 0x63C SWAP2 SWAP1 PUSH2 0x103B JUMP JUMPDEST SWAP1 POP PUSH1 0x0 PUSH1 0x1 DUP4 PUSH2 0x64D SWAP2 SWAP1 PUSH2 0x103B JUMP JUMPDEST SWAP1 POP JUMPDEST PUSH1 0x0 DUP3 GT DUP1 ISZERO PUSH2 0x6CB JUMPI POP PUSH32 0xA00000000000000000000000000000000000000000000000000000000000000 DUP9 PUSH1 0x1 DUP5 PUSH2 0x68A SWAP2 SWAP1 PUSH2 0x1007 JUMP JUMPDEST DUP2 MLOAD DUP2 LT PUSH2 0x69B JUMPI PUSH2 0x69A PUSH2 0xF9F JUMP JUMPDEST JUMPDEST PUSH1 0x20 ADD ADD MLOAD PUSH1 0xF8 SHR PUSH1 0xF8 SHL PUSH31 0xFFFFFFFFFFFFFFFFFFFFFFFFFFFFFFFFFFFFFFFFFFFFFFFFFFFFFFFFFFFFFF NOT AND EQ ISZERO JUMPDEST ISZERO PUSH2 0x6E3 JUMPI DUP2 DUP1 PUSH2 0x6DB SWAP1 PUSH2 0x1177 JUMP JUMPDEST SWAP3 POP POP PUSH2 0x650 JUMP JUMPDEST JUMPDEST DUP8 MLOAD DUP2 LT DUP1 ISZERO PUSH2 0x753 JUMPI POP PUSH32 0xA00000000000000000000000000000000000000000000000000000000000000 DUP9 DUP3 DUP2 MLOAD DUP2 LT PUSH2 0x723 JUMPI PUSH2 0x722 PUSH2 0xF9F JUMP JUMPDEST JUMPDEST PUSH1 0x20 ADD ADD MLOAD PUSH1 0xF8 SHR PUSH1 0xF8 SHL PUSH31 0xFFFFFFFFFFFFFFFFFFFFFFFFFFFFFFFFFFFFFFFFFFFFFFFFFFFFFFFFFFFFFF NOT AND EQ ISZERO JUMPDEST ISZERO PUSH2 0x76B JUMPI DUP1 DUP1 PUSH2 0x763 SWAP1 PUSH2 0x11A0 JUMP JUMPDEST SWAP2 POP POP PUSH2 0x6E4 JUMP JUMPDEST PUSH1 0x0 DUP8 SWAP1 POP PUSH1 0x0 PUSH1 0x20 SWAP1 POP PUSH1 0x0 JUMPDEST DUP3 MLOAD DUP2 LT ISZERO PUSH2 0x7C5 JUMPI PUSH1 0x0 PUSH1 0x20 DUP3 ADD DUP5 ADD MLOAD SWAP1 POP DUP10 DUP2 PUSH1 0x40 MLOAD PUSH1 0x20 ADD PUSH2 0x7A0 SWAP3 SWAP2 SWAP1 PUSH2 0x125F JUMP JUMPDEST PUSH1 0x40 MLOAD PUSH1 0x20 DUP2 DUP4 SUB SUB DUP2 MSTORE SWAP1 PUSH1 0x40 MSTORE SWAP10 POP POP DUP2 DUP2 PUSH2 0x7BE SWAP2 SWAP1 PUSH2 0x103B JUMP JUMPDEST SWAP1 POP PUSH2 0x779 JUMP JUMPDEST POP POP POP POP POP JUMPDEST PUSH2 0x4D1 JUMP JUMPDEST POP JUMPDEST DUP1 ISZERO PUSH2 0xAE0 JUMPI PUSH1 0x0 DUP5 MLOAD SWAP1 POP JUMPDEST PUSH1 0x0 DUP2 GT ISZERO PUSH2 0xADE JUMPI DUP1 DUP1 PUSH2 0x7F3 SWAP1 PUSH2 0x1177 JUMP JUMPDEST SWAP2 POP POP DUP9 DUP9 PUSH1 0x1 DUP12 DUP12 SWAP1 POP PUSH2 0x808 SWAP2 SWAP1 PUSH2 0x1007 JUMP JUMPDEST DUP2 DUP2 LT PUSH2 0x818 JUMPI PUSH2 0x817 PUSH2 0xF9F JUMP JUMPDEST JUMPDEST SWAP1 POP ADD CALLDATALOAD PUSH1 0xF8 SHR PUSH1 0xF8 SHL PUSH31 0xFFFFFFFFFFFFFFFFFFFFFFFFFFFFFFFFFFFFFFFFFFFFFFFFFFFFFFFFFFFFFF NOT AND DUP6 DUP3 DUP2 MLOAD DUP2 LT PUSH2 0x857 JUMPI PUSH2 0x856 PUSH2 0xF9F JUMP JUMPDEST JUMPDEST PUSH1 0x20 ADD ADD MLOAD PUSH1 0xF8 SHR PUSH1 0xF8 SHL PUSH31 0xFFFFFFFFFFFFFFFFFFFFFFFFFFFFFFFFFFFFFFFFFFFFFFFFFFFFFFFFFFFFFF NOT AND EQ DUP1 ISZERO PUSH2 0x928 JUMPI POP DUP9 DUP9 PUSH1 0x0 DUP2 DUP2 LT PUSH2 0x8A0 JUMPI PUSH2 0x89F PUSH2 0xF9F JUMP JUMPDEST JUMPDEST SWAP1 POP ADD CALLDATALOAD PUSH1 0xF8 SHR PUSH1 0xF8 SHL PUSH31 0xFFFFFFFFFFFFFFFFFFFFFFFFFFFFFFFFFFFFFFFFFFFFFFFFFFFFFFFFFFFFFF NOT AND DUP6 PUSH1 0x1 DUP12 DUP12 SWAP1 POP DUP5 PUSH2 0x8DE SWAP2 SWAP1 PUSH2 0x1007 JUMP JUMPDEST PUSH2 0x8E8 SWAP2 SWAP1 PUSH2 0x103B JUMP JUMPDEST DUP2 MLOAD DUP2 LT PUSH2 0x8F9 JUMPI PUSH2 0x8F8 PUSH2 0xF9F JUMP JUMPDEST JUMPDEST PUSH1 0x20 ADD ADD MLOAD PUSH1 0xF8 SHR PUSH1 0xF8 SHL PUSH31 0xFFFFFFFFFFFFFFFFFFFFFFFFFFFFFFFFFFFFFFFFFFFFFFFFFFFFFFFFFFFFFF NOT AND EQ JUMPDEST ISZERO PUSH2 0xAD9 JUMPI PUSH1 0x0 PUSH1 0x1 DUP11 DUP11 SWAP1 POP DUP4 PUSH2 0x940 SWAP2 SWAP1 PUSH2 0x1007 JUMP JUMPDEST PUSH2 0x94A SWAP2 SWAP1 PUSH2 0x103B JUMP JUMPDEST SWAP1 POP PUSH1 0x0 PUSH1 0x1 DUP4 PUSH2 0x95B SWAP2 SWAP1 PUSH2 0x103B JUMP JUMPDEST SWAP1 POP JUMPDEST PUSH1 0x0 DUP3 GT DUP1 ISZERO PUSH2 0x9D9 JUMPI POP PUSH32 0xA00000000000000000000000000000000000000000000000000000000000000 DUP8 PUSH1 0x1 DUP5 PUSH2 0x998 SWAP2 SWAP1 PUSH2 0x1007 JUMP JUMPDEST DUP2 MLOAD DUP2 LT PUSH2 0x9A9 JUMPI PUSH2 0x9A8 PUSH2 0xF9F JUMP JUMPDEST JUMPDEST PUSH1 0x20 ADD ADD MLOAD PUSH1 0xF8 SHR PUSH1 0xF8 SHL PUSH31 0xFFFFFFFFFFFFFFFFFFFFFFFFFFFFFFFFFFFFFFFFFFFFFFFFFFFFFFFFFFFFFF NOT AND EQ ISZERO JUMPDEST ISZERO PUSH2 0x9F1 JUMPI DUP2 DUP1 PUSH2 0x9E9 SWAP1 PUSH2 0x1177 JUMP JUMPDEST SWAP3 POP POP PUSH2 0x95E JUMP JUMPDEST JUMPDEST DUP7 MLOAD DUP2 LT DUP1 ISZERO PUSH2 0xA61 JUMPI POP PUSH32 0xA00000000000000000000000000000000000000000000000000000000000000 DUP8 DUP3 DUP2 MLOAD DUP2 LT PUSH2 0xA31 JUMPI PUSH2 0xA30 PUSH2 0xF9F JUMP JUMPDEST JUMPDEST PUSH1 0x20 ADD ADD MLOAD PUSH1 0xF8 SHR PUSH1 0xF8 SHL PUSH31 0xFFFFFFFFFFFFFFFFFFFFFFFFFFFFFFFFFFFFFFFFFFFFFFFFFFFFFFFFFFFFFF NOT AND EQ ISZERO JUMPDEST ISZERO PUSH2 0xA79 JUMPI DUP1 DUP1 PUSH2 0xA71 SWAP1 PUSH2 0x11A0 JUMP JUMPDEST SWAP2 POP POP PUSH2 0x9F2 JUMP JUMPDEST PUSH1 0x0 DUP8 SWAP1 POP PUSH1 0x0 PUSH1 0x20 SWAP1 POP PUSH1 0x0 JUMPDEST DUP3 MLOAD DUP2 LT ISZERO PUSH2 0xAD3 JUMPI PUSH1 0x0 PUSH1 0x20 DUP3 ADD DUP5 ADD MLOAD SWAP1 POP DUP10 DUP2 PUSH1 0x40 MLOAD PUSH1 0x20 ADD PUSH2 0xAAE SWAP3 SWAP2 SWAP1 PUSH2 0x125F JUMP JUMPDEST PUSH1 0x40 MLOAD PUSH1 0x20 DUP2 DUP4 SUB SUB DUP2 MSTORE SWAP1 PUSH1 0x40 MSTORE SWAP10 POP POP DUP2 DUP2 PUSH2 0xACC SWAP2 SWAP1 PUSH2 0x103B JUMP JUMPDEST SWAP1 POP PUSH2 0xA87 JUMP JUMPDEST POP POP POP POP POP JUMPDEST PUSH2 0x7DF JUMP JUMPDEST POP JUMPDEST JUMPDEST POP POP JUMPDEST JUMPDEST DUP1 SWAP4 POP POP POP POP SWAP3 SWAP2 POP POP JUMP JUMPDEST PUSH1 0x0 DUP1 SLOAD SWAP1 PUSH2 0x100 EXP SWAP1 DIV PUSH20 0xFFFFFFFFFFFFFFFFFFFFFFFFFFFFFFFFFFFFFFFF AND DUP2 JUMP JUMPDEST PUSH1 0x0 PUSH1 0x40 MLOAD SWAP1 POP SWAP1 JUMP JUMPDEST PUSH1 0x0 DUP1 REVERT JUMPDEST PUSH1 0x0 DUP1 REVERT JUMPDEST PUSH1 0x0 DUP1 REVERT JUMPDEST PUSH1 0x0 DUP1 REVERT JUMPDEST PUSH1 0x0 DUP1 REVERT JUMPDEST PUSH1 0x0 DUP1 DUP4 PUSH1 0x1F DUP5 ADD SLT PUSH2 0xB4E JUMPI PUSH2 0xB4D PUSH2 0xB29 JUMP JUMPDEST JUMPDEST DUP3 CALLDATALOAD SWAP1 POP PUSH8 0xFFFFFFFFFFFFFFFF DUP2 GT ISZERO PUSH2 0xB6B JUMPI PUSH2 0xB6A PUSH2 0xB2E JUMP JUMPDEST JUMPDEST PUSH1 0x20 DUP4 ADD SWAP2 POP DUP4 PUSH1 0x1 DUP3 MUL DUP4 ADD GT ISZERO PUSH2 0xB87 JUMPI PUSH2 0xB86 PUSH2 0xB33 JUMP JUMPDEST JUMPDEST SWAP3 POP SWAP3 SWAP1 POP JUMP JUMPDEST PUSH1 0x0 DUP1 PUSH1 0x20 DUP4 DUP6 SUB SLT ISZERO PUSH2 0xBA5 JUMPI PUSH2 0xBA4 PUSH2 0xB1F JUMP JUMPDEST JUMPDEST PUSH1 0x0 DUP4 ADD CALLDATALOAD PUSH8 0xFFFFFFFFFFFFFFFF DUP2 GT ISZERO PUSH2 0xBC3 JUMPI PUSH2 0xBC2 PUSH2 0xB24 JUMP JUMPDEST JUMPDEST PUSH2 0xBCF DUP6 DUP3 DUP7 ADD PUSH2 0xB38 JUMP JUMPDEST SWAP3 POP SWAP3 POP POP SWAP3 POP SWAP3 SWAP1 POP JUMP JUMPDEST PUSH1 0x0 DUP2 MLOAD SWAP1 POP SWAP2 SWAP1 POP JUMP JUMPDEST PUSH1 0x0 DUP3 DUP3 MSTORE PUSH1 0x20 DUP3 ADD SWAP1 POP SWAP3 SWAP2 POP POP JUMP JUMPDEST PUSH1 0x0 JUMPDEST DUP4 DUP2 LT ISZERO PUSH2 0xC15 JUMPI DUP1 DUP3 ADD MLOAD DUP2 DUP5 ADD MSTORE PUSH1 0x20 DUP2 ADD SWAP1 POP PUSH2 0xBFA JUMP JUMPDEST PUSH1 0x0 DUP5 DUP5 ADD MSTORE POP POP POP POP JUMP JUMPDEST PUSH1 0x0 PUSH1 0x1F NOT PUSH1 0x1F DUP4 ADD AND SWAP1 POP SWAP2 SWAP1 POP JUMP JUMPDEST PUSH1 0x0 PUSH2 0xC3D DUP3 PUSH2 0xBDB JUMP JUMPDEST PUSH2 0xC47 DUP2 DUP6 PUSH2 0xBE6 JUMP JUMPDEST SWAP4 POP PUSH2 0xC57 DUP2 DUP6 PUSH1 0x20 DUP7 ADD PUSH2 0xBF7 JUMP JUMPDEST PUSH2 0xC60 DUP2 PUSH2 0xC21 JUMP JUMPDEST DUP5 ADD SWAP2 POP POP SWAP3 SWAP2 POP POP JUMP JUMPDEST PUSH1 0x0 PUSH1 0x20 DUP3 ADD SWAP1 POP DUP2 DUP2 SUB PUSH1 0x0 DUP4 ADD MSTORE PUSH2 0xC85 DUP2 DUP5 PUSH2 0xC32 JUMP JUMPDEST SWAP1 POP SWAP3 SWAP2 POP POP JUMP JUMPDEST PUSH1 0x0 PUSH20 0xFFFFFFFFFFFFFFFFFFFFFFFFFFFFFFFFFFFFFFFF DUP3 AND SWAP1 POP SWAP2 SWAP1 POP JUMP JUMPDEST PUSH1 0x0 DUP2 SWAP1 POP SWAP2 SWAP1 POP JUMP JUMPDEST PUSH1 0x0 PUSH2 0xCD2 PUSH2 0xCCD PUSH2 0xCC8 DUP5 PUSH2 0xC8D JUMP JUMPDEST PUSH2 0xCAD JUMP JUMPDEST PUSH2 0xC8D JUMP JUMPDEST SWAP1 POP SWAP2 SWAP1 POP JUMP JUMPDEST PUSH1 0x0 PUSH2 0xCE4 DUP3 PUSH2 0xCB7 JUMP JUMPDEST SWAP1 POP SWAP2 SWAP1 POP JUMP JUMPDEST PUSH1 0x0 PUSH2 0xCF6 DUP3 PUSH2 0xCD9 JUMP JUMPDEST SWAP1 POP SWAP2 SWAP1 POP JUMP JUMPDEST PUSH2 0xD06 DUP2 PUSH2 0xCEB JUMP JUMPDEST DUP3 MSTORE POP POP JUMP JUMPDEST PUSH1 0x0 PUSH1 0x20 DUP3 ADD SWAP1 POP PUSH2 0xD21 PUSH1 0x0 DUP4 ADD DUP5 PUSH2 0xCFD JUMP JUMPDEST SWAP3 SWAP2 POP POP JUMP JUMPDEST PUSH1 0x0 DUP1 REVERT JUMPDEST PUSH32 0x4E487B7100000000000000000000000000000000000000000000000000000000 PUSH1 0x0 MSTORE PUSH1 0x41 PUSH1 0x4 MSTORE PUSH1 0x24 PUSH1 0x0 REVERT JUMPDEST PUSH2 0xD64 DUP3 PUSH2 0xC21 JUMP JUMPDEST DUP2 ADD DUP2 DUP2 LT PUSH8 0xFFFFFFFFFFFFFFFF DUP3 GT OR ISZERO PUSH2 0xD83 JUMPI PUSH2 0xD82 PUSH2 0xD2C JUMP JUMPDEST JUMPDEST DUP1 PUSH1 0x40 MSTORE POP POP POP JUMP JUMPDEST PUSH1 0x0 PUSH2 0xD96 PUSH2 0xB15 JUMP JUMPDEST SWAP1 POP PUSH2 0xDA2 DUP3 DUP3 PUSH2 0xD5B JUMP JUMPDEST SWAP2 SWAP1 POP JUMP JUMPDEST PUSH1 0x0 PUSH8 0xFFFFFFFFFFFFFFFF DUP3 GT ISZERO PUSH2 0xDC2 JUMPI PUSH2 0xDC1 PUSH2 0xD2C JUMP JUMPDEST JUMPDEST PUSH2 0xDCB DUP3 PUSH2 0xC21 JUMP JUMPDEST SWAP1 POP PUSH1 0x20 DUP2 ADD SWAP1 POP SWAP2 SWAP1 POP JUMP JUMPDEST PUSH1 0x0 PUSH2 0xDEB PUSH2 0xDE6 DUP5 PUSH2 0xDA7 JUMP JUMPDEST PUSH2 0xD8C JUMP JUMPDEST SWAP1 POP DUP3 DUP2 MSTORE PUSH1 0x20 DUP2 ADD DUP5 DUP5 DUP5 ADD GT ISZERO PUSH2 0xE07 JUMPI PUSH2 0xE06 PUSH2 0xD27 JUMP JUMPDEST JUMPDEST PUSH2 0xE12 DUP5 DUP3 DUP6 PUSH2 0xBF7 JUMP JUMPDEST POP SWAP4 SWAP3 POP POP POP JUMP JUMPDEST PUSH1 0x0 DUP3 PUSH1 0x1F DUP4 ADD SLT PUSH2 0xE2F JUMPI PUSH2 0xE2E PUSH2 0xB29 JUMP JUMPDEST JUMPDEST DUP2 MLOAD PUSH2 0xE3F DUP5 DUP3 PUSH1 0x20 DUP7 ADD PUSH2 0xDD8 JUMP JUMPDEST SWAP2 POP POP SWAP3 SWAP2 POP POP JUMP JUMPDEST PUSH1 0x0 PUSH1 0x20 DUP3 DUP5 SUB SLT ISZERO PUSH2 0xE5E JUMPI PUSH2 0xE5D PUSH2 0xB1F JUMP JUMPDEST JUMPDEST PUSH1 0x0 DUP3 ADD MLOAD PUSH8 0xFFFFFFFFFFFFFFFF DUP2 GT ISZERO PUSH2 0xE7C JUMPI PUSH2 0xE7B PUSH2 0xB24 JUMP JUMPDEST JUMPDEST PUSH2 0xE88 DUP5 DUP3 DUP6 ADD PUSH2 0xE1A JUMP JUMPDEST SWAP2 POP POP SWAP3 SWAP2 POP POP JUMP JUMPDEST PUSH1 0x0 DUP2 SWAP1 POP SWAP3 SWAP2 POP POP JUMP JUMPDEST PUSH32 0x437261776C656420646174613A0A000000000000000000000000000000000000 PUSH1 0x0 DUP3 ADD MSTORE POP JUMP JUMPDEST PUSH1 0x0 PUSH2 0xED2 PUSH1 0xE DUP4 PUSH2 0xE91 JUMP JUMPDEST SWAP2 POP PUSH2 0xEDD DUP3 PUSH2 0xE9C JUMP JUMPDEST PUSH1 0xE DUP3 ADD SWAP1 POP SWAP2 SWAP1 POP JUMP JUMPDEST PUSH1 0x0 PUSH2 0xEF3 DUP3 PUSH2 0xBDB JUMP JUMPDEST PUSH2 0xEFD DUP2 DUP6 PUSH2 0xE91 JUMP JUMPDEST SWAP4 POP PUSH2 0xF0D DUP2 DUP6 PUSH1 0x20 DUP7 ADD PUSH2 0xBF7 JUMP JUMPDEST DUP1 DUP5 ADD SWAP2 POP POP SWAP3 SWAP2 POP POP JUMP JUMPDEST PUSH32 0xA0A547261696E656420646174613A0A00000000000000000000000000000000 PUSH1 0x0 DUP3 ADD MSTORE POP JUMP JUMPDEST PUSH1 0x0 PUSH2 0xF4F PUSH1 0x10 DUP4 PUSH2 0xE91 JUMP JUMPDEST SWAP2 POP PUSH2 0xF5A DUP3 PUSH2 0xF19 JUMP JUMPDEST PUSH1 0x10 DUP3 ADD SWAP1 POP SWAP2 SWAP1 POP JUMP JUMPDEST PUSH1 0x0 PUSH2 0xF70 DUP3 PUSH2 0xEC5 JUMP JUMPDEST SWAP2 POP PUSH2 0xF7C DUP3 DUP6 PUSH2 0xEE8 JUMP JUMPDEST SWAP2 POP PUSH2 0xF87 DUP3 PUSH2 0xF42 JUMP JUMPDEST SWAP2 POP PUSH2 0xF93 DUP3 DUP5 PUSH2 0xEE8 JUMP JUMPDEST SWAP2 POP DUP2 SWAP1 POP SWAP4 SWAP3 POP POP POP JUMP JUMPDEST PUSH32 0x4E487B7100000000000000000000000000000000000000000000000000000000 PUSH1 0x0 MSTORE PUSH1 0x32 PUSH1 0x4 MSTORE PUSH1 0x24 PUSH1 0x0 REVERT JUMPDEST PUSH1 0x0 DUP2 SWAP1 POP SWAP2 SWAP1 POP JUMP JUMPDEST PUSH32 0x4E487B7100000000000000000000000000000000000000000000000000000000 PUSH1 0x0 MSTORE PUSH1 0x11 PUSH1 0x4 MSTORE PUSH1 0x24 PUSH1 0x0 REVERT JUMPDEST PUSH1 0x0 PUSH2 0x1012 DUP3 PUSH2 0xFCE JUMP JUMPDEST SWAP2 POP PUSH2 0x101D DUP4 PUSH2 0xFCE JUMP JUMPDEST SWAP3 POP DUP3 DUP3 SUB SWAP1 POP DUP2 DUP2 GT ISZERO PUSH2 0x1035 JUMPI PUSH2 0x1034 PUSH2 0xFD8 JUMP JUMPDEST JUMPDEST SWAP3 SWAP2 POP POP JUMP JUMPDEST PUSH1 0x0 PUSH2 0x1046 DUP3 PUSH2 0xFCE JUMP JUMPDEST SWAP2 POP PUSH2 0x1051 DUP4 PUSH2 0xFCE JUMP JUMPDEST SWAP3 POP DUP3 DUP3 ADD SWAP1 POP DUP1 DUP3 GT ISZERO PUSH2 0x1069 JUMPI PUSH2 0x1068 PUSH2 0xFD8 JUMP JUMPDEST JUMPDEST SWAP3 SWAP2 POP POP JUMP JUMPDEST PUSH32 0xA0A526573756C747320666F7220270000000000000000000000000000000000 PUSH1 0x0 DUP3 ADD MSTORE POP JUMP JUMPDEST PUSH1 0x0 PUSH2 0x10A5 PUSH1 0xF DUP4 PUSH2 0xE91 JUMP JUMPDEST SWAP2 POP PUSH2 0x10B0 DUP3 PUSH2 0x106F JUMP JUMPDEST PUSH1 0xF DUP3 ADD SWAP1 POP SWAP2 SWAP1 POP JUMP JUMPDEST DUP3 DUP2 DUP4 CALLDATACOPY PUSH1 0x0 DUP4 DUP4 ADD MSTORE POP POP POP JUMP JUMPDEST PUSH1 0x0 PUSH2 0x10D6 DUP4 DUP6 PUSH2 0xE91 JUMP JUMPDEST SWAP4 POP PUSH2 0x10E3 DUP4 DUP6 DUP5 PUSH2 0x10BB JUMP JUMPDEST DUP3 DUP5 ADD SWAP1 POP SWAP4 SWAP3 POP POP POP JUMP JUMPDEST PUSH32 0x273A0A0000000000000000000000000000000000000000000000000000000000 PUSH1 0x0 DUP3 ADD MSTORE POP JUMP JUMPDEST PUSH1 0x0 PUSH2 0x1125 PUSH1 0x3 DUP4 PUSH2 0xE91 JUMP JUMPDEST SWAP2 POP PUSH2 0x1130 DUP3 PUSH2 0x10EF JUMP JUMPDEST PUSH1 0x3 DUP3 ADD SWAP1 POP SWAP2 SWAP1 POP JUMP JUMPDEST PUSH1 0x0 PUSH2 0x1147 DUP3 DUP7 PUSH2 0xEE8 JUMP JUMPDEST SWAP2 POP PUSH2 0x1152 DUP3 PUSH2 0x1098 JUMP JUMPDEST SWAP2 POP PUSH2 0x115F DUP3 DUP5 DUP7 PUSH2 0x10CA JUMP JUMPDEST SWAP2 POP PUSH2 0x116A DUP3 PUSH2 0x1118 JUMP JUMPDEST SWAP2 POP DUP2 SWAP1 POP SWAP5 SWAP4 POP POP POP POP JUMP JUMPDEST PUSH1 0x0 PUSH2 0x1182 DUP3 PUSH2 0xFCE JUMP JUMPDEST SWAP2 POP PUSH1 0x0 DUP3 SUB PUSH2 0x1195 JUMPI PUSH2 0x1194 PUSH2 0xFD8 JUMP JUMPDEST JUMPDEST PUSH1 0x1 DUP3 SUB SWAP1 POP SWAP2 SWAP1 POP JUMP JUMPDEST PUSH1 0x0 PUSH2 0x11AB DUP3 PUSH2 0xFCE JUMP JUMPDEST SWAP2 POP PUSH32 0xFFFFFFFFFFFFFFFFFFFFFFFFFFFFFFFFFFFFFFFFFFFFFFFFFFFFFFFFFFFFFFFF DUP3 SUB PUSH2 0x11DD JUMPI PUSH2 0x11DC PUSH2 0xFD8 JUMP JUMPDEST JUMPDEST PUSH1 0x1 DUP3 ADD SWAP1 POP SWAP2 SWAP1 POP JUMP JUMPDEST PUSH32 0xA2D200000000000000000000000000000000000000000000000000000000000 PUSH1 0x0 DUP3 ADD MSTORE POP JUMP JUMPDEST PUSH1 0x0 PUSH2 0x121E PUSH1 0x3 DUP4 PUSH2 0xE91 JUMP JUMPDEST SWAP2 POP PUSH2 0x1229 DUP3 PUSH2 0x11E8 JUMP JUMPDEST PUSH1 0x3 DUP3 ADD SWAP1 POP SWAP2 SWAP1 POP JUMP JUMPDEST PUSH1 0x0 DUP2 SWAP1 POP SWAP2 SWAP1 POP JUMP JUMPDEST PUSH1 0x0 DUP2 SWAP1 POP SWAP2 SWAP1 POP JUMP JUMPDEST PUSH2 0x1259 PUSH2 0x1254 DUP3 PUSH2 0x1234 JUMP JUMPDEST PUSH2 0x123E JUMP JUMPDEST DUP3 MSTORE POP POP JUMP JUMPDEST PUSH1 0x0 PUSH2 0x126B DUP3 DUP6 PUSH2 0xEE8 JUMP JUMPDEST SWAP2 POP PUSH2 0x1276 DUP3 PUSH2 0x1211 JUMP JUMPDEST SWAP2 POP PUSH2 0x1282 DUP3 DUP5 PUSH2 0x1248 JUMP JUMPDEST PUSH1 0x20 DUP3 ADD SWAP2 POP DUP2 SWAP1 POP SWAP4 SWAP3 POP POP POP JUMP INVALID LOG2 PUSH5 0x6970667358 0x22 SLT KECCAK256 DUP13 ORIGIN SWAP11 JUMPI DIV LOG4 0x4B 0xB1 STOP SLOAD NUMBER 0xE6 KECCAK256 0x26 PUSH9 0x991F8C7FF0D7E256E3 0xCA PC PUSH32 0x7C5A8EB6D264736F6C6343000811003300000000000000000000000000000000 "
		},
		"gasEstimates": {
			"creation": {
				"codeDepositCost": "961600",
				"executionCost": "infinite",
				"totalCost": "infinite"
			},
			"external": {
				"crawler()": "infinite",
				"search(string)": "infinite"
			}
		},
		"methodIdentifiers": {
			"crawler()": "fc86d923",
			"search(string)": "820ed086"
		}
	},
	"abi": [
		{
			"inputs": [
				{
					"internalType": "address",
					"name": "crawlerAddress",
					"type": "address"
				}
			],
			"stateMutability": "nonpayable",
			"type": "constructor"
		},
		{
			"inputs": [],
			"name": "crawler",
			"outputs": [
				{
					"internalType": "contract WebCrawler",
					"name": "",
					"type": "address"
				}
			],
			"stateMutability": "view",
			"type": "function"
		},
		{
			"inputs": [
				{
					"internalType": "string",
					"name": "keyword",
					"type": "string"
				}
			],
			"name": "search",
			"outputs": [
				{
					"internalType": "string",
					"name": "",
					"type": "string"
				}
			],
			"stateMutability": "view",
			"type": "function"
		}
	]
}